{
  "contracts/ChronoTrade.sol": {
    "ChronoTrade": {
      "abi": [
        {
          "inputs": [
            {
              "internalType": "address",
              "name": "_timeTokenAddress",
              "type": "address"
            }
          ],
          "stateMutability": "nonpayable",
          "type": "constructor"
        },
        {
          "anonymous": false,
          "inputs": [
            {
              "indexed": true,
              "internalType": "uint256",
              "name": "serviceId",
              "type": "uint256"
            },
            {
              "indexed": true,
              "internalType": "address",
              "name": "author",
              "type": "address"
            },
            {
              "indexed": false,
              "internalType": "uint256",
              "name": "commentId",
              "type": "uint256"
            },
            {
              "indexed": false,
              "internalType": "uint8",
              "name": "rating",
              "type": "uint8"
            }
          ],
          "name": "CommentCreated",
          "type": "event"
        },
        {
          "anonymous": false,
          "inputs": [
            {
              "indexed": true,
              "internalType": "uint256",
              "name": "serviceId",
              "type": "uint256"
            },
            {
              "indexed": true,
              "internalType": "address",
              "name": "buyer",
              "type": "address"
            }
          ],
          "name": "ServiceApproved",
          "type": "event"
        },
        {
          "anonymous": false,
          "inputs": [
            {
              "indexed": true,
              "internalType": "uint256",
              "name": "serviceId",
              "type": "uint256"
            },
            {
              "indexed": true,
              "internalType": "address",
              "name": "buyer",
              "type": "address"
            },
            {
              "indexed": false,
              "internalType": "uint256",
              "name": "startTime",
              "type": "uint256"
            }
          ],
          "name": "ServiceBought",
          "type": "event"
        },
        {
          "anonymous": false,
          "inputs": [
            {
              "indexed": true,
              "internalType": "uint256",
              "name": "serviceId",
              "type": "uint256"
            },
            {
              "indexed": true,
              "internalType": "address",
              "name": "by",
              "type": "address"
            },
            {
              "indexed": false,
              "internalType": "string",
              "name": "reason",
              "type": "string"
            }
          ],
          "name": "ServiceCancelled",
          "type": "event"
        },
        {
          "anonymous": false,
          "inputs": [
            {
              "indexed": true,
              "internalType": "uint256",
              "name": "serviceId",
              "type": "uint256"
            },
            {
              "indexed": true,
              "internalType": "address",
              "name": "buyer",
              "type": "address"
            }
          ],
          "name": "ServiceCompleted",
          "type": "event"
        },
        {
          "anonymous": false,
          "inputs": [
            {
              "indexed": true,
              "internalType": "uint256",
              "name": "serviceId",
              "type": "uint256"
            },
            {
              "indexed": true,
              "internalType": "address",
              "name": "seller",
              "type": "address"
            },
            {
              "indexed": false,
              "internalType": "uint8",
              "name": "durationHours",
              "type": "uint8"
            }
          ],
          "name": "ServiceCreated",
          "type": "event"
        },
        {
          "anonymous": false,
          "inputs": [
            {
              "indexed": true,
              "internalType": "address",
              "name": "user",
              "type": "address"
            }
          ],
          "name": "TimeSlotsUpdated",
          "type": "event"
        },
        {
          "anonymous": false,
          "inputs": [
            {
              "indexed": true,
              "internalType": "address",
              "name": "ratedUser",
              "type": "address"
            },
            {
              "indexed": false,
              "internalType": "uint8",
              "name": "rating",
              "type": "uint8"
            }
          ],
          "name": "UserRated",
          "type": "event"
        },
        {
          "anonymous": false,
          "inputs": [
            {
              "indexed": true,
              "internalType": "address",
              "name": "user",
              "type": "address"
            }
          ],
          "name": "UserRegistered",
          "type": "event"
        },
        {
          "anonymous": false,
          "inputs": [
            {
              "indexed": true,
              "internalType": "address",
              "name": "user",
              "type": "address"
            },
            {
              "indexed": false,
              "internalType": "uint256",
              "name": "amount",
              "type": "uint256"
            }
          ],
          "name": "Withdraw",
          "type": "event"
        },
        {
          "anonymous": false,
          "inputs": [
            {
              "indexed": true,
              "internalType": "address",
              "name": "user",
              "type": "address"
            },
            {
              "indexed": false,
              "internalType": "uint256",
              "name": "amount",
              "type": "uint256"
            },
            {
              "indexed": false,
              "internalType": "string",
              "name": "reason",
              "type": "string"
            }
          ],
          "name": "WithdrawSuccess",
          "type": "event"
        },
        {
          "inputs": [],
          "name": "TIMEOUT_DURATION",
          "outputs": [
            {
              "internalType": "uint256",
              "name": "",
              "type": "uint256"
            }
          ],
          "stateMutability": "view",
          "type": "function"
        },
        {
          "inputs": [],
          "name": "TOKEN_PER_HOUR",
          "outputs": [
            {
              "internalType": "uint256",
              "name": "",
              "type": "uint256"
            }
          ],
          "stateMutability": "view",
          "type": "function"
        },
        {
          "inputs": [
            {
              "internalType": "uint256",
              "name": "_serviceId",
              "type": "uint256"
            }
          ],
          "name": "approveCompletion",
          "outputs": [],
          "stateMutability": "nonpayable",
          "type": "function"
        },
        {
          "inputs": [
            {
              "internalType": "uint256",
              "name": "",
              "type": "uint256"
            },
            {
              "internalType": "uint256",
              "name": "",
              "type": "uint256"
            }
          ],
          "name": "bookedSlots",
          "outputs": [
            {
              "internalType": "bool",
              "name": "",
              "type": "bool"
            }
          ],
          "stateMutability": "view",
          "type": "function"
        },
        {
          "inputs": [
            {
              "internalType": "uint256",
              "name": "_serviceId",
              "type": "uint256"
            },
            {
              "internalType": "uint256",
              "name": "_scheduledTime",
              "type": "uint256"
            }
          ],
          "name": "buyService",
          "outputs": [],
          "stateMutability": "nonpayable",
          "type": "function"
        },
        {
          "inputs": [
            {
              "internalType": "uint256",
              "name": "_serviceId",
              "type": "uint256"
            },
            {
              "internalType": "string",
              "name": "_reason",
              "type": "string"
            }
          ],
          "name": "cancelService",
          "outputs": [],
          "stateMutability": "nonpayable",
          "type": "function"
        },
        {
          "inputs": [
            {
              "internalType": "uint256",
              "name": "_serviceId",
              "type": "uint256"
            },
            {
              "internalType": "string",
              "name": "_content",
              "type": "string"
            },
            {
              "internalType": "uint8",
              "name": "_rating",
              "type": "uint8"
            }
          ],
          "name": "createComment",
          "outputs": [],
          "stateMutability": "nonpayable",
          "type": "function"
        },
        {
          "inputs": [
            {
              "internalType": "string",
              "name": "_title",
              "type": "string"
            },
            {
              "internalType": "string",
              "name": "_description",
              "type": "string"
            },
            {
              "internalType": "uint8",
              "name": "_durationHours",
              "type": "uint8"
            }
          ],
          "name": "createService",
          "outputs": [],
          "stateMutability": "nonpayable",
          "type": "function"
        },
        {
          "inputs": [
            {
              "internalType": "address",
              "name": "_user",
              "type": "address"
            },
            {
              "internalType": "uint256",
              "name": "_startTime",
              "type": "uint256"
            },
            {
              "internalType": "uint256",
              "name": "_endTime",
              "type": "uint256"
            }
          ],
          "name": "getBookedTimeSlots",
          "outputs": [
            {
              "internalType": "uint256[]",
              "name": "",
              "type": "uint256[]"
            }
          ],
          "stateMutability": "view",
          "type": "function"
        },
        {
          "inputs": [
            {
              "internalType": "uint256",
              "name": "_serviceId",
              "type": "uint256"
            }
          ],
          "name": "getComments",
          "outputs": [
            {
              "components": [
                {
                  "internalType": "uint256",
                  "name": "id",
                  "type": "uint256"
                },
                {
                  "internalType": "uint256",
                  "name": "serviceId",
                  "type": "uint256"
                },
                {
                  "internalType": "address",
                  "name": "author",
                  "type": "address"
                },
                {
                  "internalType": "string",
                  "name": "content",
                  "type": "string"
                },
                {
                  "internalType": "uint256",
                  "name": "timestamp",
                  "type": "uint256"
                },
                {
                  "internalType": "uint8",
                  "name": "rating",
                  "type": "uint8"
                }
              ],
              "internalType": "struct ChronoTrade.Comment[]",
              "name": "",
              "type": "tuple[]"
            }
          ],
          "stateMutability": "view",
          "type": "function"
        },
        {
          "inputs": [
            {
              "internalType": "uint256",
              "name": "_timestamp",
              "type": "uint256"
            }
          ],
          "name": "getDayOfWeek",
          "outputs": [
            {
              "internalType": "enum ChronoTrade.DayOfWeek",
              "name": "",
              "type": "uint8"
            }
          ],
          "stateMutability": "pure",
          "type": "function"
        },
        {
          "inputs": [
            {
              "internalType": "uint256",
              "name": "_timestamp",
              "type": "uint256"
            }
          ],
          "name": "getHour",
          "outputs": [
            {
              "internalType": "uint8",
              "name": "",
              "type": "uint8"
            }
          ],
          "stateMutability": "pure",
          "type": "function"
        },
        {
          "inputs": [
            {
              "internalType": "address",
              "name": "_user",
              "type": "address"
            }
          ],
          "name": "getProfile",
          "outputs": [
            {
              "internalType": "address",
              "name": "user",
              "type": "address"
            },
            {
              "internalType": "string",
              "name": "name",
              "type": "string"
            },
            {
              "internalType": "string",
              "name": "description",
              "type": "string"
            },
            {
              "internalType": "uint256",
              "name": "ratingSum",
              "type": "uint256"
            },
            {
              "internalType": "uint256",
              "name": "ratingCount",
              "type": "uint256"
            },
            {
              "internalType": "bool",
              "name": "isRegistered",
              "type": "bool"
            },
            {
              "internalType": "enum ChronoTrade.DayOfWeek[]",
              "name": "availableDays",
              "type": "uint8[]"
            },
            {
              "components": [
                {
                  "internalType": "uint8",
                  "name": "startHour",
                  "type": "uint8"
                },
                {
                  "internalType": "uint8",
                  "name": "endHour",
                  "type": "uint8"
                }
              ],
              "internalType": "struct ChronoTrade.TimeSlot[]",
              "name": "availableTimeSlots",
              "type": "tuple[]"
            },
            {
              "internalType": "uint8[]",
              "name": "timeSlotStartHours",
              "type": "uint8[]"
            }
          ],
          "stateMutability": "view",
          "type": "function"
        },
        {
          "inputs": [
            {
              "internalType": "address",
              "name": "_user",
              "type": "address"
            }
          ],
          "name": "getProvidedServices",
          "outputs": [
            {
              "components": [
                {
                  "internalType": "uint256",
                  "name": "id",
                  "type": "uint256"
                },
                {
                  "internalType": "address",
                  "name": "seller",
                  "type": "address"
                },
                {
                  "internalType": "string",
                  "name": "title",
                  "type": "string"
                },
                {
                  "internalType": "string",
                  "name": "description",
                  "type": "string"
                },
                {
                  "internalType": "bool",
                  "name": "isActive",
                  "type": "bool"
                },
                {
                  "internalType": "uint8",
                  "name": "durationHours",
                  "type": "uint8"
                }
              ],
              "internalType": "struct ChronoTrade.Service[]",
              "name": "",
              "type": "tuple[]"
            }
          ],
          "stateMutability": "view",
          "type": "function"
        },
        {
          "inputs": [
            {
              "internalType": "uint256",
              "name": "_serviceId",
              "type": "uint256"
            }
          ],
          "name": "getPurchasedService",
          "outputs": [
            {
              "components": [
                {
                  "internalType": "uint256",
                  "name": "serviceId",
                  "type": "uint256"
                },
                {
                  "internalType": "address",
                  "name": "buyer",
                  "type": "address"
                },
                {
                  "internalType": "bool",
                  "name": "isApproved",
                  "type": "bool"
                },
                {
                  "internalType": "bool",
                  "name": "sellerWithdrawn",
                  "type": "bool"
                },
                {
                  "internalType": "bool",
                  "name": "buyerWithdrawn",
                  "type": "bool"
                },
                {
                  "internalType": "uint256",
                  "name": "timestamp",
                  "type": "uint256"
                },
                {
                  "internalType": "uint256",
                  "name": "scheduledTime",
                  "type": "uint256"
                },
                {
                  "internalType": "bool",
                  "name": "isCancelled",
                  "type": "bool"
                }
              ],
              "internalType": "struct ChronoTrade.PurchasedService",
              "name": "purchase",
              "type": "tuple"
            },
            {
              "components": [
                {
                  "internalType": "uint256",
                  "name": "id",
                  "type": "uint256"
                },
                {
                  "internalType": "address",
                  "name": "seller",
                  "type": "address"
                },
                {
                  "internalType": "string",
                  "name": "title",
                  "type": "string"
                },
                {
                  "internalType": "string",
                  "name": "description",
                  "type": "string"
                },
                {
                  "internalType": "bool",
                  "name": "isActive",
                  "type": "bool"
                },
                {
                  "internalType": "uint8",
                  "name": "durationHours",
                  "type": "uint8"
                }
              ],
              "internalType": "struct ChronoTrade.Service",
              "name": "service",
              "type": "tuple"
            }
          ],
          "stateMutability": "view",
          "type": "function"
        },
        {
          "inputs": [
            {
              "internalType": "address",
              "name": "_user",
              "type": "address"
            }
          ],
          "name": "getReceivedServices",
          "outputs": [
            {
              "components": [
                {
                  "internalType": "uint256",
                  "name": "id",
                  "type": "uint256"
                },
                {
                  "internalType": "address",
                  "name": "seller",
                  "type": "address"
                },
                {
                  "internalType": "string",
                  "name": "title",
                  "type": "string"
                },
                {
                  "internalType": "string",
                  "name": "description",
                  "type": "string"
                },
                {
                  "internalType": "bool",
                  "name": "isActive",
                  "type": "bool"
                },
                {
                  "internalType": "uint8",
                  "name": "durationHours",
                  "type": "uint8"
                }
              ],
              "internalType": "struct ChronoTrade.Service[]",
              "name": "",
              "type": "tuple[]"
            },
            {
              "components": [
                {
                  "internalType": "uint256",
                  "name": "serviceId",
                  "type": "uint256"
                },
                {
                  "internalType": "address",
                  "name": "buyer",
                  "type": "address"
                },
                {
                  "internalType": "bool",
                  "name": "isApproved",
                  "type": "bool"
                },
                {
                  "internalType": "bool",
                  "name": "sellerWithdrawn",
                  "type": "bool"
                },
                {
                  "internalType": "bool",
                  "name": "buyerWithdrawn",
                  "type": "bool"
                },
                {
                  "internalType": "uint256",
                  "name": "timestamp",
                  "type": "uint256"
                },
                {
                  "internalType": "uint256",
                  "name": "scheduledTime",
                  "type": "uint256"
                },
                {
                  "internalType": "bool",
                  "name": "isCancelled",
                  "type": "bool"
                }
              ],
              "internalType": "struct ChronoTrade.PurchasedService[]",
              "name": "",
              "type": "tuple[]"
            }
          ],
          "stateMutability": "view",
          "type": "function"
        },
        {
          "inputs": [
            {
              "internalType": "uint256",
              "name": "_serviceId",
              "type": "uint256"
            }
          ],
          "name": "getService",
          "outputs": [
            {
              "components": [
                {
                  "internalType": "uint256",
                  "name": "id",
                  "type": "uint256"
                },
                {
                  "internalType": "address",
                  "name": "seller",
                  "type": "address"
                },
                {
                  "internalType": "string",
                  "name": "title",
                  "type": "string"
                },
                {
                  "internalType": "string",
                  "name": "description",
                  "type": "string"
                },
                {
                  "internalType": "bool",
                  "name": "isActive",
                  "type": "bool"
                },
                {
                  "internalType": "uint8",
                  "name": "durationHours",
                  "type": "uint8"
                }
              ],
              "internalType": "struct ChronoTrade.Service",
              "name": "service",
              "type": "tuple"
            },
            {
              "internalType": "address",
              "name": "seller",
              "type": "address"
            },
            {
              "internalType": "string",
              "name": "sellerName",
              "type": "string"
            },
            {
              "internalType": "string",
              "name": "sellerDescription",
              "type": "string"
            },
            {
              "internalType": "uint256",
              "name": "sellerRatingSum",
              "type": "uint256"
            },
            {
              "internalType": "uint256",
              "name": "sellerRatingCount",
              "type": "uint256"
            },
            {
              "internalType": "enum ChronoTrade.DayOfWeek[]",
              "name": "sellerAvailableDays",
              "type": "uint8[]"
            },
            {
              "components": [
                {
                  "internalType": "uint8",
                  "name": "startHour",
                  "type": "uint8"
                },
                {
                  "internalType": "uint8",
                  "name": "endHour",
                  "type": "uint8"
                }
              ],
              "internalType": "struct ChronoTrade.TimeSlot[]",
              "name": "sellerAvailableTimeSlots",
              "type": "tuple[]"
            },
            {
              "internalType": "uint8[]",
              "name": "sellerTimeSlotStartHours",
              "type": "uint8[]"
            },
            {
              "components": [
                {
                  "internalType": "uint256",
                  "name": "serviceId",
                  "type": "uint256"
                },
                {
                  "internalType": "address",
                  "name": "buyer",
                  "type": "address"
                },
                {
                  "internalType": "bool",
                  "name": "isApproved",
                  "type": "bool"
                },
                {
                  "internalType": "bool",
                  "name": "sellerWithdrawn",
                  "type": "bool"
                },
                {
                  "internalType": "bool",
                  "name": "buyerWithdrawn",
                  "type": "bool"
                },
                {
                  "internalType": "uint256",
                  "name": "timestamp",
                  "type": "uint256"
                },
                {
                  "internalType": "uint256",
                  "name": "scheduledTime",
                  "type": "uint256"
                },
                {
                  "internalType": "bool",
                  "name": "isCancelled",
                  "type": "bool"
                }
              ],
              "internalType": "struct ChronoTrade.PurchasedService",
              "name": "purchase",
              "type": "tuple"
            }
          ],
          "stateMutability": "view",
          "type": "function"
        },
        {
          "inputs": [
            {
              "internalType": "uint256",
              "name": "_serviceId",
              "type": "uint256"
            }
          ],
          "name": "getServiceTimeDetails",
          "outputs": [
            {
              "internalType": "uint8",
              "name": "durationHours",
              "type": "uint8"
            },
            {
              "internalType": "enum ChronoTrade.DayOfWeek[]",
              "name": "availableDays",
              "type": "uint8[]"
            },
            {
              "components": [
                {
                  "internalType": "uint8",
                  "name": "startHour",
                  "type": "uint8"
                },
                {
                  "internalType": "uint8",
                  "name": "endHour",
                  "type": "uint8"
                }
              ],
              "internalType": "struct ChronoTrade.TimeSlot[]",
              "name": "availableTimeSlots",
              "type": "tuple[]"
            }
          ],
          "stateMutability": "view",
          "type": "function"
        },
        {
          "inputs": [
            {
              "internalType": "address",
              "name": "_user",
              "type": "address"
            },
            {
              "internalType": "uint8",
              "name": "_hour",
              "type": "uint8"
            }
          ],
          "name": "getTimeSlot",
          "outputs": [
            {
              "components": [
                {
                  "internalType": "uint8",
                  "name": "startHour",
                  "type": "uint8"
                },
                {
                  "internalType": "uint8",
                  "name": "endHour",
                  "type": "uint8"
                }
              ],
              "internalType": "struct ChronoTrade.TimeSlot",
              "name": "",
              "type": "tuple"
            }
          ],
          "stateMutability": "view",
          "type": "function"
        },
        {
          "inputs": [
            {
              "internalType": "address",
              "name": "_user",
              "type": "address"
            }
          ],
          "name": "getTimeSlotStartHours",
          "outputs": [
            {
              "internalType": "uint8[]",
              "name": "",
              "type": "uint8[]"
            }
          ],
          "stateMutability": "view",
          "type": "function"
        },
        {
          "inputs": [],
          "name": "getTimeTokenAddress",
          "outputs": [
            {
              "internalType": "address",
              "name": "",
              "type": "address"
            }
          ],
          "stateMutability": "view",
          "type": "function"
        },
        {
          "inputs": [
            {
              "internalType": "address",
              "name": "_user",
              "type": "address"
            },
            {
              "internalType": "uint256",
              "name": "_startTime",
              "type": "uint256"
            },
            {
              "internalType": "uint256",
              "name": "_endTime",
              "type": "uint256"
            }
          ],
          "name": "getUserAvailableTimeSlots",
          "outputs": [
            {
              "internalType": "uint256[]",
              "name": "",
              "type": "uint256[]"
            }
          ],
          "stateMutability": "view",
          "type": "function"
        },
        {
          "inputs": [
            {
              "internalType": "uint256",
              "name": "",
              "type": "uint256"
            },
            {
              "internalType": "address",
              "name": "",
              "type": "address"
            }
          ],
          "name": "hasCommented",
          "outputs": [
            {
              "internalType": "bool",
              "name": "",
              "type": "bool"
            }
          ],
          "stateMutability": "view",
          "type": "function"
        },
        {
          "inputs": [
            {
              "internalType": "uint256",
              "name": "_serviceId",
              "type": "uint256"
            },
            {
              "internalType": "address",
              "name": "_user",
              "type": "address"
            }
          ],
          "name": "hasUserCommented",
          "outputs": [
            {
              "internalType": "bool",
              "name": "",
              "type": "bool"
            }
          ],
          "stateMutability": "view",
          "type": "function"
        },
        {
          "inputs": [
            {
              "internalType": "address",
              "name": "_user",
              "type": "address"
            },
            {
              "internalType": "enum ChronoTrade.DayOfWeek",
              "name": "_day",
              "type": "uint8"
            }
          ],
          "name": "isDayAvailable",
          "outputs": [
            {
              "internalType": "bool",
              "name": "",
              "type": "bool"
            }
          ],
          "stateMutability": "view",
          "type": "function"
        },
        {
          "inputs": [
            {
              "internalType": "uint256",
              "name": "_serviceId",
              "type": "uint256"
            },
            {
              "internalType": "uint8",
              "name": "_hour",
              "type": "uint8"
            }
          ],
          "name": "isHourAvailable",
          "outputs": [
            {
              "internalType": "bool",
              "name": "",
              "type": "bool"
            }
          ],
          "stateMutability": "view",
          "type": "function"
        },
        {
          "inputs": [
            {
              "internalType": "uint256",
              "name": "_serviceId",
              "type": "uint256"
            },
            {
              "internalType": "uint256",
              "name": "_scheduledTime",
              "type": "uint256"
            }
          ],
          "name": "isScheduledTimeValid",
          "outputs": [
            {
              "internalType": "bool",
              "name": "",
              "type": "bool"
            },
            {
              "internalType": "string",
              "name": "",
              "type": "string"
            }
          ],
          "stateMutability": "view",
          "type": "function"
        },
        {
          "inputs": [
            {
              "internalType": "address",
              "name": "_user",
              "type": "address"
            },
            {
              "internalType": "uint256",
              "name": "_startTime",
              "type": "uint256"
            },
            {
              "internalType": "uint256",
              "name": "_endTime",
              "type": "uint256"
            }
          ],
          "name": "isTimeSlotAvailable",
          "outputs": [
            {
              "internalType": "bool",
              "name": "",
              "type": "bool"
            }
          ],
          "stateMutability": "view",
          "type": "function"
        },
        {
          "inputs": [
            {
              "internalType": "uint256",
              "name": "",
              "type": "uint256"
            }
          ],
          "name": "nextCommentId",
          "outputs": [
            {
              "internalType": "uint256",
              "name": "",
              "type": "uint256"
            }
          ],
          "stateMutability": "view",
          "type": "function"
        },
        {
          "inputs": [],
          "name": "nextServiceId",
          "outputs": [
            {
              "internalType": "uint256",
              "name": "",
              "type": "uint256"
            }
          ],
          "stateMutability": "view",
          "type": "function"
        },
        {
          "inputs": [
            {
              "internalType": "address",
              "name": "",
              "type": "address"
            }
          ],
          "name": "profiles",
          "outputs": [
            {
              "internalType": "address",
              "name": "user",
              "type": "address"
            },
            {
              "internalType": "string",
              "name": "name",
              "type": "string"
            },
            {
              "internalType": "string",
              "name": "description",
              "type": "string"
            },
            {
              "internalType": "uint256",
              "name": "ratingSum",
              "type": "uint256"
            },
            {
              "internalType": "uint256",
              "name": "ratingCount",
              "type": "uint256"
            },
            {
              "internalType": "bool",
              "name": "isRegistered",
              "type": "bool"
            }
          ],
          "stateMutability": "view",
          "type": "function"
        },
        {
          "inputs": [
            {
              "internalType": "uint256",
              "name": "",
              "type": "uint256"
            }
          ],
          "name": "purchases",
          "outputs": [
            {
              "internalType": "uint256",
              "name": "serviceId",
              "type": "uint256"
            },
            {
              "internalType": "address",
              "name": "buyer",
              "type": "address"
            },
            {
              "internalType": "bool",
              "name": "isApproved",
              "type": "bool"
            },
            {
              "internalType": "bool",
              "name": "sellerWithdrawn",
              "type": "bool"
            },
            {
              "internalType": "bool",
              "name": "buyerWithdrawn",
              "type": "bool"
            },
            {
              "internalType": "uint256",
              "name": "timestamp",
              "type": "uint256"
            },
            {
              "internalType": "uint256",
              "name": "scheduledTime",
              "type": "uint256"
            },
            {
              "internalType": "bool",
              "name": "isCancelled",
              "type": "bool"
            }
          ],
          "stateMutability": "view",
          "type": "function"
        },
        {
          "inputs": [
            {
              "internalType": "string",
              "name": "_name",
              "type": "string"
            },
            {
              "internalType": "string",
              "name": "_description",
              "type": "string"
            }
          ],
          "name": "registerUser",
          "outputs": [],
          "stateMutability": "nonpayable",
          "type": "function"
        },
        {
          "inputs": [
            {
              "internalType": "uint256",
              "name": "",
              "type": "uint256"
            },
            {
              "internalType": "uint256",
              "name": "",
              "type": "uint256"
            }
          ],
          "name": "serviceComments",
          "outputs": [
            {
              "internalType": "uint256",
              "name": "id",
              "type": "uint256"
            },
            {
              "internalType": "uint256",
              "name": "serviceId",
              "type": "uint256"
            },
            {
              "internalType": "address",
              "name": "author",
              "type": "address"
            },
            {
              "internalType": "string",
              "name": "content",
              "type": "string"
            },
            {
              "internalType": "uint256",
              "name": "timestamp",
              "type": "uint256"
            },
            {
              "internalType": "uint8",
              "name": "rating",
              "type": "uint8"
            }
          ],
          "stateMutability": "view",
          "type": "function"
        },
        {
          "inputs": [
            {
              "internalType": "uint256",
              "name": "",
              "type": "uint256"
            }
          ],
          "name": "services",
          "outputs": [
            {
              "internalType": "uint256",
              "name": "id",
              "type": "uint256"
            },
            {
              "internalType": "address",
              "name": "seller",
              "type": "address"
            },
            {
              "internalType": "string",
              "name": "title",
              "type": "string"
            },
            {
              "internalType": "string",
              "name": "description",
              "type": "string"
            },
            {
              "internalType": "bool",
              "name": "isActive",
              "type": "bool"
            },
            {
              "internalType": "uint8",
              "name": "durationHours",
              "type": "uint8"
            }
          ],
          "stateMutability": "view",
          "type": "function"
        },
        {
          "inputs": [],
          "name": "timeToken",
          "outputs": [
            {
              "internalType": "contract TIME",
              "name": "",
              "type": "address"
            }
          ],
          "stateMutability": "view",
          "type": "function"
        },
        {
          "inputs": [
            {
              "internalType": "enum ChronoTrade.DayOfWeek[]",
              "name": "_availableDays",
              "type": "uint8[]"
            },
            {
              "components": [
                {
                  "internalType": "uint8",
                  "name": "startHour",
                  "type": "uint8"
                },
                {
                  "internalType": "uint8",
                  "name": "endHour",
                  "type": "uint8"
                }
              ],
              "internalType": "struct ChronoTrade.TimeSlot[]",
              "name": "_availableTimeSlots",
              "type": "tuple[]"
            }
          ],
          "name": "updateTimeSlots",
          "outputs": [],
          "stateMutability": "nonpayable",
          "type": "function"
        },
        {
          "inputs": [
            {
              "internalType": "address",
              "name": "",
              "type": "address"
            },
            {
              "internalType": "uint256",
              "name": "",
              "type": "uint256"
            }
          ],
          "name": "userBookedSlots",
          "outputs": [
            {
              "internalType": "bool",
              "name": "",
              "type": "bool"
            }
          ],
          "stateMutability": "view",
          "type": "function"
        },
        {
          "inputs": [
            {
              "internalType": "address",
              "name": "",
              "type": "address"
            },
            {
              "internalType": "uint256",
              "name": "",
              "type": "uint256"
            }
          ],
          "name": "userPurchases",
          "outputs": [
            {
              "internalType": "uint256",
              "name": "",
              "type": "uint256"
            }
          ],
          "stateMutability": "view",
          "type": "function"
        },
        {
          "inputs": [
            {
              "internalType": "address",
              "name": "",
              "type": "address"
            },
            {
              "internalType": "uint256",
              "name": "",
              "type": "uint256"
            }
          ],
          "name": "userServices",
          "outputs": [
            {
              "internalType": "uint256",
              "name": "",
              "type": "uint256"
            }
          ],
          "stateMutability": "view",
          "type": "function"
        },
        {
          "inputs": [
            {
              "internalType": "uint256",
              "name": "_serviceId",
              "type": "uint256"
            }
          ],
          "name": "withdrawBuyer",
          "outputs": [],
          "stateMutability": "nonpayable",
          "type": "function"
        },
        {
          "inputs": [
            {
              "internalType": "uint256",
              "name": "_serviceId",
              "type": "uint256"
            }
          ],
          "name": "withdrawSeller",
          "outputs": [],
          "stateMutability": "nonpayable",
          "type": "function"
        }
      ],
      "evm": {
        "bytecode": {
          "linkReferences": {},
          "object": "6080346200007a57601f62004e8938819003918201601f19168301916001600160401b038311848410176200007f578084926020946040528339810103126200007a57516001600160a01b038116908190036200007a57600080546001600160a01b031916919091179055604051614df39081620000968239f35b600080fd5b634e487b7160e01b600052604160045260246000fdfe608080604052600436101561001357600080fd5b600090813560e01c9081630c757fd914613624575080630f53a470146135265780631031cb84146134dd57806311a88583146134b35780631d2e4afd1461314257806322b0f23014612b2c57806322f8a2b814612b0057806323edf6971461297c57806328ca5a90146128e55780632f9108e3146126b357806331f7b26d146106855780633e239e1a1461268b578063471fdabf146125755780635441c78a1461252257806355404ace146124da5780635ad26219146120535780636555024b14611e4157806366c5f4fd1461184c5780638069c0f11461181a578063823b2e2b146118005780638392fe31146117745780638c558a5d146115455780638ebc8cc0146114af57806393a5bc41146112f7578063982964ad14610f04578063aa45c78214610bdf578063af360659146108e0578063b992c327146108c4578063bbe1562714610820578063bc08c472146107e9578063c22c4f431461074e578063cf2c0334146106f8578063d04e942d146106ac578063e27af3b914610685578063e5a14d641461063c578063e5aaf016146105df578063e7ea61c11461055e578063eaf7ac9f14610540578063ef0e239b146103a4578063f0cc428b14610240578063f636e2b91461020f5763f6c53d9b146101ef57600080fd5b3461020c578060031936011261020c576020600b54604051908152f35b80fd5b503461020c57604036600319011261020c57602061023661022e613a86565b6004356141cd565b6040519015158152f35b503461020c576020806003193601126103a0576001600160a01b038061026461381b565b1690818452600191829182855260ff9161028683600560408a20015416613d6a565b865260058552604086209560405180978891888254918281520191845288842090845b8a82821061038a5750505050906102c19103886139f9565b6102cb87516149b8565b9681945b6102eb575b604051878152806102e7818a018b613c19565b0390f35b80518510156103855761037f85610303889784614021565b518452868660048b610339600280835260408a20928b6040519761032689613976565b8554895285015416908701528201613cc4565b604085015261034a60038201613cc4565b606085015201548181161515608084015260081c1660a082015261036e828c614021565b52610379818b614021565b50613df8565b946102cf565b6102d4565b835485528a998d965094019392830192016102a9565b5080fd5b503461020c576020806003193601126103a057600435906103c3614986565b506103cc614a08565b508183526002815260408320604051926103e584613976565b8154845260018201546001600160a01b03908116848601908152909283919061041060028201613cc4565b604088015261042160038201613cc4565b60608801526004015460ff811615159081608089015260081c60ff1660a088015261044b90614ab6565b51168552600183526040852091825416946003830154600484015461046f85614035565b92610479866140fa565b94815260048752604090209461049160018201613cc4565b61049d60028301613cc4565b916008016104aa90614403565b966104b490614a46565b976040519a8b9a610220808d528c016104cc91613b74565b918b015289810360408b01526104e19161384c565b88810360608a01526104f29161384c565b91608088015260a087015285810360c087015261050e916138af565b84810360e086015261051f916138ef565b8381036101008501526105319161393f565b9061012083016102e791613b19565b503461020c578060031936011261020c576020604051620d2f008152f35b503461020c57602036600319011261020c576004358152600260205260ff600460408084209360018060a01b03600186015416815260016020522092015460081c166102e76105b56105af84614035565b936140fa565b6105d160405194859485526060602086015260608501906138af565b9083820360408501526138ef565b503461020c57604036600319011261020c576105f961381b565b602435906007821015610638576001600160a01b0316825260016020908152604090922060ff9161062c91600601613e4b565b54166040519015158152f35b8280fd5b503461020c57604036600319011261020c5760209060ff906040906001600160a01b0361066761381b565b16815260078452818120602435825284522054166040519015158152f35b503461020c578060031936011261020c57546040516001600160a01b039091168152602090f35b503461020c57604036600319011261020c5760406106c8613836565b916004358152600a602052209060018060a01b0316600052602052602060ff604060002054166040519015158152f35b503461020c57604036600319011261020c5761071261381b565b6001600160a01b031681526006602052604081208054602435929083101561020c5760206107408484613bd4565b90546040519160031b1c8152f35b503461020c57602036600319011261020c576040906004358152600260205220805460018060a01b036001830154169160ff6107d161078f60028401613cc4565b926107c360046107a160038401613cc4565b920154946040519788978852602088015260c0604088015260c087019061384c565b90858203606087015261384c565b918181161515608085015260081c1660a08301520390f35b503461020c576108016107fb36613a70565b90614290565b906102e76040519283921515835260406020840152604083019061384c565b503461020c57602036600319011261020c576001600160a01b03906040908261084761381b565b1681526001602052209081541661086060018301613cc4565b9161086d60028201613cc4565b6003820154916108ae60ff6005600484015493015416926108a0604051978897885260c0602089015260c088019061384c565b90868203604088015261384c565b9260608501526080840152151560a08301520390f35b503461020c578060031936011261020c57602060405160018152f35b503461020c576108ef36613ab4565b91906108fc838210613f62565b610907428211613fa3565b839160018060a01b03169283855260206005815260408620946040518087848299549384815201908a52848a20928a5b86828210610bc95750505061094e925003876139f9565b86526006815260408620946040518087848299549384815201908a52848a20928a5b86828210610bb357505050610987925003876139f9565b865b8151811015610a065761099c8183614021565b51885260048352604088208460ff6004830154161591826109f6575b826109e8575b50506109d3575b6109ce90613df8565b610989565b946109e06109ce91613df8565b9590506109c5565b6003015410905084386109be565b91508660038301541015916109b8565b5094865b8151811015610a8757610a1d8183614021565b51885260048352604088208460ff600483015416159182610a77575b82610a69575b5050610a54575b610a4f90613df8565b610a0a565b94610a61610a4f91613df8565b959050610a46565b600301541090508438610a3f565b9150866003830154101591610a39565b509492909193610a9690613fef565b918693875b8151811015610b2157610aae8183614021565b518952600483526040892060ff6004820154161580610b13575b80610b06575b610ae2575b50610add90613df8565b610a9b565b610add91966003610aff920154610af98289614021565b52613df8565b9590610ad3565b5087600382015410610ace565b508460038201541015610ac8565b5050865b8651811015610ba557610b388188614021565b518852600482526040882060ff6004820154161580610b97575b80610b8a575b610b6c575b50610b6790613df8565b610b25565b610b6791956003610b83920154610af98288614021565b9490610b5d565b5086600382015410610b58565b508360038201541015610b52565b604051806102e78682613ade565b855484526001958601958c955093019201610970565b855484526001958601958c955093019201610937565b503461020c576020806003193601126103a05760043582526004815260408220600282526040832060ff600482015460081c16908115828004600114811715610ef057670de0b6b3a7640000808402938404141715610edc57600101546001600160a01b039081163303610e97576001830192835490610c6560ff8360a81c1615613f22565b60ff60048201541615610c7781613edf565b60ff8360a01c169182159182610e45575b50505015610dda5760ff60a81b1916600160a81b178355845460405163a9059cbb60e01b815233600482015260248101849052939185918591168188816044810103925af1908115610dcf57610d0960ff927f127b7b7ee9eeb9e7571d22eeffacbaed4bf3a79e01ad801bd4637710cc3c0953958891610da2575b50613e9b565b5460a01c1615610d5d5760408051610d20816139a7565b601181527014d95c9d9a58d94818dbdb5c1b195d1959607a1b85820152935b815192835282015280610d573394604083019061384c565b0390a280f35b60408051610d6a816139de565b602181527f54696d656f75742070617373656420776974686f757420636f6d706c6574696f85820152603760f91b8282015293610d3f565b610dc29150873d8911610dc8575b610dba81836139f9565b810190613e83565b38610d03565b503d610db0565b6040513d87823e3d90fd5b60405162461bcd60e51b815260048101869052603d60248201527f43616e6e6f742077697468647261773a2073657276696365206e6f7420636f6d60448201527f706c6574656420616e642074696d656f7574206e6f74207061737365640000006064820152608490fd5b9192509082610e8f575b5081610e5f575b50388080610c88565b600291500154620d2f008101809111610e7b5742101538610e56565b634e487b7160e01b87526011600452602487fd5b915038610e4f565b60405162461bcd60e51b815260048101859052601860248201527f4f6e6c792073656c6c65722063616e20776974686472617700000000000000006044820152606490fd5b634e487b7160e01b85526011600452602485fd5b634e487b7160e01b86526011600452602486fd5b503461020c57606036600319011261020c576004356001600160401b0381116103a057610f35903690600401613a1a565b6024356001600160401b03811161063857610f54903690600401613a1a565b90610f5d613a96565b913384526001602052610f7960ff600560408720015416613d6a565b60ff83161515806112e9575b156112b157338452600160205260086040852001541561126c57600b548085526002602052604085209081556001810180546001600160a01b03191633179055825190926001600160401b0382116111ab578190610fe66002860154613c8a565b601f8111611239575b50602090601f83116001146111ca5787926111bf575b50508160011b916000199060031b1c19161760028301555b805160038301916001600160401b0382116111ab5761103c8354613c8a565b601f8111611170575b50602090601f8311600114611100579361109e93838796946004946110ef99968b926110f5575b50508160011b916000199060031b1c19161790555b01805461ffff191660089290921b61ff0016919091176001179055565b33835260056020526110b660408420600b5490613dc3565b600b549060ff60405191168152817f2af96fd23e4ac077c68adcc3b3d77510b790f85426fc8eba93380921b4c8e57960203393a3613df8565b600b5580f35b01519050388061106c565b838752602087209190601f198416885b81811061115857508460049489989461109e98946110ef9b986001951061113f575b505050811b019055611081565b015160001960f88460031b161c19169055388080611132565b92936020600181928786015181550195019301611110565b61119b9084885260208820601f850160051c810191602086106111a1575b601f0160051c0190613dac565b38611045565b909150819061118e565b634e487b7160e01b86526041600452602486fd5b015190503880611005565b9250600285018752602087209087935b601f198416851061121e576001945083601f19811610611205575b505050811b01600283015561101d565b015160001960f88460031b161c191690553880806111f5565b818101518355602094850194600190930192909101906111da565b6112669060028701895260208920601f850160051c810191602086106111a157601f0160051c0190613dac565b38610fef565b60405162461bcd60e51b815260206004820152601b60248201527f4e6f20617661696c61626c652074696d6520736c6f74732073657400000000006044820152606490fd5b60405162461bcd60e51b815260206004820152601060248201526f24b73b30b634b210323ab930ba34b7b760811b6044820152606490fd5b50601860ff84161115610f85565b503461020c576020806003193601126103a057600480358084529082526040808420600284529084206001015491926001600160a01b03928316330361146b57600182019081549260ff8460a01c166114335761135b60ff60048301541615613edf565b600381015442106113e2576002015442106113aa575060ff60a01b198216600160a01b17905516907ff7aeef2e7683fc4a3bd43c0ba3fe3496995f923b61b72ddc107cc037f3a689f58380a380f35b6064906040519062461bcd60e51b8252600482015260116024820152700496e76616c69642074696d657374616d7607c1b6044820152fd5b60405162461bcd60e51b8152600481018390526024808201527f43616e6e6f7420617070726f7665206265666f7265207363686564756c65642060448201526374696d6560e01b6064820152608490fd5b60405162461bcd60e51b815260048101839052601060248201526f105b1c9958591e48185c1c1c9bdd995960821b6044820152606490fd5b6064906040519062461bcd60e51b82526004820152601760248201527f4f6e6c792073656c6c65722063616e20617070726f76650000000000000000006044820152fd5b503461020c576114be36613a70565b9082526008602052604082208054821015610638576114dd9250613c6e565b508054600182015460028301549092906001600160a01b031661153661150560038401613cc4565b60ff60056004860154950154169260405196879687526020870152604086015260c0606086015260c085019061384c565b91608084015260a08301520390f35b503461020c57604036600319011261020c576004356024356001600160401b03811161063857611579903690600401613a1a565b90808352602091600483526040842060028452604085209060018101549160018060a01b039081841633148015611765575b1561172057600483019283549460ff86166116db5760a01c60ff1661169657600301549283421015611642579160017fc90ed825423f1d894412591b9109a86f358c8ba687f93e9a5fbf42e90b0015e496949261163c96948260ff1980971617905501541688526007875260408820908852865260408720908154169055604051918291868352339683019061384c565b0390a380f35b60405162461bcd60e51b815260048101899052602660248201527f43616e6e6f742063616e63656c20616674657220736572766963652073746172604482015265742074696d6560d01b6064820152608490fd5b60405162461bcd60e51b815260048101899052601f60248201527f43616e6e6f742063616e63656c20636f6d706c657465642073657276696365006044820152606490fd5b60405162461bcd60e51b8152600481018a9052601960248201527f5365727669636520616c72656164792063616e63656c6c6564000000000000006044820152606490fd5b60405162461bcd60e51b815260048101889052601f60248201527f4f6e6c79206275796572206f722073656c6c65722063616e2063616e63656c006044820152606490fd5b508160018201541633146115ab565b503461020c57602036600319011261020c576040610100916004358152600460205220805490600181015490600281015460ff8060046003850154940154169360405195865260018060a01b0381166020870152818160a01c1615156040870152818160a81c161515606087015260b01c161515608085015260a084015260c0830152151560e0820152f35b503461020c57602061023661181436613ab4565b91614b19565b503461020c5760ff604060209261183036613a70565b9082526003855282822090825284522054166040519015158152f35b503461020c57606036600319011261020c5760246001600160401b038135818111611e3d5761187f903690600401613a1a565b91611888613a96565b9233855260016020526118a460ff600560408820015416613d6a565b600435855260026020526118c160ff600460408820015416614ab6565b600160ff8516101580611e2f575b15611deb576004358552600260205260408520600101546001600160a01b03163314611d9c57600480358652602052604085206001810154336001600160a01b03821603611d585760a01c60ff1615611d00576004015460ff16611cb0576004358552600a602052604085203360005260205260ff60406000205416611c6257600435855260096020526040852054926040519261196c84613976565b84845260208401926004358452604085013381526060860191825242608087015260ff881660a08701526004358952600860205260408920805490600160401b821015611c4f57906119c391600182018155613c6e565b959095611c3c5786518655516001860155600285019060018060a01b039051166bffffffffffffffffffffffff60a01b82541617905551908151928311611c2a5750611a126003840154613c8a565b601f8111611bf7575b50602090601f8311600114611b8357928260a09360059360ff968b92611b78575b50508160011b916000199060031b1c19161760038201555b6080850151600482015501920151169060ff1991828254161790556004358452600960205260408420611a878154613df8565b90556004358452600a602052604084203360005260205260016040600020918254161790556004358352600260205260018060a01b036001604085200154168352600160205260046040842060038101611ae560ff86168254613e1d565b905501611af28154613df8565b905560405190815260ff8216602082015233907f70997dc3171d815f6ab1ce3fc8f4138e4ec857fba88c5eeb5f5246c76c87bf06604060043592a3600435825260026020527f1a30bc2bda53a934e4cf4cfed9f76e7d8ccc23b8e8d16529cc99b43beec262d6602060018060a01b036001604086200154169260ff60405191168152a280f35b015190503880611a3c565b906003840188526020882091885b601f1985168110611bdf57508360059360ff969360019360a097601f19811610611bc6575b505050811b016003820155611a54565b015160001960f88460031b161c19169055388080611bb6565b91926020600181928685015181550194019201611b91565b611c249060038501895260208920601f850160051c810191602086106111a157601f0160051c0190613dac565b38611a1b565b634e487b7160e01b8852604160045287fd5b634e487b7160e01b8a5260048a9052838afd5b634e487b7160e01b8b526041600452848bfd5b60405162461bcd60e51b8152602060048201526021818401527f416c726561647920636f6d6d656e746564206f6e2074686973207365727669636044820152606560f81b6064820152608490fd5b60405162461bcd60e51b8152602060048201526023818401527f43616e6e6f7420636f6d6d656e74206f6e2063616e63656c6c6564207365727660448201526269636560e81b6064820152608490fd5b60405162461bcd60e51b815260206004820152602b818501527f53657276696365206d75737420626520636f6d706c65746564206265666f726560448201526a20636f6d6d656e74696e6760a81b6064820152608490fd5b60405162461bcd60e51b8152602060048201526017818601527f4f6e6c79206275796572732063616e20636f6d6d656e740000000000000000006044820152606490fd5b60405162461bcd60e51b8152602060048201526022818401527f43616e6e6f7420636f6d6d656e74206f6e20796f7572206f776e207365727669604482015261636560f01b6064820152608490fd5b60405162461bcd60e51b815260206004820152601e818401527f526174696e67206d757374206265206265747765656e203120616e64203500006044820152606490fd5b50600560ff851611156118cf565b8380fd5b503461020c576020908160031936011261020c576001600160a01b039182611e6761381b565b169182815260019182815260ff93611e8785600560408620015416613d6a565b82526006815260408220946040519586838254918281520191855283852090855b8181106120405750505086611ebe9103876139f9565b611ec886516149b8565b94865196611ed588613c02565b97611ee3604051998a6139f9565b808952611ef2601f1991613c02565b01855b8181106120245750508585905b611f64575b50505050611f2060405194604086526040860190613c19565b90848203818601528080875193848152019601925b828110611f425785870386f35b909192938261010088611f57849a8951613b19565b0197950193929101611f35565b90869896939291815181101561201b578087868560048a611fa86040611f8d612010998b614021565b5196878152600280945220918d8c6040519761032689613976565b6040850152611fb960038201613cc4565b606085015201548181161515608084015260081c1660a0820152611fdd838d614021565b52611fe8828c614021565b50885260048752611ffb60408920614a46565b612005828b614021565b52610379818a614021565b909192939698611f02565b50979597611f07565b85906120319a989a614a08565b82828b01015201989698611ef5565b8254845292850192918701918701611ea8565b503461020c57604036600319011261020c576001600160401b03906004358281116103a057366023820112156103a05780600401359061209282613c02565b61209f60405191826139f9565b8281526020918282016024809560051b830101913683116124ba578501905b8282106124be575050508235948511611e3d5736602386011215611e3d578460040135946120eb86613c02565b956120f960405197886139f9565b808752848488019160061b830101913683116124ba578501905b82821061247c5750505033845260019283835260ff9161213b83600560408920015416613d6a565b805115612444578651156124005733865284845260408620928694600885018780600798898901925b6123c3575b505081548a8355806123a5575b5060068a999a9701965b88811061237f5750899a899b5b61222a575b505050505085965084959394965b6121ce575b85337f691ff89782e0c6c5f11b5801f5a5dccd5092ffd0defeccc6ceeb8acc1ca5b4698280a280f35b8051871015612225576121e18782614021565b518581101561221257849596976121fb61220a9286613e4b565b805460ff191687179055613df8565b9695946121a0565b634e487b7160e01b875260216004528287fd5b6121a5565b809a999a518c1015612377576122408c82614021565b5160188087835116109081612368575b5015612334578581511690858101918783511611156122fc5780876122a392511660005284875287806040600020925116938460ff19845416178355511661ff0082549160081b169061ff001916179055565b8354600160401b8110156122e9579c6122e1916122c98d9e9f8e9d9e8101885587613e63565b89829392549160031b92831b921b1916179055613df8565b9b999861218d565b634e487b7160e01b8d526041600452888dfd5b60405162461bcd60e51b8152600481018790526011818b015270125b9d985b1a59081d1a5b59481cdb1bdd607a1b6044820152606490fd5b60405162461bcd60e51b815260048101869052600d818a01526c496e76616c696420686f75727360981b6044820152606490fd5b90508686830151161038612250565b999899612192565b8061239061239d928a9d9c9d613e4b565b805460ff19169055613df8565b999899612180565b828b52838b206123bd91601f0160051c810190613dac565b38612176565b83548110156123fb5780866123db6123f59387613e63565b90549060031b1c166000528386528c604060002055613df8565b81612164565b612169565b60405162461bcd60e51b8152600481018590526017818401527f4e6f20617661696c61626c652074696d6520736c6f74730000000000000000006044820152606490fd5b60405162461bcd60e51b815260048101859052601181840152704e6f20617661696c61626c65206461797360781b6044820152606490fd5b6040823603126124ba57846040918251612495816139a7565b61249e85613aa6565b81526124ab838601613aa6565b83820152815201910190612113565b8680fd5b813560078110156124d65781529084019084016120be565b8780fd5b503461020c57604036600319011261020c576124f461381b565b6001600160a01b031681526005602052604081208054602435929083101561020c5760206107408484613bd4565b503461020c57602036600319011261020c576102e790612561906008906040906001600160a01b0361255261381b565b16815260016020522001614403565b60405191829160208352602083019061393f565b503461020c576020908160031936011261020c57600435612594614a08565b5061259d614986565b50808252600483526125b160408320614a46565b8381015190926001600160a01b0392909183161561265157600461263f9560408460ff946102e7979652600283522090604051946125ee86613976565b825486526001830154169085015261260860028201613cc4565b604085015261261960038201613cc4565b606085015201548181161515608084015260081c1660a082015260405193848094613b19565b61012080610100850152830190613b74565b60405162461bcd60e51b8152600481018690526012602482015271141d5c98da185cd9481b9bdd08199bdd5b9960721b6044820152606490fd5b503461020c57602036600319011261020c57602060405160ff6018610e106004350406168152f35b503461020c576126c236613ab4565b6001600160a01b03909216808452600160208181526040862060058101549296949360ff936126f2908516613d6a565b6126fd878610613f62565b612708428611613fa3565b6006820186865b89811061281f575061272081613fef565b9888978b5b612738575b604051806102e78d82613ade565b81811080612816575b15612811578761275961275383613e2a565b86613e4b565b5416612786575b610e108101809111612772578b612725565b634e487b7160e01b8a52601160045260248afd5b876018610e108304061660005260078087018852876040600020604051906127ad826139a7565b54908b8083169283835260081c1692839101521590811591612807575b506127d6575b50612760565b858b52875260408a20818b5287528a8860408c2054166127d0579881610af982612800949c614021565b978a6127d0565b90501515386127ca565b61272a565b50828910612741565b8661283261282c83613e2a565b85613e4b565b541661285a575b610e1081018091111561270f57634e487b7160e01b89526011600452602489fd5b866018610e10830406166000526007808601875286604060002060405190612881826139a7565b54908a8083169283835260081c16928391015215908115916128db575b506128aa575b50612839565b848a52865260408920818a5286528660408a205416156128cb575b386128a4565b906128d590613df8565b906128c5565b905015153861289e565b503461020c57604036600319011261020c5760ff6007604061290561381b565b9361290e613a86565b9460006020845161291e816139a7565b828152015260018060a01b0316815260016020522001911660005260205260408060002060ff825191612950836139a7565b54818116835260081c16602082015261297a8251809260ff60208092828151168552015116910152565bf35b503461020c576020908160031936011261020c57906004359182815260029081835260ff936129b385600460408520015416614ab6565b815260088352604081209182546129c981613c02565b916129d760405193846139f9565b81835285830190819585528685209085925b848410612a955750505050506040519380850191818652518092526040850160408360051b8701019493965b838810612a225786860387f35b90919293948380600192603f198a8203018652885190815181528282015183820152848060a01b036040830151166040820152612a6e6060808401519060c0809185015283019061384c565b91608080820151908301528660a08092015116910152970193019701969093929193612a15565b60068960019260409b98999b51612aab81613976565b865481528487015483820152848060a01b0386880154166040820152612ad360038801613cc4565b6060820152600487015460808201528d60058801541660a0820152815201930193019291979594976129e9565b503461020c57602036600319011261020c576020612b1f600435613e2a565b61297a604051809261388c565b503461020c57612b3b36613a70565b9080835260026020526040832060ff600460405192612b5984613976565b8054845260018101546001600160a01b03166020850152612b7c60028201613cc4565b6040850152612b8d60038201613cc4565b606085015201548181161515608084015260081c1660a082015260018060a01b03602082015116845260016020526040842060ff60a08301511680800460011481151715610ef05780670de0b6b3a7640000810204670de0b6b3a76400001481151715610ef05760808301511561310a5760208301516001600160a01b031633146130c55785546040516370a0823160e01b81523360048201526001600160a01b039091169290602081602481875afa9081156130ba578891613088575b50670de0b6b3a764000083021161304a57428611156130065760ff612c7b612c7288613e2a565b60068401613e4b565b541615612fc15760088101548791825b828110612ef6575b50505015612ea6576020838101516001600160a01b0316875260078152604080882087895290915286205460ff16612e6657670de0b6b3a764000060646020928860405195869485936323b872dd60e01b85523360048601523060248601520260448401525af18015610dcf57612d10918691612e4d5750613e9b565b6020908101516001600160a01b03168452600781526040808520848652909152808420805460ff1916600117905551612d48816139c2565b8181523360208201528360408201528360608201528360808201524260a08201528260c08201528360e0820152818452600460205260e0600460408620835181556001810160018060a01b0360208601511681549060ff60a01b6040880151151560a01b1660ff60a81b6060890151151560a81b169160ff60b01b60808a0151151560b01b169368ffffffffffffffffff60b81b1617171717905560a0840151600282015560c0840151600382015501910151151560ff801983541691161790553383526006602052612e1e8160408520613dc3565b6040519182527f4edf016340498079fac90607146e71517de477a412e60d4d20f98db4978b8ae260203393a380f35b610dc2915060203d602011610dc857610dba81836139f9565b60405162461bcd60e51b8152602060048201526018602482015277151a5b59481cdb1bdd08185b1c9958591e48189bdbdad95960421b6044820152606490fd5b60405162461bcd60e51b815260206004820152602260248201527f54696d6520736c6f74206e6f7420617661696c61626c65206f7220696e76616c6044820152611a5960f21b6064820152608490fd5b60ff612f058260088501613e63565b90549060031b1c166000526007820160205260406000208960405191612f2a836139a7565b5460ff6018610e106020838086169586895260081c16960194868652040616908110159283612fb7575b5082612f7d575b5050612f6f57612f6a90613df8565b612c8b565b505050506001388080612c93565b90915060ff60a08a015116019060ff8211612fa35760ff80915116911611153880612f5b565b634e487b7160e01b8c52601160045260248cfd5b8110925038612f54565b60405162461bcd60e51b815260206004820152601c60248201527f446179206e6f7420617661696c61626c6520666f722073656c6c6572000000006044820152606490fd5b606460405162461bcd60e51b815260206004820152602060248201527f5363686564756c65642074696d65206d75737420626520696e206675747572656044820152fd5b60405162461bcd60e51b81526020600482015260166024820152754e6f7420656e6f7567682054494d4520746f6b656e7360501b6044820152606490fd5b90506020813d6020116130b2575b816130a3602093836139f9565b810103126124d6575138612c4b565b3d9150613096565b6040513d8a823e3d90fd5b60405162461bcd60e51b815260206004820152601b60248201527f43616e6e6f742062757920796f7572206f776e207365727669636500000000006044820152606490fd5b60405162461bcd60e51b815260206004820152601060248201526f5365727669636520696e61637469766560801b6044820152606490fd5b503461020c57604036600319011261020c576001600160401b03906004358281116103a057613175903690600401613a1a565b916024908135818111611e3d57613190903690600401613a1a565b93338452600190602082815260059160ff836040892001541661346f573387528382526040872091336bffffffffffffffffffffffff60a01b84541617835584830182518781116133be57806131e68354613c8a565b948b601f968688821161343b575b50505084908683116001146133dc578c926133d1575b5050600019600383901b1c191690871b1790555b60028301918951918783116133be576132378454613c8a565b82811161338a575b508091831160011461332557508190899a8a9261331a575b5050600019600383901b1c191690851b1790555b600381018690556004810186905501805460ff1916909117905582546001600160a01b0316803b156133155783908360405180968193625e333960e41b83523360048401525af1801561330a576132e6575b83337f54db7a5cb4735e1aac1f53db512d3390390bb6637bd30ad4bf9fc98667d9b9b98280a280f35b82116132f857506040523880806132bd565b634e487b7160e01b8352604160045282fd5b6040513d86823e3d90fd5b505050fd5b015190503880613257565b9199601f198b16848b52838b20938b905b828210613373575050918793918c8c9d941061335a575b505050811b01905561326b565b015160001960f88460031b161c1916905538808061334d565b808a86978294978701518155019601940190613336565b6133af90858c52828c20848087018a1c8201928588106133b5575b01891c0190613dac565b3861323f565b925081926133a5565b634e487b7160e01b8a526041600452888afd5b01519050388061320a565b848d52858d208a94509190601f1984168e5b88828210613425575050841161340c575b505050811b01905561321e565b015160001960f88460031b161c191690553880806133ff565b8385015186558d979095019493840193016133ee565b828761345e945220888086018c1c820192898710613466575b018b1c0190613dac565b8b38866131f4565b92508192613454565b60405162461bcd60e51b8152600481018390526017818801527f5573657220616c726561647920726567697374657265640000000000000000006044820152606490fd5b503461020c57602036600319011261020c5760406020916004358152600983522054604051908152f35b503461020c57604036600319011261020c5760ff60406020926134fe613836565b6004358252600a85528282206001600160a01b03909116825284522054604051911615158152f35b503461020c57602036600319011261020c576001600160a01b03906040908261354d61381b565b1681526001602052206102e760ff6005830154169261356b84613d6a565b8254169161361560038201549461360760048401549661358a85614035565b613593866140fa565b936135a060018801613cc4565b996135e86135bc60086135b560028c01613cc4565b9a01614403565b986135da6040519d8e9d8e528d61012090816020820152019061384c565b8c810360408e01529061384c565b9360608b015260808a0152151560a089015287820360c08901526138af565b9085820360e08701526138ef565b9083820361010085015261393f565b9050346103a0576020806003193601126106385760043583526004815260408320916002825260ff600460408620015460081c16928315848004600114811715610ef057670de0b6b3a7640000808602958604141715610edc576001810180546001600160a01b03939192909184831633036137d95750600460ff916136af838560b01c1615613f22565b015416156137835760ff60b01b1916600160b01b179055835460405163a9059cbb60e01b815233600482015260248101859052929182918491168187816044810103925af191821561330a5760409261370e91869161376c5750613e9b565b8151928352820152601c60408201527f526566756e6420666f722063616e63656c6c656420736572766963650000000060608201527f127b7b7ee9eeb9e7571d22eeffacbaed4bf3a79e01ad801bd4637710cc3c095360803392a280f35b610dc29150833d8511610dc857610dba81836139f9565b60405162461bcd60e51b815260048101859052602860248201527f43616e206f6e6c7920776974686472617720666f722063616e63656c6c656420604482015267736572766963657360c01b6064820152608490fd5b62461bcd60e51b815260048101869052601760248201527f4f6e6c792062757965722063616e2077697468647261770000000000000000006044820152606490fd5b600435906001600160a01b038216820361383157565b600080fd5b602435906001600160a01b038216820361383157565b919082519283825260005b848110613878575050826000602080949584010152601f8019910116010190565b602081830181015184830182015201613857565b9060078210156138995752565b634e487b7160e01b600052602160045260246000fd5b90815180825260208080930193019160005b8281106138cf575050505090565b909192938280826138e3600194895161388c565b019501939291016138c1565b90815180825260208080930193019160005b82811061390f575050505090565b9091929382604082613933600194895160ff60208092828151168552015116910152565b01950193929101613901565b90815180825260208080930193019160005b82811061395f575050505090565b835160ff1685529381019392810192600101613951565b60c081019081106001600160401b0382111761399157604052565b634e487b7160e01b600052604160045260246000fd5b604081019081106001600160401b0382111761399157604052565b61010081019081106001600160401b0382111761399157604052565b606081019081106001600160401b0382111761399157604052565b90601f801991011681019081106001600160401b0382111761399157604052565b81601f82011215613831578035906001600160401b0382116139915760405192613a4e601f8401601f1916602001856139f9565b8284526020838301011161383157816000926020809301838601378301015290565b6040906003190112613831576004359060243590565b6024359060ff8216820361383157565b6044359060ff8216820361383157565b359060ff8216820361383157565b6060906003190112613831576004356001600160a01b038116810361383157906024359060443590565b6020908160408183019282815285518094520193019160005b828110613b05575050505090565b835185529381019392810192600101613af7565b60e080918051845260018060a01b03602082015116602085015260408101511515604085015260608101511515606085015260808101511515608085015260a081015160a085015260c081015160c085015201511515910152565b908151815260018060a01b03602083015116602082015260a060ff81613bbe613bac604087015160c0604088015260c087019061384c565b6060870151868203606088015261384c565b9460808101511515608086015201511691015290565b8054821015613bec5760005260206000200190600090565b634e487b7160e01b600052603260045260246000fd5b6001600160401b0381116139915760051b60200190565b90815180825260208092019182818360051b85019501936000915b848310613c445750505050505090565b9091929394958480613c5e83856001950387528a51613b74565b9801930193019194939290613c34565b8054821015613bec576000526006602060002091020190600090565b90600182811c92168015613cba575b6020831014613ca457565b634e487b7160e01b600052602260045260246000fd5b91607f1691613c99565b9060405191826000825492613cd884613c8a565b908184526001948581169081600014613d475750600114613d04575b5050613d02925003836139f9565b565b9093915060005260209081600020936000915b818310613d2f575050613d0293508201013880613cf4565b85548884018501529485019487945091830191613d17565b915050613d0294506020925060ff191682840152151560051b8201013880613cf4565b15613d7157565b60405162461bcd60e51b8152602060048201526013602482015272155cd95c881b9bdd081c9959da5cdd195c9959606a1b6044820152606490fd5b818110613db7575050565b60008155600101613dac565b8054600160401b81101561399157613de091600182018155613bd4565b819291549060031b91821b91600019901b1916179055565b6000198114613e075760010190565b634e487b7160e01b600052601160045260246000fd5b91908201809211613e0757565b62015180900460038101809111613e07576007900660078110156138995790565b90600781101561389957600052602052604060002090565b9190918054831015613bec57600052601f60206000208360051c01921690565b90816020910312613831575180151581036138315790565b15613ea257565b60405162461bcd60e51b8152602060048201526015602482015274151bdad95b881d1c985b9cd9995c8819985a5b1959605a1b6044820152606490fd5b15613ee657565b60405162461bcd60e51b815260206004820152601460248201527314d95c9d9a58d9481a5cc818d85b98d95b1b195960621b6044820152606490fd5b15613f2957565b60405162461bcd60e51b815260206004820152601160248201527020b63932b0b23c903bb4ba34323930bbb760791b6044820152606490fd5b15613f6957565b60405162461bcd60e51b8152602060048201526012602482015271496e76616c69642074696d652072616e676560701b6044820152606490fd5b15613faa57565b60405162461bcd60e51b815260206004820152601c60248201527f53746172742074696d65206d75737420626520696e20667574757265000000006044820152606490fd5b90613ff982613c02565b61400660405191826139f9565b8281528092614017601f1991613c02565b0190602036910137565b8051821015613bec5760209160051b010190565b600090815b600781106140c1575061404c82613c02565b9161405a60405193846139f9565b808352614069601f1991613c02565b013660208401376000805b600781106140825750505090565b60ff6140918260068601613e4b565b54166140a6575b6140a190613df8565b614074565b906140b98183610af96140a19488614021565b919050614098565b60ff6140d08260068501613e4b565b54166140e5575b6140e090613df8565b61403a565b916140f26140e091613df8565b9290506140d7565b60089081810180549161410c83613c02565b9360409261411c845196876139f9565b848652601f1961412b86613c02565b0160005b8181106141a957505060005b85811061414b5750505050505090565b806141596141a49284613e63565b9060ff918291549060031b1c1660005260206007870181528760002091885192614182846139a7565b548181168452871c1690820152614199828a614021565b526103798189614021565b61413b565b60209086516141b7816139a7565b6000815282600081830152828b0101520161412f565b90600091825260206002815260019060409060018060a01b03838387200154168552828152818520938592600893848701600781549801915b8881106142195750505050505050505090565b6142238183613e63565b9060ff918291549060031b1c168b5283875286858c2091865192614246846139a7565b549281808516948583528c1c1692839101528716918210159182614286575b50506142795761427490613df8565b614206565b5050505050505091505090565b1090503880614265565b9160008381526020906002825260409485822094428111156143c85781835260038452868320818452845260ff9081888520541661438f576018610e1083920406168160048598015460081c16965b878110614332575050505064736c6f747360d81b91929350937f5363686564756c65642074696d65206e6f7420696e20617661696c61626c6520815193614325856139de565b6025855284015282015290565b614347836143408385613e1d565b16856141cd565b6143595761435490613df8565b6142df565b505050505090915071151a5b59481cdb1bdd081a5cc81d985b1a5960721b6001935191614385836139a7565b6012835282015290565b50505077151a5b59481cdb1bdd08185b1c9958591e48189bdbdad95960421b919293509351916143be836139a7565b6018835282015290565b505093519192507f5363686564756c65642074696d65206d75737420626520696e20667574757265906143fa836139a7565b80835282015290565b90604051918281549182825260209081830190600052816000206000905b85601f8301106147ef5794613d02955491848282106147dc575b8282106147c6575b8282106147b0575b82821061479a575b828210614785575b82821061476f575b828210614759575b828210614743575b82821061472d575b828210614717575b828210614701575b8282106146eb575b8282106146d5575b8282106146bf575b8282106146a9575b828210614693575b82821061467d575b828210614667575b828210614651575b82821061463b575b828210614625575b82821061460f575b8282106145f9575b8282106145e3575b8282106145cd575b8282106145b7575b8282106145a1575b82821061458b575b828210614575575b82821061455f575b828210614549575b501061453c575b50905003836139f9565b60f81c8152018038614532565b6001919460ff8560f01c1681520193018461452b565b6001919460ff8560e81c16815201930184614523565b6001919460ff8560e01c1681520193018461451b565b6001919460ff8560d81c16815201930184614513565b6001919460ff8560d01c1681520193018461450b565b6001919460ff8560c81c16815201930184614503565b6001919460ff8560c01c168152019301846144fb565b6001919460ff8560b81c168152019301846144f3565b6001919460ff8560b01c168152019301846144eb565b6001919460ff8560a81c168152019301846144e3565b6001919460ff8560a01c168152019301846144db565b6001919460ff8560981c168152019301846144d3565b6001919460ff8560901c168152019301846144cb565b6001919460ff8560881c168152019301846144c3565b6001919460ff8560801c168152019301846144bb565b6001919460ff8560781c168152019301846144b3565b6001919460ff8560701c168152019301846144ab565b6001919460ff8560681c168152019301846144a3565b6001919460ff8560601c1681520193018461449b565b6001919460ff8560581c16815201930184614493565b6001919460ff8560501c1681520193018461448b565b6001919460ff8560481c16815201930184614483565b6001919460ff8560401c1681520193018461447b565b6001919460ff8560381c16815201930184614473565b6001919460ff8560301c1681520193018461446b565b6001919460ff8560281c16815201930184614463565b6001919460ff85831c1681520193018461445b565b6001919460ff8560181c16815201930184614453565b6001919460ff8560101c1681520193018461444b565b6001919460ff8560081c16815201930184614443565b6001919460ff851681520193018461443b565b9350916001610400829693865460ff8116825260ff8160081c168583015260ff8160101c16604083015260ff816060828260181c16818601528282608082828c1c1681890152828260a092828260281c16848c0152828260c0988d8a848460301c169101528d60e0848460381c169101528d610100848460401c169101528d610120848460481c169101528d610140848460501c169101528d610160848460581c169101521c166101808c0152828260681c166101a08c0152828260701c166101c08c0152828260781c166101e08c01521c16610200890152828260881c16610220890152828260901c16610240890152828260981c166102608901521c16610280860152828260a81c166102a0860152828260b01c166102c0860152828260b81c166102e08601521c1661030083015260ff8160c81c1661032083015260ff8160d01c1661034083015260ff8160d81c1661036083015260ff8160e01c1661038083015260ff8160e81c166103a083015260ff8160f01c166103c083015260f81c6103e082015201940192018693919492614421565b6040519061499382613976565b600060a083828152826020820152606060408201526060808201528260808201520152565b906149c282613c02565b6149cf60405191826139f9565b82815280926149e0601f1991613c02565b019060005b8281106149f157505050565b6020906149fc614986565b828285010152016149e5565b60405190614a15826139c2565b8160e06000918281528260208201528260408201528260608201528260808201528260a08201528260c08201520152565b90604051614a53816139c2565b60e060ff600483958054855282600182015460018060a01b0381166020880152818160a01c1615156040880152818160a81c161515606088015260b01c1615156080860152600281015460a0860152600381015460c08601520154161515910152565b15614abd57565b60405162461bcd60e51b815260206004820152601d60248201527f53657276696365206e6f7420666f756e64206f7220696e6163746976650000006044820152606490fd5b90610e1061ffff80931602918216918203613e0757565b919091614b27828410613f62565b614b32428411613fa3565b60018060a01b03169160009183835260209360058552604094858520918651808484829654938481520190895284892092895b86828210614da757505050614b7c925003846139f9565b855260068152858520958051808884829a54938481520190895284892092895b86828210614d9157505050614bb3925003886139f9565b855b8351811015614c9e57614bc88185614021565b518752600480845282882060ff9081838201541615614bf3575b505050614bee90613df8565b614bb5565b614c22614c2992600361ffff93015494614c0d878b614021565b518d5260028952878d20015460081c16614b02565b1682613e1d565b818810159182614c94575b8215614c79575b8215614c5b575b5050614c5057388080614be2565b505050505050905090565b881115915081614c6e575b503880614c42565b905085101538614c66565b809250871180614c8a575b91614c3b565b5080871115614c84565b8189109250614c34565b50959150845b8251811015614d8557614cb78184614021565b518652600480835287872060ff9081838201541615614ce2575b505050614cdd90613df8565b614ca4565b614c22614d1192600361ffff93015494614cfc878a614021565b518c52600288528c8c20015460081c16614b02565b818710159182614d7b575b8215614d60575b8215614d42575b5050614d3857388080614cd1565b5050505050905090565b871115915081614d55575b503880614d2a565b905084101538614d4d565b809250861180614d71575b91614d23565b5080861115614d6b565b8188109250614d1c565b50505050505050600190565b855484526001958601958d955093019201614b9c565b8554845260019586019589955093019201614b6556fea2646970667358221220b34bf8ecf674414294583c1c79a642bbf9bd3ac645b362295eca4ea4bfe664b364736f6c63430008140033",
          "opcodes": "PUSH1 0x80 CALLVALUE PUSH3 0x7A JUMPI PUSH1 0x1F PUSH3 0x4E89 CODESIZE DUP2 SWAP1 SUB SWAP2 DUP3 ADD PUSH1 0x1F NOT AND DUP4 ADD SWAP2 PUSH1 0x1 PUSH1 0x1 PUSH1 0x40 SHL SUB DUP4 GT DUP5 DUP5 LT OR PUSH3 0x7F JUMPI DUP1 DUP5 SWAP3 PUSH1 0x20 SWAP5 PUSH1 0x40 MSTORE DUP4 CODECOPY DUP2 ADD SUB SLT PUSH3 0x7A JUMPI MLOAD PUSH1 0x1 PUSH1 0x1 PUSH1 0xA0 SHL SUB DUP2 AND SWAP1 DUP2 SWAP1 SUB PUSH3 0x7A JUMPI PUSH1 0x0 DUP1 SLOAD PUSH1 0x1 PUSH1 0x1 PUSH1 0xA0 SHL SUB NOT AND SWAP2 SWAP1 SWAP2 OR SWAP1 SSTORE PUSH1 0x40 MLOAD PUSH2 0x4DF3 SWAP1 DUP2 PUSH3 0x96 DUP3 CODECOPY RETURN JUMPDEST PUSH1 0x0 DUP1 REVERT JUMPDEST PUSH4 0x4E487B71 PUSH1 0xE0 SHL PUSH1 0x0 MSTORE PUSH1 0x41 PUSH1 0x4 MSTORE PUSH1 0x24 PUSH1 0x0 REVERT INVALID PUSH1 0x80 DUP1 PUSH1 0x40 MSTORE PUSH1 0x4 CALLDATASIZE LT ISZERO PUSH2 0x13 JUMPI PUSH1 0x0 DUP1 REVERT JUMPDEST PUSH1 0x0 SWAP1 DUP2 CALLDATALOAD PUSH1 0xE0 SHR SWAP1 DUP2 PUSH4 0xC757FD9 EQ PUSH2 0x3624 JUMPI POP DUP1 PUSH4 0xF53A470 EQ PUSH2 0x3526 JUMPI DUP1 PUSH4 0x1031CB84 EQ PUSH2 0x34DD JUMPI DUP1 PUSH4 0x11A88583 EQ PUSH2 0x34B3 JUMPI DUP1 PUSH4 0x1D2E4AFD EQ PUSH2 0x3142 JUMPI DUP1 PUSH4 0x22B0F230 EQ PUSH2 0x2B2C JUMPI DUP1 PUSH4 0x22F8A2B8 EQ PUSH2 0x2B00 JUMPI DUP1 PUSH4 0x23EDF697 EQ PUSH2 0x297C JUMPI DUP1 PUSH4 0x28CA5A90 EQ PUSH2 0x28E5 JUMPI DUP1 PUSH4 0x2F9108E3 EQ PUSH2 0x26B3 JUMPI DUP1 PUSH4 0x31F7B26D EQ PUSH2 0x685 JUMPI DUP1 PUSH4 0x3E239E1A EQ PUSH2 0x268B JUMPI DUP1 PUSH4 0x471FDABF EQ PUSH2 0x2575 JUMPI DUP1 PUSH4 0x5441C78A EQ PUSH2 0x2522 JUMPI DUP1 PUSH4 0x55404ACE EQ PUSH2 0x24DA JUMPI DUP1 PUSH4 0x5AD26219 EQ PUSH2 0x2053 JUMPI DUP1 PUSH4 0x6555024B EQ PUSH2 0x1E41 JUMPI DUP1 PUSH4 0x66C5F4FD EQ PUSH2 0x184C JUMPI DUP1 PUSH4 0x8069C0F1 EQ PUSH2 0x181A JUMPI DUP1 PUSH4 0x823B2E2B EQ PUSH2 0x1800 JUMPI DUP1 PUSH4 0x8392FE31 EQ PUSH2 0x1774 JUMPI DUP1 PUSH4 0x8C558A5D EQ PUSH2 0x1545 JUMPI DUP1 PUSH4 0x8EBC8CC0 EQ PUSH2 0x14AF JUMPI DUP1 PUSH4 0x93A5BC41 EQ PUSH2 0x12F7 JUMPI DUP1 PUSH4 0x982964AD EQ PUSH2 0xF04 JUMPI DUP1 PUSH4 0xAA45C782 EQ PUSH2 0xBDF JUMPI DUP1 PUSH4 0xAF360659 EQ PUSH2 0x8E0 JUMPI DUP1 PUSH4 0xB992C327 EQ PUSH2 0x8C4 JUMPI DUP1 PUSH4 0xBBE15627 EQ PUSH2 0x820 JUMPI DUP1 PUSH4 0xBC08C472 EQ PUSH2 0x7E9 JUMPI DUP1 PUSH4 0xC22C4F43 EQ PUSH2 0x74E JUMPI DUP1 PUSH4 0xCF2C0334 EQ PUSH2 0x6F8 JUMPI DUP1 PUSH4 0xD04E942D EQ PUSH2 0x6AC JUMPI DUP1 PUSH4 0xE27AF3B9 EQ PUSH2 0x685 JUMPI DUP1 PUSH4 0xE5A14D64 EQ PUSH2 0x63C JUMPI DUP1 PUSH4 0xE5AAF016 EQ PUSH2 0x5DF JUMPI DUP1 PUSH4 0xE7EA61C1 EQ PUSH2 0x55E JUMPI DUP1 PUSH4 0xEAF7AC9F EQ PUSH2 0x540 JUMPI DUP1 PUSH4 0xEF0E239B EQ PUSH2 0x3A4 JUMPI DUP1 PUSH4 0xF0CC428B EQ PUSH2 0x240 JUMPI DUP1 PUSH4 0xF636E2B9 EQ PUSH2 0x20F JUMPI PUSH4 0xF6C53D9B EQ PUSH2 0x1EF JUMPI PUSH1 0x0 DUP1 REVERT JUMPDEST CALLVALUE PUSH2 0x20C JUMPI DUP1 PUSH1 0x3 NOT CALLDATASIZE ADD SLT PUSH2 0x20C JUMPI PUSH1 0x20 PUSH1 0xB SLOAD PUSH1 0x40 MLOAD SWAP1 DUP2 MSTORE RETURN JUMPDEST DUP1 REVERT JUMPDEST POP CALLVALUE PUSH2 0x20C JUMPI PUSH1 0x40 CALLDATASIZE PUSH1 0x3 NOT ADD SLT PUSH2 0x20C JUMPI PUSH1 0x20 PUSH2 0x236 PUSH2 0x22E PUSH2 0x3A86 JUMP JUMPDEST PUSH1 0x4 CALLDATALOAD PUSH2 0x41CD JUMP JUMPDEST PUSH1 0x40 MLOAD SWAP1 ISZERO ISZERO DUP2 MSTORE RETURN JUMPDEST POP CALLVALUE PUSH2 0x20C JUMPI PUSH1 0x20 DUP1 PUSH1 0x3 NOT CALLDATASIZE ADD SLT PUSH2 0x3A0 JUMPI PUSH1 0x1 PUSH1 0x1 PUSH1 0xA0 SHL SUB DUP1 PUSH2 0x264 PUSH2 0x381B JUMP JUMPDEST AND SWAP1 DUP2 DUP5 MSTORE PUSH1 0x1 SWAP2 DUP3 SWAP2 DUP3 DUP6 MSTORE PUSH1 0xFF SWAP2 PUSH2 0x286 DUP4 PUSH1 0x5 PUSH1 0x40 DUP11 KECCAK256 ADD SLOAD AND PUSH2 0x3D6A JUMP JUMPDEST DUP7 MSTORE PUSH1 0x5 DUP6 MSTORE PUSH1 0x40 DUP7 KECCAK256 SWAP6 PUSH1 0x40 MLOAD DUP1 SWAP8 DUP9 SWAP2 DUP9 DUP3 SLOAD SWAP2 DUP3 DUP2 MSTORE ADD SWAP2 DUP5 MSTORE DUP9 DUP5 KECCAK256 SWAP1 DUP5 JUMPDEST DUP11 DUP3 DUP3 LT PUSH2 0x38A JUMPI POP POP POP POP SWAP1 PUSH2 0x2C1 SWAP2 SUB DUP9 PUSH2 0x39F9 JUMP JUMPDEST PUSH2 0x2CB DUP8 MLOAD PUSH2 0x49B8 JUMP JUMPDEST SWAP7 DUP2 SWAP5 JUMPDEST PUSH2 0x2EB JUMPI JUMPDEST PUSH1 0x40 MLOAD DUP8 DUP2 MSTORE DUP1 PUSH2 0x2E7 DUP2 DUP11 ADD DUP12 PUSH2 0x3C19 JUMP JUMPDEST SUB SWAP1 RETURN JUMPDEST DUP1 MLOAD DUP6 LT ISZERO PUSH2 0x385 JUMPI PUSH2 0x37F DUP6 PUSH2 0x303 DUP9 SWAP8 DUP5 PUSH2 0x4021 JUMP JUMPDEST MLOAD DUP5 MSTORE DUP7 DUP7 PUSH1 0x4 DUP12 PUSH2 0x339 PUSH1 0x2 DUP1 DUP4 MSTORE PUSH1 0x40 DUP11 KECCAK256 SWAP3 DUP12 PUSH1 0x40 MLOAD SWAP8 PUSH2 0x326 DUP10 PUSH2 0x3976 JUMP JUMPDEST DUP6 SLOAD DUP10 MSTORE DUP6 ADD SLOAD AND SWAP1 DUP8 ADD MSTORE DUP3 ADD PUSH2 0x3CC4 JUMP JUMPDEST PUSH1 0x40 DUP6 ADD MSTORE PUSH2 0x34A PUSH1 0x3 DUP3 ADD PUSH2 0x3CC4 JUMP JUMPDEST PUSH1 0x60 DUP6 ADD MSTORE ADD SLOAD DUP2 DUP2 AND ISZERO ISZERO PUSH1 0x80 DUP5 ADD MSTORE PUSH1 0x8 SHR AND PUSH1 0xA0 DUP3 ADD MSTORE PUSH2 0x36E DUP3 DUP13 PUSH2 0x4021 JUMP JUMPDEST MSTORE PUSH2 0x379 DUP2 DUP12 PUSH2 0x4021 JUMP JUMPDEST POP PUSH2 0x3DF8 JUMP JUMPDEST SWAP5 PUSH2 0x2CF JUMP JUMPDEST PUSH2 0x2D4 JUMP JUMPDEST DUP4 SLOAD DUP6 MSTORE DUP11 SWAP10 DUP14 SWAP7 POP SWAP5 ADD SWAP4 SWAP3 DUP4 ADD SWAP3 ADD PUSH2 0x2A9 JUMP JUMPDEST POP DUP1 REVERT JUMPDEST POP CALLVALUE PUSH2 0x20C JUMPI PUSH1 0x20 DUP1 PUSH1 0x3 NOT CALLDATASIZE ADD SLT PUSH2 0x3A0 JUMPI PUSH1 0x4 CALLDATALOAD SWAP1 PUSH2 0x3C3 PUSH2 0x4986 JUMP JUMPDEST POP PUSH2 0x3CC PUSH2 0x4A08 JUMP JUMPDEST POP DUP2 DUP4 MSTORE PUSH1 0x2 DUP2 MSTORE PUSH1 0x40 DUP4 KECCAK256 PUSH1 0x40 MLOAD SWAP3 PUSH2 0x3E5 DUP5 PUSH2 0x3976 JUMP JUMPDEST DUP2 SLOAD DUP5 MSTORE PUSH1 0x1 DUP3 ADD SLOAD PUSH1 0x1 PUSH1 0x1 PUSH1 0xA0 SHL SUB SWAP1 DUP2 AND DUP5 DUP7 ADD SWAP1 DUP2 MSTORE SWAP1 SWAP3 DUP4 SWAP2 SWAP1 PUSH2 0x410 PUSH1 0x2 DUP3 ADD PUSH2 0x3CC4 JUMP JUMPDEST PUSH1 0x40 DUP9 ADD MSTORE PUSH2 0x421 PUSH1 0x3 DUP3 ADD PUSH2 0x3CC4 JUMP JUMPDEST PUSH1 0x60 DUP9 ADD MSTORE PUSH1 0x4 ADD SLOAD PUSH1 0xFF DUP2 AND ISZERO ISZERO SWAP1 DUP2 PUSH1 0x80 DUP10 ADD MSTORE PUSH1 0x8 SHR PUSH1 0xFF AND PUSH1 0xA0 DUP9 ADD MSTORE PUSH2 0x44B SWAP1 PUSH2 0x4AB6 JUMP JUMPDEST MLOAD AND DUP6 MSTORE PUSH1 0x1 DUP4 MSTORE PUSH1 0x40 DUP6 KECCAK256 SWAP2 DUP3 SLOAD AND SWAP5 PUSH1 0x3 DUP4 ADD SLOAD PUSH1 0x4 DUP5 ADD SLOAD PUSH2 0x46F DUP6 PUSH2 0x4035 JUMP JUMPDEST SWAP3 PUSH2 0x479 DUP7 PUSH2 0x40FA JUMP JUMPDEST SWAP5 DUP2 MSTORE PUSH1 0x4 DUP8 MSTORE PUSH1 0x40 SWAP1 KECCAK256 SWAP5 PUSH2 0x491 PUSH1 0x1 DUP3 ADD PUSH2 0x3CC4 JUMP JUMPDEST PUSH2 0x49D PUSH1 0x2 DUP4 ADD PUSH2 0x3CC4 JUMP JUMPDEST SWAP2 PUSH1 0x8 ADD PUSH2 0x4AA SWAP1 PUSH2 0x4403 JUMP JUMPDEST SWAP7 PUSH2 0x4B4 SWAP1 PUSH2 0x4A46 JUMP JUMPDEST SWAP8 PUSH1 0x40 MLOAD SWAP11 DUP12 SWAP11 PUSH2 0x220 DUP1 DUP14 MSTORE DUP13 ADD PUSH2 0x4CC SWAP2 PUSH2 0x3B74 JUMP JUMPDEST SWAP2 DUP12 ADD MSTORE DUP10 DUP2 SUB PUSH1 0x40 DUP12 ADD MSTORE PUSH2 0x4E1 SWAP2 PUSH2 0x384C JUMP JUMPDEST DUP9 DUP2 SUB PUSH1 0x60 DUP11 ADD MSTORE PUSH2 0x4F2 SWAP2 PUSH2 0x384C JUMP JUMPDEST SWAP2 PUSH1 0x80 DUP9 ADD MSTORE PUSH1 0xA0 DUP8 ADD MSTORE DUP6 DUP2 SUB PUSH1 0xC0 DUP8 ADD MSTORE PUSH2 0x50E SWAP2 PUSH2 0x38AF JUMP JUMPDEST DUP5 DUP2 SUB PUSH1 0xE0 DUP7 ADD MSTORE PUSH2 0x51F SWAP2 PUSH2 0x38EF JUMP JUMPDEST DUP4 DUP2 SUB PUSH2 0x100 DUP6 ADD MSTORE PUSH2 0x531 SWAP2 PUSH2 0x393F JUMP JUMPDEST SWAP1 PUSH2 0x120 DUP4 ADD PUSH2 0x2E7 SWAP2 PUSH2 0x3B19 JUMP JUMPDEST POP CALLVALUE PUSH2 0x20C JUMPI DUP1 PUSH1 0x3 NOT CALLDATASIZE ADD SLT PUSH2 0x20C JUMPI PUSH1 0x20 PUSH1 0x40 MLOAD PUSH3 0xD2F00 DUP2 MSTORE RETURN JUMPDEST POP CALLVALUE PUSH2 0x20C JUMPI PUSH1 0x20 CALLDATASIZE PUSH1 0x3 NOT ADD SLT PUSH2 0x20C JUMPI PUSH1 0x4 CALLDATALOAD DUP2 MSTORE PUSH1 0x2 PUSH1 0x20 MSTORE PUSH1 0xFF PUSH1 0x4 PUSH1 0x40 DUP1 DUP5 KECCAK256 SWAP4 PUSH1 0x1 DUP1 PUSH1 0xA0 SHL SUB PUSH1 0x1 DUP7 ADD SLOAD AND DUP2 MSTORE PUSH1 0x1 PUSH1 0x20 MSTORE KECCAK256 SWAP3 ADD SLOAD PUSH1 0x8 SHR AND PUSH2 0x2E7 PUSH2 0x5B5 PUSH2 0x5AF DUP5 PUSH2 0x4035 JUMP JUMPDEST SWAP4 PUSH2 0x40FA JUMP JUMPDEST PUSH2 0x5D1 PUSH1 0x40 MLOAD SWAP5 DUP6 SWAP5 DUP6 MSTORE PUSH1 0x60 PUSH1 0x20 DUP7 ADD MSTORE PUSH1 0x60 DUP6 ADD SWAP1 PUSH2 0x38AF JUMP JUMPDEST SWAP1 DUP4 DUP3 SUB PUSH1 0x40 DUP6 ADD MSTORE PUSH2 0x38EF JUMP JUMPDEST POP CALLVALUE PUSH2 0x20C JUMPI PUSH1 0x40 CALLDATASIZE PUSH1 0x3 NOT ADD SLT PUSH2 0x20C JUMPI PUSH2 0x5F9 PUSH2 0x381B JUMP JUMPDEST PUSH1 0x24 CALLDATALOAD SWAP1 PUSH1 0x7 DUP3 LT ISZERO PUSH2 0x638 JUMPI PUSH1 0x1 PUSH1 0x1 PUSH1 0xA0 SHL SUB AND DUP3 MSTORE PUSH1 0x1 PUSH1 0x20 SWAP1 DUP2 MSTORE PUSH1 0x40 SWAP1 SWAP3 KECCAK256 PUSH1 0xFF SWAP2 PUSH2 0x62C SWAP2 PUSH1 0x6 ADD PUSH2 0x3E4B JUMP JUMPDEST SLOAD AND PUSH1 0x40 MLOAD SWAP1 ISZERO ISZERO DUP2 MSTORE RETURN JUMPDEST DUP3 DUP1 REVERT JUMPDEST POP CALLVALUE PUSH2 0x20C JUMPI PUSH1 0x40 CALLDATASIZE PUSH1 0x3 NOT ADD SLT PUSH2 0x20C JUMPI PUSH1 0x20 SWAP1 PUSH1 0xFF SWAP1 PUSH1 0x40 SWAP1 PUSH1 0x1 PUSH1 0x1 PUSH1 0xA0 SHL SUB PUSH2 0x667 PUSH2 0x381B JUMP JUMPDEST AND DUP2 MSTORE PUSH1 0x7 DUP5 MSTORE DUP2 DUP2 KECCAK256 PUSH1 0x24 CALLDATALOAD DUP3 MSTORE DUP5 MSTORE KECCAK256 SLOAD AND PUSH1 0x40 MLOAD SWAP1 ISZERO ISZERO DUP2 MSTORE RETURN JUMPDEST POP CALLVALUE PUSH2 0x20C JUMPI DUP1 PUSH1 0x3 NOT CALLDATASIZE ADD SLT PUSH2 0x20C JUMPI SLOAD PUSH1 0x40 MLOAD PUSH1 0x1 PUSH1 0x1 PUSH1 0xA0 SHL SUB SWAP1 SWAP2 AND DUP2 MSTORE PUSH1 0x20 SWAP1 RETURN JUMPDEST POP CALLVALUE PUSH2 0x20C JUMPI PUSH1 0x40 CALLDATASIZE PUSH1 0x3 NOT ADD SLT PUSH2 0x20C JUMPI PUSH1 0x40 PUSH2 0x6C8 PUSH2 0x3836 JUMP JUMPDEST SWAP2 PUSH1 0x4 CALLDATALOAD DUP2 MSTORE PUSH1 0xA PUSH1 0x20 MSTORE KECCAK256 SWAP1 PUSH1 0x1 DUP1 PUSH1 0xA0 SHL SUB AND PUSH1 0x0 MSTORE PUSH1 0x20 MSTORE PUSH1 0x20 PUSH1 0xFF PUSH1 0x40 PUSH1 0x0 KECCAK256 SLOAD AND PUSH1 0x40 MLOAD SWAP1 ISZERO ISZERO DUP2 MSTORE RETURN JUMPDEST POP CALLVALUE PUSH2 0x20C JUMPI PUSH1 0x40 CALLDATASIZE PUSH1 0x3 NOT ADD SLT PUSH2 0x20C JUMPI PUSH2 0x712 PUSH2 0x381B JUMP JUMPDEST PUSH1 0x1 PUSH1 0x1 PUSH1 0xA0 SHL SUB AND DUP2 MSTORE PUSH1 0x6 PUSH1 0x20 MSTORE PUSH1 0x40 DUP2 KECCAK256 DUP1 SLOAD PUSH1 0x24 CALLDATALOAD SWAP3 SWAP1 DUP4 LT ISZERO PUSH2 0x20C JUMPI PUSH1 0x20 PUSH2 0x740 DUP5 DUP5 PUSH2 0x3BD4 JUMP JUMPDEST SWAP1 SLOAD PUSH1 0x40 MLOAD SWAP2 PUSH1 0x3 SHL SHR DUP2 MSTORE RETURN JUMPDEST POP CALLVALUE PUSH2 0x20C JUMPI PUSH1 0x20 CALLDATASIZE PUSH1 0x3 NOT ADD SLT PUSH2 0x20C JUMPI PUSH1 0x40 SWAP1 PUSH1 0x4 CALLDATALOAD DUP2 MSTORE PUSH1 0x2 PUSH1 0x20 MSTORE KECCAK256 DUP1 SLOAD PUSH1 0x1 DUP1 PUSH1 0xA0 SHL SUB PUSH1 0x1 DUP4 ADD SLOAD AND SWAP2 PUSH1 0xFF PUSH2 0x7D1 PUSH2 0x78F PUSH1 0x2 DUP5 ADD PUSH2 0x3CC4 JUMP JUMPDEST SWAP3 PUSH2 0x7C3 PUSH1 0x4 PUSH2 0x7A1 PUSH1 0x3 DUP5 ADD PUSH2 0x3CC4 JUMP JUMPDEST SWAP3 ADD SLOAD SWAP5 PUSH1 0x40 MLOAD SWAP8 DUP9 SWAP8 DUP9 MSTORE PUSH1 0x20 DUP9 ADD MSTORE PUSH1 0xC0 PUSH1 0x40 DUP9 ADD MSTORE PUSH1 0xC0 DUP8 ADD SWAP1 PUSH2 0x384C JUMP JUMPDEST SWAP1 DUP6 DUP3 SUB PUSH1 0x60 DUP8 ADD MSTORE PUSH2 0x384C JUMP JUMPDEST SWAP2 DUP2 DUP2 AND ISZERO ISZERO PUSH1 0x80 DUP6 ADD MSTORE PUSH1 0x8 SHR AND PUSH1 0xA0 DUP4 ADD MSTORE SUB SWAP1 RETURN JUMPDEST POP CALLVALUE PUSH2 0x20C JUMPI PUSH2 0x801 PUSH2 0x7FB CALLDATASIZE PUSH2 0x3A70 JUMP JUMPDEST SWAP1 PUSH2 0x4290 JUMP JUMPDEST SWAP1 PUSH2 0x2E7 PUSH1 0x40 MLOAD SWAP3 DUP4 SWAP3 ISZERO ISZERO DUP4 MSTORE PUSH1 0x40 PUSH1 0x20 DUP5 ADD MSTORE PUSH1 0x40 DUP4 ADD SWAP1 PUSH2 0x384C JUMP JUMPDEST POP CALLVALUE PUSH2 0x20C JUMPI PUSH1 0x20 CALLDATASIZE PUSH1 0x3 NOT ADD SLT PUSH2 0x20C JUMPI PUSH1 0x1 PUSH1 0x1 PUSH1 0xA0 SHL SUB SWAP1 PUSH1 0x40 SWAP1 DUP3 PUSH2 0x847 PUSH2 0x381B JUMP JUMPDEST AND DUP2 MSTORE PUSH1 0x1 PUSH1 0x20 MSTORE KECCAK256 SWAP1 DUP2 SLOAD AND PUSH2 0x860 PUSH1 0x1 DUP4 ADD PUSH2 0x3CC4 JUMP JUMPDEST SWAP2 PUSH2 0x86D PUSH1 0x2 DUP3 ADD PUSH2 0x3CC4 JUMP JUMPDEST PUSH1 0x3 DUP3 ADD SLOAD SWAP2 PUSH2 0x8AE PUSH1 0xFF PUSH1 0x5 PUSH1 0x4 DUP5 ADD SLOAD SWAP4 ADD SLOAD AND SWAP3 PUSH2 0x8A0 PUSH1 0x40 MLOAD SWAP8 DUP9 SWAP8 DUP9 MSTORE PUSH1 0xC0 PUSH1 0x20 DUP10 ADD MSTORE PUSH1 0xC0 DUP9 ADD SWAP1 PUSH2 0x384C JUMP JUMPDEST SWAP1 DUP7 DUP3 SUB PUSH1 0x40 DUP9 ADD MSTORE PUSH2 0x384C JUMP JUMPDEST SWAP3 PUSH1 0x60 DUP6 ADD MSTORE PUSH1 0x80 DUP5 ADD MSTORE ISZERO ISZERO PUSH1 0xA0 DUP4 ADD MSTORE SUB SWAP1 RETURN JUMPDEST POP CALLVALUE PUSH2 0x20C JUMPI DUP1 PUSH1 0x3 NOT CALLDATASIZE ADD SLT PUSH2 0x20C JUMPI PUSH1 0x20 PUSH1 0x40 MLOAD PUSH1 0x1 DUP2 MSTORE RETURN JUMPDEST POP CALLVALUE PUSH2 0x20C JUMPI PUSH2 0x8EF CALLDATASIZE PUSH2 0x3AB4 JUMP JUMPDEST SWAP2 SWAP1 PUSH2 0x8FC DUP4 DUP3 LT PUSH2 0x3F62 JUMP JUMPDEST PUSH2 0x907 TIMESTAMP DUP3 GT PUSH2 0x3FA3 JUMP JUMPDEST DUP4 SWAP2 PUSH1 0x1 DUP1 PUSH1 0xA0 SHL SUB AND SWAP3 DUP4 DUP6 MSTORE PUSH1 0x20 PUSH1 0x5 DUP2 MSTORE PUSH1 0x40 DUP7 KECCAK256 SWAP5 PUSH1 0x40 MLOAD DUP1 DUP8 DUP5 DUP3 SWAP10 SLOAD SWAP4 DUP5 DUP2 MSTORE ADD SWAP1 DUP11 MSTORE DUP5 DUP11 KECCAK256 SWAP3 DUP11 JUMPDEST DUP7 DUP3 DUP3 LT PUSH2 0xBC9 JUMPI POP POP POP PUSH2 0x94E SWAP3 POP SUB DUP8 PUSH2 0x39F9 JUMP JUMPDEST DUP7 MSTORE PUSH1 0x6 DUP2 MSTORE PUSH1 0x40 DUP7 KECCAK256 SWAP5 PUSH1 0x40 MLOAD DUP1 DUP8 DUP5 DUP3 SWAP10 SLOAD SWAP4 DUP5 DUP2 MSTORE ADD SWAP1 DUP11 MSTORE DUP5 DUP11 KECCAK256 SWAP3 DUP11 JUMPDEST DUP7 DUP3 DUP3 LT PUSH2 0xBB3 JUMPI POP POP POP PUSH2 0x987 SWAP3 POP SUB DUP8 PUSH2 0x39F9 JUMP JUMPDEST DUP7 JUMPDEST DUP2 MLOAD DUP2 LT ISZERO PUSH2 0xA06 JUMPI PUSH2 0x99C DUP2 DUP4 PUSH2 0x4021 JUMP JUMPDEST MLOAD DUP9 MSTORE PUSH1 0x4 DUP4 MSTORE PUSH1 0x40 DUP9 KECCAK256 DUP5 PUSH1 0xFF PUSH1 0x4 DUP4 ADD SLOAD AND ISZERO SWAP2 DUP3 PUSH2 0x9F6 JUMPI JUMPDEST DUP3 PUSH2 0x9E8 JUMPI JUMPDEST POP POP PUSH2 0x9D3 JUMPI JUMPDEST PUSH2 0x9CE SWAP1 PUSH2 0x3DF8 JUMP JUMPDEST PUSH2 0x989 JUMP JUMPDEST SWAP5 PUSH2 0x9E0 PUSH2 0x9CE SWAP2 PUSH2 0x3DF8 JUMP JUMPDEST SWAP6 SWAP1 POP PUSH2 0x9C5 JUMP JUMPDEST PUSH1 0x3 ADD SLOAD LT SWAP1 POP DUP5 CODESIZE PUSH2 0x9BE JUMP JUMPDEST SWAP2 POP DUP7 PUSH1 0x3 DUP4 ADD SLOAD LT ISZERO SWAP2 PUSH2 0x9B8 JUMP JUMPDEST POP SWAP5 DUP7 JUMPDEST DUP2 MLOAD DUP2 LT ISZERO PUSH2 0xA87 JUMPI PUSH2 0xA1D DUP2 DUP4 PUSH2 0x4021 JUMP JUMPDEST MLOAD DUP9 MSTORE PUSH1 0x4 DUP4 MSTORE PUSH1 0x40 DUP9 KECCAK256 DUP5 PUSH1 0xFF PUSH1 0x4 DUP4 ADD SLOAD AND ISZERO SWAP2 DUP3 PUSH2 0xA77 JUMPI JUMPDEST DUP3 PUSH2 0xA69 JUMPI JUMPDEST POP POP PUSH2 0xA54 JUMPI JUMPDEST PUSH2 0xA4F SWAP1 PUSH2 0x3DF8 JUMP JUMPDEST PUSH2 0xA0A JUMP JUMPDEST SWAP5 PUSH2 0xA61 PUSH2 0xA4F SWAP2 PUSH2 0x3DF8 JUMP JUMPDEST SWAP6 SWAP1 POP PUSH2 0xA46 JUMP JUMPDEST PUSH1 0x3 ADD SLOAD LT SWAP1 POP DUP5 CODESIZE PUSH2 0xA3F JUMP JUMPDEST SWAP2 POP DUP7 PUSH1 0x3 DUP4 ADD SLOAD LT ISZERO SWAP2 PUSH2 0xA39 JUMP JUMPDEST POP SWAP5 SWAP3 SWAP1 SWAP2 SWAP4 PUSH2 0xA96 SWAP1 PUSH2 0x3FEF JUMP JUMPDEST SWAP2 DUP7 SWAP4 DUP8 JUMPDEST DUP2 MLOAD DUP2 LT ISZERO PUSH2 0xB21 JUMPI PUSH2 0xAAE DUP2 DUP4 PUSH2 0x4021 JUMP JUMPDEST MLOAD DUP10 MSTORE PUSH1 0x4 DUP4 MSTORE PUSH1 0x40 DUP10 KECCAK256 PUSH1 0xFF PUSH1 0x4 DUP3 ADD SLOAD AND ISZERO DUP1 PUSH2 0xB13 JUMPI JUMPDEST DUP1 PUSH2 0xB06 JUMPI JUMPDEST PUSH2 0xAE2 JUMPI JUMPDEST POP PUSH2 0xADD SWAP1 PUSH2 0x3DF8 JUMP JUMPDEST PUSH2 0xA9B JUMP JUMPDEST PUSH2 0xADD SWAP2 SWAP7 PUSH1 0x3 PUSH2 0xAFF SWAP3 ADD SLOAD PUSH2 0xAF9 DUP3 DUP10 PUSH2 0x4021 JUMP JUMPDEST MSTORE PUSH2 0x3DF8 JUMP JUMPDEST SWAP6 SWAP1 PUSH2 0xAD3 JUMP JUMPDEST POP DUP8 PUSH1 0x3 DUP3 ADD SLOAD LT PUSH2 0xACE JUMP JUMPDEST POP DUP5 PUSH1 0x3 DUP3 ADD SLOAD LT ISZERO PUSH2 0xAC8 JUMP JUMPDEST POP POP DUP7 JUMPDEST DUP7 MLOAD DUP2 LT ISZERO PUSH2 0xBA5 JUMPI PUSH2 0xB38 DUP2 DUP9 PUSH2 0x4021 JUMP JUMPDEST MLOAD DUP9 MSTORE PUSH1 0x4 DUP3 MSTORE PUSH1 0x40 DUP9 KECCAK256 PUSH1 0xFF PUSH1 0x4 DUP3 ADD SLOAD AND ISZERO DUP1 PUSH2 0xB97 JUMPI JUMPDEST DUP1 PUSH2 0xB8A JUMPI JUMPDEST PUSH2 0xB6C JUMPI JUMPDEST POP PUSH2 0xB67 SWAP1 PUSH2 0x3DF8 JUMP JUMPDEST PUSH2 0xB25 JUMP JUMPDEST PUSH2 0xB67 SWAP2 SWAP6 PUSH1 0x3 PUSH2 0xB83 SWAP3 ADD SLOAD PUSH2 0xAF9 DUP3 DUP9 PUSH2 0x4021 JUMP JUMPDEST SWAP5 SWAP1 PUSH2 0xB5D JUMP JUMPDEST POP DUP7 PUSH1 0x3 DUP3 ADD SLOAD LT PUSH2 0xB58 JUMP JUMPDEST POP DUP4 PUSH1 0x3 DUP3 ADD SLOAD LT ISZERO PUSH2 0xB52 JUMP JUMPDEST PUSH1 0x40 MLOAD DUP1 PUSH2 0x2E7 DUP7 DUP3 PUSH2 0x3ADE JUMP JUMPDEST DUP6 SLOAD DUP5 MSTORE PUSH1 0x1 SWAP6 DUP7 ADD SWAP6 DUP13 SWAP6 POP SWAP4 ADD SWAP3 ADD PUSH2 0x970 JUMP JUMPDEST DUP6 SLOAD DUP5 MSTORE PUSH1 0x1 SWAP6 DUP7 ADD SWAP6 DUP13 SWAP6 POP SWAP4 ADD SWAP3 ADD PUSH2 0x937 JUMP JUMPDEST POP CALLVALUE PUSH2 0x20C JUMPI PUSH1 0x20 DUP1 PUSH1 0x3 NOT CALLDATASIZE ADD SLT PUSH2 0x3A0 JUMPI PUSH1 0x4 CALLDATALOAD DUP3 MSTORE PUSH1 0x4 DUP2 MSTORE PUSH1 0x40 DUP3 KECCAK256 PUSH1 0x2 DUP3 MSTORE PUSH1 0x40 DUP4 KECCAK256 PUSH1 0xFF PUSH1 0x4 DUP3 ADD SLOAD PUSH1 0x8 SHR AND SWAP1 DUP2 ISZERO DUP3 DUP1 DIV PUSH1 0x1 EQ DUP2 OR ISZERO PUSH2 0xEF0 JUMPI PUSH8 0xDE0B6B3A7640000 DUP1 DUP5 MUL SWAP4 DUP5 DIV EQ OR ISZERO PUSH2 0xEDC JUMPI PUSH1 0x1 ADD SLOAD PUSH1 0x1 PUSH1 0x1 PUSH1 0xA0 SHL SUB SWAP1 DUP2 AND CALLER SUB PUSH2 0xE97 JUMPI PUSH1 0x1 DUP4 ADD SWAP3 DUP4 SLOAD SWAP1 PUSH2 0xC65 PUSH1 0xFF DUP4 PUSH1 0xA8 SHR AND ISZERO PUSH2 0x3F22 JUMP JUMPDEST PUSH1 0xFF PUSH1 0x4 DUP3 ADD SLOAD AND ISZERO PUSH2 0xC77 DUP2 PUSH2 0x3EDF JUMP JUMPDEST PUSH1 0xFF DUP4 PUSH1 0xA0 SHR AND SWAP2 DUP3 ISZERO SWAP2 DUP3 PUSH2 0xE45 JUMPI JUMPDEST POP POP POP ISZERO PUSH2 0xDDA JUMPI PUSH1 0xFF PUSH1 0xA8 SHL NOT AND PUSH1 0x1 PUSH1 0xA8 SHL OR DUP4 SSTORE DUP5 SLOAD PUSH1 0x40 MLOAD PUSH4 0xA9059CBB PUSH1 0xE0 SHL DUP2 MSTORE CALLER PUSH1 0x4 DUP3 ADD MSTORE PUSH1 0x24 DUP2 ADD DUP5 SWAP1 MSTORE SWAP4 SWAP2 DUP6 SWAP2 DUP6 SWAP2 AND DUP2 DUP9 DUP2 PUSH1 0x44 DUP2 ADD SUB SWAP3 GAS CALL SWAP1 DUP2 ISZERO PUSH2 0xDCF JUMPI PUSH2 0xD09 PUSH1 0xFF SWAP3 PUSH32 0x127B7B7EE9EEB9E7571D22EEFFACBAED4BF3A79E01AD801BD4637710CC3C0953 SWAP6 DUP9 SWAP2 PUSH2 0xDA2 JUMPI JUMPDEST POP PUSH2 0x3E9B JUMP JUMPDEST SLOAD PUSH1 0xA0 SHR AND ISZERO PUSH2 0xD5D JUMPI PUSH1 0x40 DUP1 MLOAD PUSH2 0xD20 DUP2 PUSH2 0x39A7 JUMP JUMPDEST PUSH1 0x11 DUP2 MSTORE PUSH17 0x14D95C9D9A58D94818DBDB5C1B195D1959 PUSH1 0x7A SHL DUP6 DUP3 ADD MSTORE SWAP4 JUMPDEST DUP2 MLOAD SWAP3 DUP4 MSTORE DUP3 ADD MSTORE DUP1 PUSH2 0xD57 CALLER SWAP5 PUSH1 0x40 DUP4 ADD SWAP1 PUSH2 0x384C JUMP JUMPDEST SUB SWAP1 LOG2 DUP1 RETURN JUMPDEST PUSH1 0x40 DUP1 MLOAD PUSH2 0xD6A DUP2 PUSH2 0x39DE JUMP JUMPDEST PUSH1 0x21 DUP2 MSTORE PUSH32 0x54696D656F75742070617373656420776974686F757420636F6D706C6574696F DUP6 DUP3 ADD MSTORE PUSH1 0x37 PUSH1 0xF9 SHL DUP3 DUP3 ADD MSTORE SWAP4 PUSH2 0xD3F JUMP JUMPDEST PUSH2 0xDC2 SWAP2 POP DUP8 RETURNDATASIZE DUP10 GT PUSH2 0xDC8 JUMPI JUMPDEST PUSH2 0xDBA DUP2 DUP4 PUSH2 0x39F9 JUMP JUMPDEST DUP2 ADD SWAP1 PUSH2 0x3E83 JUMP JUMPDEST CODESIZE PUSH2 0xD03 JUMP JUMPDEST POP RETURNDATASIZE PUSH2 0xDB0 JUMP JUMPDEST PUSH1 0x40 MLOAD RETURNDATASIZE DUP8 DUP3 RETURNDATACOPY RETURNDATASIZE SWAP1 REVERT JUMPDEST PUSH1 0x40 MLOAD PUSH3 0x461BCD PUSH1 0xE5 SHL DUP2 MSTORE PUSH1 0x4 DUP2 ADD DUP7 SWAP1 MSTORE PUSH1 0x3D PUSH1 0x24 DUP3 ADD MSTORE PUSH32 0x43616E6E6F742077697468647261773A2073657276696365206E6F7420636F6D PUSH1 0x44 DUP3 ADD MSTORE PUSH32 0x706C6574656420616E642074696D656F7574206E6F7420706173736564000000 PUSH1 0x64 DUP3 ADD MSTORE PUSH1 0x84 SWAP1 REVERT JUMPDEST SWAP2 SWAP3 POP SWAP1 DUP3 PUSH2 0xE8F JUMPI JUMPDEST POP DUP2 PUSH2 0xE5F JUMPI JUMPDEST POP CODESIZE DUP1 DUP1 PUSH2 0xC88 JUMP JUMPDEST PUSH1 0x2 SWAP2 POP ADD SLOAD PUSH3 0xD2F00 DUP2 ADD DUP1 SWAP2 GT PUSH2 0xE7B JUMPI TIMESTAMP LT ISZERO CODESIZE PUSH2 0xE56 JUMP JUMPDEST PUSH4 0x4E487B71 PUSH1 0xE0 SHL DUP8 MSTORE PUSH1 0x11 PUSH1 0x4 MSTORE PUSH1 0x24 DUP8 REVERT JUMPDEST SWAP2 POP CODESIZE PUSH2 0xE4F JUMP JUMPDEST PUSH1 0x40 MLOAD PUSH3 0x461BCD PUSH1 0xE5 SHL DUP2 MSTORE PUSH1 0x4 DUP2 ADD DUP6 SWAP1 MSTORE PUSH1 0x18 PUSH1 0x24 DUP3 ADD MSTORE PUSH32 0x4F6E6C792073656C6C65722063616E2077697468647261770000000000000000 PUSH1 0x44 DUP3 ADD MSTORE PUSH1 0x64 SWAP1 REVERT JUMPDEST PUSH4 0x4E487B71 PUSH1 0xE0 SHL DUP6 MSTORE PUSH1 0x11 PUSH1 0x4 MSTORE PUSH1 0x24 DUP6 REVERT JUMPDEST PUSH4 0x4E487B71 PUSH1 0xE0 SHL DUP7 MSTORE PUSH1 0x11 PUSH1 0x4 MSTORE PUSH1 0x24 DUP7 REVERT JUMPDEST POP CALLVALUE PUSH2 0x20C JUMPI PUSH1 0x60 CALLDATASIZE PUSH1 0x3 NOT ADD SLT PUSH2 0x20C JUMPI PUSH1 0x4 CALLDATALOAD PUSH1 0x1 PUSH1 0x1 PUSH1 0x40 SHL SUB DUP2 GT PUSH2 0x3A0 JUMPI PUSH2 0xF35 SWAP1 CALLDATASIZE SWAP1 PUSH1 0x4 ADD PUSH2 0x3A1A JUMP JUMPDEST PUSH1 0x24 CALLDATALOAD PUSH1 0x1 PUSH1 0x1 PUSH1 0x40 SHL SUB DUP2 GT PUSH2 0x638 JUMPI PUSH2 0xF54 SWAP1 CALLDATASIZE SWAP1 PUSH1 0x4 ADD PUSH2 0x3A1A JUMP JUMPDEST SWAP1 PUSH2 0xF5D PUSH2 0x3A96 JUMP JUMPDEST SWAP2 CALLER DUP5 MSTORE PUSH1 0x1 PUSH1 0x20 MSTORE PUSH2 0xF79 PUSH1 0xFF PUSH1 0x5 PUSH1 0x40 DUP8 KECCAK256 ADD SLOAD AND PUSH2 0x3D6A JUMP JUMPDEST PUSH1 0xFF DUP4 AND ISZERO ISZERO DUP1 PUSH2 0x12E9 JUMPI JUMPDEST ISZERO PUSH2 0x12B1 JUMPI CALLER DUP5 MSTORE PUSH1 0x1 PUSH1 0x20 MSTORE PUSH1 0x8 PUSH1 0x40 DUP6 KECCAK256 ADD SLOAD ISZERO PUSH2 0x126C JUMPI PUSH1 0xB SLOAD DUP1 DUP6 MSTORE PUSH1 0x2 PUSH1 0x20 MSTORE PUSH1 0x40 DUP6 KECCAK256 SWAP1 DUP2 SSTORE PUSH1 0x1 DUP2 ADD DUP1 SLOAD PUSH1 0x1 PUSH1 0x1 PUSH1 0xA0 SHL SUB NOT AND CALLER OR SWAP1 SSTORE DUP3 MLOAD SWAP1 SWAP3 PUSH1 0x1 PUSH1 0x1 PUSH1 0x40 SHL SUB DUP3 GT PUSH2 0x11AB JUMPI DUP2 SWAP1 PUSH2 0xFE6 PUSH1 0x2 DUP7 ADD SLOAD PUSH2 0x3C8A JUMP JUMPDEST PUSH1 0x1F DUP2 GT PUSH2 0x1239 JUMPI JUMPDEST POP PUSH1 0x20 SWAP1 PUSH1 0x1F DUP4 GT PUSH1 0x1 EQ PUSH2 0x11CA JUMPI DUP8 SWAP3 PUSH2 0x11BF JUMPI JUMPDEST POP POP DUP2 PUSH1 0x1 SHL SWAP2 PUSH1 0x0 NOT SWAP1 PUSH1 0x3 SHL SHR NOT AND OR PUSH1 0x2 DUP4 ADD SSTORE JUMPDEST DUP1 MLOAD PUSH1 0x3 DUP4 ADD SWAP2 PUSH1 0x1 PUSH1 0x1 PUSH1 0x40 SHL SUB DUP3 GT PUSH2 0x11AB JUMPI PUSH2 0x103C DUP4 SLOAD PUSH2 0x3C8A JUMP JUMPDEST PUSH1 0x1F DUP2 GT PUSH2 0x1170 JUMPI JUMPDEST POP PUSH1 0x20 SWAP1 PUSH1 0x1F DUP4 GT PUSH1 0x1 EQ PUSH2 0x1100 JUMPI SWAP4 PUSH2 0x109E SWAP4 DUP4 DUP8 SWAP7 SWAP5 PUSH1 0x4 SWAP5 PUSH2 0x10EF SWAP10 SWAP7 DUP12 SWAP3 PUSH2 0x10F5 JUMPI JUMPDEST POP POP DUP2 PUSH1 0x1 SHL SWAP2 PUSH1 0x0 NOT SWAP1 PUSH1 0x3 SHL SHR NOT AND OR SWAP1 SSTORE JUMPDEST ADD DUP1 SLOAD PUSH2 0xFFFF NOT AND PUSH1 0x8 SWAP3 SWAP1 SWAP3 SHL PUSH2 0xFF00 AND SWAP2 SWAP1 SWAP2 OR PUSH1 0x1 OR SWAP1 SSTORE JUMP JUMPDEST CALLER DUP4 MSTORE PUSH1 0x5 PUSH1 0x20 MSTORE PUSH2 0x10B6 PUSH1 0x40 DUP5 KECCAK256 PUSH1 0xB SLOAD SWAP1 PUSH2 0x3DC3 JUMP JUMPDEST PUSH1 0xB SLOAD SWAP1 PUSH1 0xFF PUSH1 0x40 MLOAD SWAP2 AND DUP2 MSTORE DUP2 PUSH32 0x2AF96FD23E4AC077C68ADCC3B3D77510B790F85426FC8EBA93380921B4C8E579 PUSH1 0x20 CALLER SWAP4 LOG3 PUSH2 0x3DF8 JUMP JUMPDEST PUSH1 0xB SSTORE DUP1 RETURN JUMPDEST ADD MLOAD SWAP1 POP CODESIZE DUP1 PUSH2 0x106C JUMP JUMPDEST DUP4 DUP8 MSTORE PUSH1 0x20 DUP8 KECCAK256 SWAP2 SWAP1 PUSH1 0x1F NOT DUP5 AND DUP9 JUMPDEST DUP2 DUP2 LT PUSH2 0x1158 JUMPI POP DUP5 PUSH1 0x4 SWAP5 DUP10 SWAP9 SWAP5 PUSH2 0x109E SWAP9 SWAP5 PUSH2 0x10EF SWAP12 SWAP9 PUSH1 0x1 SWAP6 LT PUSH2 0x113F JUMPI JUMPDEST POP POP POP DUP2 SHL ADD SWAP1 SSTORE PUSH2 0x1081 JUMP JUMPDEST ADD MLOAD PUSH1 0x0 NOT PUSH1 0xF8 DUP5 PUSH1 0x3 SHL AND SHR NOT AND SWAP1 SSTORE CODESIZE DUP1 DUP1 PUSH2 0x1132 JUMP JUMPDEST SWAP3 SWAP4 PUSH1 0x20 PUSH1 0x1 DUP2 SWAP3 DUP8 DUP7 ADD MLOAD DUP2 SSTORE ADD SWAP6 ADD SWAP4 ADD PUSH2 0x1110 JUMP JUMPDEST PUSH2 0x119B SWAP1 DUP5 DUP9 MSTORE PUSH1 0x20 DUP9 KECCAK256 PUSH1 0x1F DUP6 ADD PUSH1 0x5 SHR DUP2 ADD SWAP2 PUSH1 0x20 DUP7 LT PUSH2 0x11A1 JUMPI JUMPDEST PUSH1 0x1F ADD PUSH1 0x5 SHR ADD SWAP1 PUSH2 0x3DAC JUMP JUMPDEST CODESIZE PUSH2 0x1045 JUMP JUMPDEST SWAP1 SWAP2 POP DUP2 SWAP1 PUSH2 0x118E JUMP JUMPDEST PUSH4 0x4E487B71 PUSH1 0xE0 SHL DUP7 MSTORE PUSH1 0x41 PUSH1 0x4 MSTORE PUSH1 0x24 DUP7 REVERT JUMPDEST ADD MLOAD SWAP1 POP CODESIZE DUP1 PUSH2 0x1005 JUMP JUMPDEST SWAP3 POP PUSH1 0x2 DUP6 ADD DUP8 MSTORE PUSH1 0x20 DUP8 KECCAK256 SWAP1 DUP8 SWAP4 JUMPDEST PUSH1 0x1F NOT DUP5 AND DUP6 LT PUSH2 0x121E JUMPI PUSH1 0x1 SWAP5 POP DUP4 PUSH1 0x1F NOT DUP2 AND LT PUSH2 0x1205 JUMPI JUMPDEST POP POP POP DUP2 SHL ADD PUSH1 0x2 DUP4 ADD SSTORE PUSH2 0x101D JUMP JUMPDEST ADD MLOAD PUSH1 0x0 NOT PUSH1 0xF8 DUP5 PUSH1 0x3 SHL AND SHR NOT AND SWAP1 SSTORE CODESIZE DUP1 DUP1 PUSH2 0x11F5 JUMP JUMPDEST DUP2 DUP2 ADD MLOAD DUP4 SSTORE PUSH1 0x20 SWAP5 DUP6 ADD SWAP5 PUSH1 0x1 SWAP1 SWAP4 ADD SWAP3 SWAP1 SWAP2 ADD SWAP1 PUSH2 0x11DA JUMP JUMPDEST PUSH2 0x1266 SWAP1 PUSH1 0x2 DUP8 ADD DUP10 MSTORE PUSH1 0x20 DUP10 KECCAK256 PUSH1 0x1F DUP6 ADD PUSH1 0x5 SHR DUP2 ADD SWAP2 PUSH1 0x20 DUP7 LT PUSH2 0x11A1 JUMPI PUSH1 0x1F ADD PUSH1 0x5 SHR ADD SWAP1 PUSH2 0x3DAC JUMP JUMPDEST CODESIZE PUSH2 0xFEF JUMP JUMPDEST PUSH1 0x40 MLOAD PUSH3 0x461BCD PUSH1 0xE5 SHL DUP2 MSTORE PUSH1 0x20 PUSH1 0x4 DUP3 ADD MSTORE PUSH1 0x1B PUSH1 0x24 DUP3 ADD MSTORE PUSH32 0x4E6F20617661696C61626C652074696D6520736C6F7473207365740000000000 PUSH1 0x44 DUP3 ADD MSTORE PUSH1 0x64 SWAP1 REVERT JUMPDEST PUSH1 0x40 MLOAD PUSH3 0x461BCD PUSH1 0xE5 SHL DUP2 MSTORE PUSH1 0x20 PUSH1 0x4 DUP3 ADD MSTORE PUSH1 0x10 PUSH1 0x24 DUP3 ADD MSTORE PUSH16 0x24B73B30B634B210323AB930BA34B7B7 PUSH1 0x81 SHL PUSH1 0x44 DUP3 ADD MSTORE PUSH1 0x64 SWAP1 REVERT JUMPDEST POP PUSH1 0x18 PUSH1 0xFF DUP5 AND GT ISZERO PUSH2 0xF85 JUMP JUMPDEST POP CALLVALUE PUSH2 0x20C JUMPI PUSH1 0x20 DUP1 PUSH1 0x3 NOT CALLDATASIZE ADD SLT PUSH2 0x3A0 JUMPI PUSH1 0x4 DUP1 CALLDATALOAD DUP1 DUP5 MSTORE SWAP1 DUP3 MSTORE PUSH1 0x40 DUP1 DUP5 KECCAK256 PUSH1 0x2 DUP5 MSTORE SWAP1 DUP5 KECCAK256 PUSH1 0x1 ADD SLOAD SWAP2 SWAP3 PUSH1 0x1 PUSH1 0x1 PUSH1 0xA0 SHL SUB SWAP3 DUP4 AND CALLER SUB PUSH2 0x146B JUMPI PUSH1 0x1 DUP3 ADD SWAP1 DUP2 SLOAD SWAP3 PUSH1 0xFF DUP5 PUSH1 0xA0 SHR AND PUSH2 0x1433 JUMPI PUSH2 0x135B PUSH1 0xFF PUSH1 0x4 DUP4 ADD SLOAD AND ISZERO PUSH2 0x3EDF JUMP JUMPDEST PUSH1 0x3 DUP2 ADD SLOAD TIMESTAMP LT PUSH2 0x13E2 JUMPI PUSH1 0x2 ADD SLOAD TIMESTAMP LT PUSH2 0x13AA JUMPI POP PUSH1 0xFF PUSH1 0xA0 SHL NOT DUP3 AND PUSH1 0x1 PUSH1 0xA0 SHL OR SWAP1 SSTORE AND SWAP1 PUSH32 0xF7AEEF2E7683FC4A3BD43C0BA3FE3496995F923B61B72DDC107CC037F3A689F5 DUP4 DUP1 LOG3 DUP1 RETURN JUMPDEST PUSH1 0x64 SWAP1 PUSH1 0x40 MLOAD SWAP1 PUSH3 0x461BCD PUSH1 0xE5 SHL DUP3 MSTORE PUSH1 0x4 DUP3 ADD MSTORE PUSH1 0x11 PUSH1 0x24 DUP3 ADD MSTORE PUSH17 0x496E76616C69642074696D657374616D7 PUSH1 0x7C SHL PUSH1 0x44 DUP3 ADD MSTORE REVERT JUMPDEST PUSH1 0x40 MLOAD PUSH3 0x461BCD PUSH1 0xE5 SHL DUP2 MSTORE PUSH1 0x4 DUP2 ADD DUP4 SWAP1 MSTORE PUSH1 0x24 DUP1 DUP3 ADD MSTORE PUSH32 0x43616E6E6F7420617070726F7665206265666F7265207363686564756C656420 PUSH1 0x44 DUP3 ADD MSTORE PUSH4 0x74696D65 PUSH1 0xE0 SHL PUSH1 0x64 DUP3 ADD MSTORE PUSH1 0x84 SWAP1 REVERT JUMPDEST PUSH1 0x40 MLOAD PUSH3 0x461BCD PUSH1 0xE5 SHL DUP2 MSTORE PUSH1 0x4 DUP2 ADD DUP4 SWAP1 MSTORE PUSH1 0x10 PUSH1 0x24 DUP3 ADD MSTORE PUSH16 0x105B1C9958591E48185C1C1C9BDD9959 PUSH1 0x82 SHL PUSH1 0x44 DUP3 ADD MSTORE PUSH1 0x64 SWAP1 REVERT JUMPDEST PUSH1 0x64 SWAP1 PUSH1 0x40 MLOAD SWAP1 PUSH3 0x461BCD PUSH1 0xE5 SHL DUP3 MSTORE PUSH1 0x4 DUP3 ADD MSTORE PUSH1 0x17 PUSH1 0x24 DUP3 ADD MSTORE PUSH32 0x4F6E6C792073656C6C65722063616E20617070726F7665000000000000000000 PUSH1 0x44 DUP3 ADD MSTORE REVERT JUMPDEST POP CALLVALUE PUSH2 0x20C JUMPI PUSH2 0x14BE CALLDATASIZE PUSH2 0x3A70 JUMP JUMPDEST SWAP1 DUP3 MSTORE PUSH1 0x8 PUSH1 0x20 MSTORE PUSH1 0x40 DUP3 KECCAK256 DUP1 SLOAD DUP3 LT ISZERO PUSH2 0x638 JUMPI PUSH2 0x14DD SWAP3 POP PUSH2 0x3C6E JUMP JUMPDEST POP DUP1 SLOAD PUSH1 0x1 DUP3 ADD SLOAD PUSH1 0x2 DUP4 ADD SLOAD SWAP1 SWAP3 SWAP1 PUSH1 0x1 PUSH1 0x1 PUSH1 0xA0 SHL SUB AND PUSH2 0x1536 PUSH2 0x1505 PUSH1 0x3 DUP5 ADD PUSH2 0x3CC4 JUMP JUMPDEST PUSH1 0xFF PUSH1 0x5 PUSH1 0x4 DUP7 ADD SLOAD SWAP6 ADD SLOAD AND SWAP3 PUSH1 0x40 MLOAD SWAP7 DUP8 SWAP7 DUP8 MSTORE PUSH1 0x20 DUP8 ADD MSTORE PUSH1 0x40 DUP7 ADD MSTORE PUSH1 0xC0 PUSH1 0x60 DUP7 ADD MSTORE PUSH1 0xC0 DUP6 ADD SWAP1 PUSH2 0x384C JUMP JUMPDEST SWAP2 PUSH1 0x80 DUP5 ADD MSTORE PUSH1 0xA0 DUP4 ADD MSTORE SUB SWAP1 RETURN JUMPDEST POP CALLVALUE PUSH2 0x20C JUMPI PUSH1 0x40 CALLDATASIZE PUSH1 0x3 NOT ADD SLT PUSH2 0x20C JUMPI PUSH1 0x4 CALLDATALOAD PUSH1 0x24 CALLDATALOAD PUSH1 0x1 PUSH1 0x1 PUSH1 0x40 SHL SUB DUP2 GT PUSH2 0x638 JUMPI PUSH2 0x1579 SWAP1 CALLDATASIZE SWAP1 PUSH1 0x4 ADD PUSH2 0x3A1A JUMP JUMPDEST SWAP1 DUP1 DUP4 MSTORE PUSH1 0x20 SWAP2 PUSH1 0x4 DUP4 MSTORE PUSH1 0x40 DUP5 KECCAK256 PUSH1 0x2 DUP5 MSTORE PUSH1 0x40 DUP6 KECCAK256 SWAP1 PUSH1 0x1 DUP2 ADD SLOAD SWAP2 PUSH1 0x1 DUP1 PUSH1 0xA0 SHL SUB SWAP1 DUP2 DUP5 AND CALLER EQ DUP1 ISZERO PUSH2 0x1765 JUMPI JUMPDEST ISZERO PUSH2 0x1720 JUMPI PUSH1 0x4 DUP4 ADD SWAP3 DUP4 SLOAD SWAP5 PUSH1 0xFF DUP7 AND PUSH2 0x16DB JUMPI PUSH1 0xA0 SHR PUSH1 0xFF AND PUSH2 0x1696 JUMPI PUSH1 0x3 ADD SLOAD SWAP3 DUP4 TIMESTAMP LT ISZERO PUSH2 0x1642 JUMPI SWAP2 PUSH1 0x1 PUSH32 0xC90ED825423F1D894412591B9109A86F358C8BA687F93E9A5FBF42E90B0015E4 SWAP7 SWAP5 SWAP3 PUSH2 0x163C SWAP7 SWAP5 DUP3 PUSH1 0xFF NOT DUP1 SWAP8 AND OR SWAP1 SSTORE ADD SLOAD AND DUP9 MSTORE PUSH1 0x7 DUP8 MSTORE PUSH1 0x40 DUP9 KECCAK256 SWAP1 DUP9 MSTORE DUP7 MSTORE PUSH1 0x40 DUP8 KECCAK256 SWAP1 DUP2 SLOAD AND SWAP1 SSTORE PUSH1 0x40 MLOAD SWAP2 DUP3 SWAP2 DUP7 DUP4 MSTORE CALLER SWAP7 DUP4 ADD SWAP1 PUSH2 0x384C JUMP JUMPDEST SUB SWAP1 LOG3 DUP1 RETURN JUMPDEST PUSH1 0x40 MLOAD PUSH3 0x461BCD PUSH1 0xE5 SHL DUP2 MSTORE PUSH1 0x4 DUP2 ADD DUP10 SWAP1 MSTORE PUSH1 0x26 PUSH1 0x24 DUP3 ADD MSTORE PUSH32 0x43616E6E6F742063616E63656C20616674657220736572766963652073746172 PUSH1 0x44 DUP3 ADD MSTORE PUSH6 0x742074696D65 PUSH1 0xD0 SHL PUSH1 0x64 DUP3 ADD MSTORE PUSH1 0x84 SWAP1 REVERT JUMPDEST PUSH1 0x40 MLOAD PUSH3 0x461BCD PUSH1 0xE5 SHL DUP2 MSTORE PUSH1 0x4 DUP2 ADD DUP10 SWAP1 MSTORE PUSH1 0x1F PUSH1 0x24 DUP3 ADD MSTORE PUSH32 0x43616E6E6F742063616E63656C20636F6D706C65746564207365727669636500 PUSH1 0x44 DUP3 ADD MSTORE PUSH1 0x64 SWAP1 REVERT JUMPDEST PUSH1 0x40 MLOAD PUSH3 0x461BCD PUSH1 0xE5 SHL DUP2 MSTORE PUSH1 0x4 DUP2 ADD DUP11 SWAP1 MSTORE PUSH1 0x19 PUSH1 0x24 DUP3 ADD MSTORE PUSH32 0x5365727669636520616C72656164792063616E63656C6C656400000000000000 PUSH1 0x44 DUP3 ADD MSTORE PUSH1 0x64 SWAP1 REVERT JUMPDEST PUSH1 0x40 MLOAD PUSH3 0x461BCD PUSH1 0xE5 SHL DUP2 MSTORE PUSH1 0x4 DUP2 ADD DUP9 SWAP1 MSTORE PUSH1 0x1F PUSH1 0x24 DUP3 ADD MSTORE PUSH32 0x4F6E6C79206275796572206F722073656C6C65722063616E2063616E63656C00 PUSH1 0x44 DUP3 ADD MSTORE PUSH1 0x64 SWAP1 REVERT JUMPDEST POP DUP2 PUSH1 0x1 DUP3 ADD SLOAD AND CALLER EQ PUSH2 0x15AB JUMP JUMPDEST POP CALLVALUE PUSH2 0x20C JUMPI PUSH1 0x20 CALLDATASIZE PUSH1 0x3 NOT ADD SLT PUSH2 0x20C JUMPI PUSH1 0x40 PUSH2 0x100 SWAP2 PUSH1 0x4 CALLDATALOAD DUP2 MSTORE PUSH1 0x4 PUSH1 0x20 MSTORE KECCAK256 DUP1 SLOAD SWAP1 PUSH1 0x1 DUP2 ADD SLOAD SWAP1 PUSH1 0x2 DUP2 ADD SLOAD PUSH1 0xFF DUP1 PUSH1 0x4 PUSH1 0x3 DUP6 ADD SLOAD SWAP5 ADD SLOAD AND SWAP4 PUSH1 0x40 MLOAD SWAP6 DUP7 MSTORE PUSH1 0x1 DUP1 PUSH1 0xA0 SHL SUB DUP2 AND PUSH1 0x20 DUP8 ADD MSTORE DUP2 DUP2 PUSH1 0xA0 SHR AND ISZERO ISZERO PUSH1 0x40 DUP8 ADD MSTORE DUP2 DUP2 PUSH1 0xA8 SHR AND ISZERO ISZERO PUSH1 0x60 DUP8 ADD MSTORE PUSH1 0xB0 SHR AND ISZERO ISZERO PUSH1 0x80 DUP6 ADD MSTORE PUSH1 0xA0 DUP5 ADD MSTORE PUSH1 0xC0 DUP4 ADD MSTORE ISZERO ISZERO PUSH1 0xE0 DUP3 ADD MSTORE RETURN JUMPDEST POP CALLVALUE PUSH2 0x20C JUMPI PUSH1 0x20 PUSH2 0x236 PUSH2 0x1814 CALLDATASIZE PUSH2 0x3AB4 JUMP JUMPDEST SWAP2 PUSH2 0x4B19 JUMP JUMPDEST POP CALLVALUE PUSH2 0x20C JUMPI PUSH1 0xFF PUSH1 0x40 PUSH1 0x20 SWAP3 PUSH2 0x1830 CALLDATASIZE PUSH2 0x3A70 JUMP JUMPDEST SWAP1 DUP3 MSTORE PUSH1 0x3 DUP6 MSTORE DUP3 DUP3 KECCAK256 SWAP1 DUP3 MSTORE DUP5 MSTORE KECCAK256 SLOAD AND PUSH1 0x40 MLOAD SWAP1 ISZERO ISZERO DUP2 MSTORE RETURN JUMPDEST POP CALLVALUE PUSH2 0x20C JUMPI PUSH1 0x60 CALLDATASIZE PUSH1 0x3 NOT ADD SLT PUSH2 0x20C JUMPI PUSH1 0x24 PUSH1 0x1 PUSH1 0x1 PUSH1 0x40 SHL SUB DUP2 CALLDATALOAD DUP2 DUP2 GT PUSH2 0x1E3D JUMPI PUSH2 0x187F SWAP1 CALLDATASIZE SWAP1 PUSH1 0x4 ADD PUSH2 0x3A1A JUMP JUMPDEST SWAP2 PUSH2 0x1888 PUSH2 0x3A96 JUMP JUMPDEST SWAP3 CALLER DUP6 MSTORE PUSH1 0x1 PUSH1 0x20 MSTORE PUSH2 0x18A4 PUSH1 0xFF PUSH1 0x5 PUSH1 0x40 DUP9 KECCAK256 ADD SLOAD AND PUSH2 0x3D6A JUMP JUMPDEST PUSH1 0x4 CALLDATALOAD DUP6 MSTORE PUSH1 0x2 PUSH1 0x20 MSTORE PUSH2 0x18C1 PUSH1 0xFF PUSH1 0x4 PUSH1 0x40 DUP9 KECCAK256 ADD SLOAD AND PUSH2 0x4AB6 JUMP JUMPDEST PUSH1 0x1 PUSH1 0xFF DUP6 AND LT ISZERO DUP1 PUSH2 0x1E2F JUMPI JUMPDEST ISZERO PUSH2 0x1DEB JUMPI PUSH1 0x4 CALLDATALOAD DUP6 MSTORE PUSH1 0x2 PUSH1 0x20 MSTORE PUSH1 0x40 DUP6 KECCAK256 PUSH1 0x1 ADD SLOAD PUSH1 0x1 PUSH1 0x1 PUSH1 0xA0 SHL SUB AND CALLER EQ PUSH2 0x1D9C JUMPI PUSH1 0x4 DUP1 CALLDATALOAD DUP7 MSTORE PUSH1 0x20 MSTORE PUSH1 0x40 DUP6 KECCAK256 PUSH1 0x1 DUP2 ADD SLOAD CALLER PUSH1 0x1 PUSH1 0x1 PUSH1 0xA0 SHL SUB DUP3 AND SUB PUSH2 0x1D58 JUMPI PUSH1 0xA0 SHR PUSH1 0xFF AND ISZERO PUSH2 0x1D00 JUMPI PUSH1 0x4 ADD SLOAD PUSH1 0xFF AND PUSH2 0x1CB0 JUMPI PUSH1 0x4 CALLDATALOAD DUP6 MSTORE PUSH1 0xA PUSH1 0x20 MSTORE PUSH1 0x40 DUP6 KECCAK256 CALLER PUSH1 0x0 MSTORE PUSH1 0x20 MSTORE PUSH1 0xFF PUSH1 0x40 PUSH1 0x0 KECCAK256 SLOAD AND PUSH2 0x1C62 JUMPI PUSH1 0x4 CALLDATALOAD DUP6 MSTORE PUSH1 0x9 PUSH1 0x20 MSTORE PUSH1 0x40 DUP6 KECCAK256 SLOAD SWAP3 PUSH1 0x40 MLOAD SWAP3 PUSH2 0x196C DUP5 PUSH2 0x3976 JUMP JUMPDEST DUP5 DUP5 MSTORE PUSH1 0x20 DUP5 ADD SWAP3 PUSH1 0x4 CALLDATALOAD DUP5 MSTORE PUSH1 0x40 DUP6 ADD CALLER DUP2 MSTORE PUSH1 0x60 DUP7 ADD SWAP2 DUP3 MSTORE TIMESTAMP PUSH1 0x80 DUP8 ADD MSTORE PUSH1 0xFF DUP9 AND PUSH1 0xA0 DUP8 ADD MSTORE PUSH1 0x4 CALLDATALOAD DUP10 MSTORE PUSH1 0x8 PUSH1 0x20 MSTORE PUSH1 0x40 DUP10 KECCAK256 DUP1 SLOAD SWAP1 PUSH1 0x1 PUSH1 0x40 SHL DUP3 LT ISZERO PUSH2 0x1C4F JUMPI SWAP1 PUSH2 0x19C3 SWAP2 PUSH1 0x1 DUP3 ADD DUP2 SSTORE PUSH2 0x3C6E JUMP JUMPDEST SWAP6 SWAP1 SWAP6 PUSH2 0x1C3C JUMPI DUP7 MLOAD DUP7 SSTORE MLOAD PUSH1 0x1 DUP7 ADD SSTORE PUSH1 0x2 DUP6 ADD SWAP1 PUSH1 0x1 DUP1 PUSH1 0xA0 SHL SUB SWAP1 MLOAD AND PUSH12 0xFFFFFFFFFFFFFFFFFFFFFFFF PUSH1 0xA0 SHL DUP3 SLOAD AND OR SWAP1 SSTORE MLOAD SWAP1 DUP2 MLOAD SWAP3 DUP4 GT PUSH2 0x1C2A JUMPI POP PUSH2 0x1A12 PUSH1 0x3 DUP5 ADD SLOAD PUSH2 0x3C8A JUMP JUMPDEST PUSH1 0x1F DUP2 GT PUSH2 0x1BF7 JUMPI JUMPDEST POP PUSH1 0x20 SWAP1 PUSH1 0x1F DUP4 GT PUSH1 0x1 EQ PUSH2 0x1B83 JUMPI SWAP3 DUP3 PUSH1 0xA0 SWAP4 PUSH1 0x5 SWAP4 PUSH1 0xFF SWAP7 DUP12 SWAP3 PUSH2 0x1B78 JUMPI JUMPDEST POP POP DUP2 PUSH1 0x1 SHL SWAP2 PUSH1 0x0 NOT SWAP1 PUSH1 0x3 SHL SHR NOT AND OR PUSH1 0x3 DUP3 ADD SSTORE JUMPDEST PUSH1 0x80 DUP6 ADD MLOAD PUSH1 0x4 DUP3 ADD SSTORE ADD SWAP3 ADD MLOAD AND SWAP1 PUSH1 0xFF NOT SWAP2 DUP3 DUP3 SLOAD AND OR SWAP1 SSTORE PUSH1 0x4 CALLDATALOAD DUP5 MSTORE PUSH1 0x9 PUSH1 0x20 MSTORE PUSH1 0x40 DUP5 KECCAK256 PUSH2 0x1A87 DUP2 SLOAD PUSH2 0x3DF8 JUMP JUMPDEST SWAP1 SSTORE PUSH1 0x4 CALLDATALOAD DUP5 MSTORE PUSH1 0xA PUSH1 0x20 MSTORE PUSH1 0x40 DUP5 KECCAK256 CALLER PUSH1 0x0 MSTORE PUSH1 0x20 MSTORE PUSH1 0x1 PUSH1 0x40 PUSH1 0x0 KECCAK256 SWAP2 DUP3 SLOAD AND OR SWAP1 SSTORE PUSH1 0x4 CALLDATALOAD DUP4 MSTORE PUSH1 0x2 PUSH1 0x20 MSTORE PUSH1 0x1 DUP1 PUSH1 0xA0 SHL SUB PUSH1 0x1 PUSH1 0x40 DUP6 KECCAK256 ADD SLOAD AND DUP4 MSTORE PUSH1 0x1 PUSH1 0x20 MSTORE PUSH1 0x4 PUSH1 0x40 DUP5 KECCAK256 PUSH1 0x3 DUP2 ADD PUSH2 0x1AE5 PUSH1 0xFF DUP7 AND DUP3 SLOAD PUSH2 0x3E1D JUMP JUMPDEST SWAP1 SSTORE ADD PUSH2 0x1AF2 DUP2 SLOAD PUSH2 0x3DF8 JUMP JUMPDEST SWAP1 SSTORE PUSH1 0x40 MLOAD SWAP1 DUP2 MSTORE PUSH1 0xFF DUP3 AND PUSH1 0x20 DUP3 ADD MSTORE CALLER SWAP1 PUSH32 0x70997DC3171D815F6AB1CE3FC8F4138E4EC857FBA88C5EEB5F5246C76C87BF06 PUSH1 0x40 PUSH1 0x4 CALLDATALOAD SWAP3 LOG3 PUSH1 0x4 CALLDATALOAD DUP3 MSTORE PUSH1 0x2 PUSH1 0x20 MSTORE PUSH32 0x1A30BC2BDA53A934E4CF4CFED9F76E7D8CCC23B8E8D16529CC99B43BEEC262D6 PUSH1 0x20 PUSH1 0x1 DUP1 PUSH1 0xA0 SHL SUB PUSH1 0x1 PUSH1 0x40 DUP7 KECCAK256 ADD SLOAD AND SWAP3 PUSH1 0xFF PUSH1 0x40 MLOAD SWAP2 AND DUP2 MSTORE LOG2 DUP1 RETURN JUMPDEST ADD MLOAD SWAP1 POP CODESIZE DUP1 PUSH2 0x1A3C JUMP JUMPDEST SWAP1 PUSH1 0x3 DUP5 ADD DUP9 MSTORE PUSH1 0x20 DUP9 KECCAK256 SWAP2 DUP9 JUMPDEST PUSH1 0x1F NOT DUP6 AND DUP2 LT PUSH2 0x1BDF JUMPI POP DUP4 PUSH1 0x5 SWAP4 PUSH1 0xFF SWAP7 SWAP4 PUSH1 0x1 SWAP4 PUSH1 0xA0 SWAP8 PUSH1 0x1F NOT DUP2 AND LT PUSH2 0x1BC6 JUMPI JUMPDEST POP POP POP DUP2 SHL ADD PUSH1 0x3 DUP3 ADD SSTORE PUSH2 0x1A54 JUMP JUMPDEST ADD MLOAD PUSH1 0x0 NOT PUSH1 0xF8 DUP5 PUSH1 0x3 SHL AND SHR NOT AND SWAP1 SSTORE CODESIZE DUP1 DUP1 PUSH2 0x1BB6 JUMP JUMPDEST SWAP2 SWAP3 PUSH1 0x20 PUSH1 0x1 DUP2 SWAP3 DUP7 DUP6 ADD MLOAD DUP2 SSTORE ADD SWAP5 ADD SWAP3 ADD PUSH2 0x1B91 JUMP JUMPDEST PUSH2 0x1C24 SWAP1 PUSH1 0x3 DUP6 ADD DUP10 MSTORE PUSH1 0x20 DUP10 KECCAK256 PUSH1 0x1F DUP6 ADD PUSH1 0x5 SHR DUP2 ADD SWAP2 PUSH1 0x20 DUP7 LT PUSH2 0x11A1 JUMPI PUSH1 0x1F ADD PUSH1 0x5 SHR ADD SWAP1 PUSH2 0x3DAC JUMP JUMPDEST CODESIZE PUSH2 0x1A1B JUMP JUMPDEST PUSH4 0x4E487B71 PUSH1 0xE0 SHL DUP9 MSTORE PUSH1 0x41 PUSH1 0x4 MSTORE DUP8 REVERT JUMPDEST PUSH4 0x4E487B71 PUSH1 0xE0 SHL DUP11 MSTORE PUSH1 0x4 DUP11 SWAP1 MSTORE DUP4 DUP11 REVERT JUMPDEST PUSH4 0x4E487B71 PUSH1 0xE0 SHL DUP12 MSTORE PUSH1 0x41 PUSH1 0x4 MSTORE DUP5 DUP12 REVERT JUMPDEST PUSH1 0x40 MLOAD PUSH3 0x461BCD PUSH1 0xE5 SHL DUP2 MSTORE PUSH1 0x20 PUSH1 0x4 DUP3 ADD MSTORE PUSH1 0x21 DUP2 DUP5 ADD MSTORE PUSH32 0x416C726561647920636F6D6D656E746564206F6E207468697320736572766963 PUSH1 0x44 DUP3 ADD MSTORE PUSH1 0x65 PUSH1 0xF8 SHL PUSH1 0x64 DUP3 ADD MSTORE PUSH1 0x84 SWAP1 REVERT JUMPDEST PUSH1 0x40 MLOAD PUSH3 0x461BCD PUSH1 0xE5 SHL DUP2 MSTORE PUSH1 0x20 PUSH1 0x4 DUP3 ADD MSTORE PUSH1 0x23 DUP2 DUP5 ADD MSTORE PUSH32 0x43616E6E6F7420636F6D6D656E74206F6E2063616E63656C6C65642073657276 PUSH1 0x44 DUP3 ADD MSTORE PUSH3 0x696365 PUSH1 0xE8 SHL PUSH1 0x64 DUP3 ADD MSTORE PUSH1 0x84 SWAP1 REVERT JUMPDEST PUSH1 0x40 MLOAD PUSH3 0x461BCD PUSH1 0xE5 SHL DUP2 MSTORE PUSH1 0x20 PUSH1 0x4 DUP3 ADD MSTORE PUSH1 0x2B DUP2 DUP6 ADD MSTORE PUSH32 0x53657276696365206D75737420626520636F6D706C65746564206265666F7265 PUSH1 0x44 DUP3 ADD MSTORE PUSH11 0x20636F6D6D656E74696E67 PUSH1 0xA8 SHL PUSH1 0x64 DUP3 ADD MSTORE PUSH1 0x84 SWAP1 REVERT JUMPDEST PUSH1 0x40 MLOAD PUSH3 0x461BCD PUSH1 0xE5 SHL DUP2 MSTORE PUSH1 0x20 PUSH1 0x4 DUP3 ADD MSTORE PUSH1 0x17 DUP2 DUP7 ADD MSTORE PUSH32 0x4F6E6C79206275796572732063616E20636F6D6D656E74000000000000000000 PUSH1 0x44 DUP3 ADD MSTORE PUSH1 0x64 SWAP1 REVERT JUMPDEST PUSH1 0x40 MLOAD PUSH3 0x461BCD PUSH1 0xE5 SHL DUP2 MSTORE PUSH1 0x20 PUSH1 0x4 DUP3 ADD MSTORE PUSH1 0x22 DUP2 DUP5 ADD MSTORE PUSH32 0x43616E6E6F7420636F6D6D656E74206F6E20796F7572206F776E207365727669 PUSH1 0x44 DUP3 ADD MSTORE PUSH2 0x6365 PUSH1 0xF0 SHL PUSH1 0x64 DUP3 ADD MSTORE PUSH1 0x84 SWAP1 REVERT JUMPDEST PUSH1 0x40 MLOAD PUSH3 0x461BCD PUSH1 0xE5 SHL DUP2 MSTORE PUSH1 0x20 PUSH1 0x4 DUP3 ADD MSTORE PUSH1 0x1E DUP2 DUP5 ADD MSTORE PUSH32 0x526174696E67206D757374206265206265747765656E203120616E6420350000 PUSH1 0x44 DUP3 ADD MSTORE PUSH1 0x64 SWAP1 REVERT JUMPDEST POP PUSH1 0x5 PUSH1 0xFF DUP6 AND GT ISZERO PUSH2 0x18CF JUMP JUMPDEST DUP4 DUP1 REVERT JUMPDEST POP CALLVALUE PUSH2 0x20C JUMPI PUSH1 0x20 SWAP1 DUP2 PUSH1 0x3 NOT CALLDATASIZE ADD SLT PUSH2 0x20C JUMPI PUSH1 0x1 PUSH1 0x1 PUSH1 0xA0 SHL SUB SWAP2 DUP3 PUSH2 0x1E67 PUSH2 0x381B JUMP JUMPDEST AND SWAP2 DUP3 DUP2 MSTORE PUSH1 0x1 SWAP2 DUP3 DUP2 MSTORE PUSH1 0xFF SWAP4 PUSH2 0x1E87 DUP6 PUSH1 0x5 PUSH1 0x40 DUP7 KECCAK256 ADD SLOAD AND PUSH2 0x3D6A JUMP JUMPDEST DUP3 MSTORE PUSH1 0x6 DUP2 MSTORE PUSH1 0x40 DUP3 KECCAK256 SWAP5 PUSH1 0x40 MLOAD SWAP6 DUP7 DUP4 DUP3 SLOAD SWAP2 DUP3 DUP2 MSTORE ADD SWAP2 DUP6 MSTORE DUP4 DUP6 KECCAK256 SWAP1 DUP6 JUMPDEST DUP2 DUP2 LT PUSH2 0x2040 JUMPI POP POP POP DUP7 PUSH2 0x1EBE SWAP2 SUB DUP8 PUSH2 0x39F9 JUMP JUMPDEST PUSH2 0x1EC8 DUP7 MLOAD PUSH2 0x49B8 JUMP JUMPDEST SWAP5 DUP7 MLOAD SWAP7 PUSH2 0x1ED5 DUP9 PUSH2 0x3C02 JUMP JUMPDEST SWAP8 PUSH2 0x1EE3 PUSH1 0x40 MLOAD SWAP10 DUP11 PUSH2 0x39F9 JUMP JUMPDEST DUP1 DUP10 MSTORE PUSH2 0x1EF2 PUSH1 0x1F NOT SWAP2 PUSH2 0x3C02 JUMP JUMPDEST ADD DUP6 JUMPDEST DUP2 DUP2 LT PUSH2 0x2024 JUMPI POP POP DUP6 DUP6 SWAP1 JUMPDEST PUSH2 0x1F64 JUMPI JUMPDEST POP POP POP POP PUSH2 0x1F20 PUSH1 0x40 MLOAD SWAP5 PUSH1 0x40 DUP7 MSTORE PUSH1 0x40 DUP7 ADD SWAP1 PUSH2 0x3C19 JUMP JUMPDEST SWAP1 DUP5 DUP3 SUB DUP2 DUP7 ADD MSTORE DUP1 DUP1 DUP8 MLOAD SWAP4 DUP5 DUP2 MSTORE ADD SWAP7 ADD SWAP3 JUMPDEST DUP3 DUP2 LT PUSH2 0x1F42 JUMPI DUP6 DUP8 SUB DUP7 RETURN JUMPDEST SWAP1 SWAP2 SWAP3 SWAP4 DUP3 PUSH2 0x100 DUP9 PUSH2 0x1F57 DUP5 SWAP11 DUP10 MLOAD PUSH2 0x3B19 JUMP JUMPDEST ADD SWAP8 SWAP6 ADD SWAP4 SWAP3 SWAP2 ADD PUSH2 0x1F35 JUMP JUMPDEST SWAP1 DUP7 SWAP9 SWAP7 SWAP4 SWAP3 SWAP2 DUP2 MLOAD DUP2 LT ISZERO PUSH2 0x201B JUMPI DUP1 DUP8 DUP7 DUP6 PUSH1 0x4 DUP11 PUSH2 0x1FA8 PUSH1 0x40 PUSH2 0x1F8D PUSH2 0x2010 SWAP10 DUP12 PUSH2 0x4021 JUMP JUMPDEST MLOAD SWAP7 DUP8 DUP2 MSTORE PUSH1 0x2 DUP1 SWAP5 MSTORE KECCAK256 SWAP2 DUP14 DUP13 PUSH1 0x40 MLOAD SWAP8 PUSH2 0x326 DUP10 PUSH2 0x3976 JUMP JUMPDEST PUSH1 0x40 DUP6 ADD MSTORE PUSH2 0x1FB9 PUSH1 0x3 DUP3 ADD PUSH2 0x3CC4 JUMP JUMPDEST PUSH1 0x60 DUP6 ADD MSTORE ADD SLOAD DUP2 DUP2 AND ISZERO ISZERO PUSH1 0x80 DUP5 ADD MSTORE PUSH1 0x8 SHR AND PUSH1 0xA0 DUP3 ADD MSTORE PUSH2 0x1FDD DUP4 DUP14 PUSH2 0x4021 JUMP JUMPDEST MSTORE PUSH2 0x1FE8 DUP3 DUP13 PUSH2 0x4021 JUMP JUMPDEST POP DUP9 MSTORE PUSH1 0x4 DUP8 MSTORE PUSH2 0x1FFB PUSH1 0x40 DUP10 KECCAK256 PUSH2 0x4A46 JUMP JUMPDEST PUSH2 0x2005 DUP3 DUP12 PUSH2 0x4021 JUMP JUMPDEST MSTORE PUSH2 0x379 DUP2 DUP11 PUSH2 0x4021 JUMP JUMPDEST SWAP1 SWAP2 SWAP3 SWAP4 SWAP7 SWAP9 PUSH2 0x1F02 JUMP JUMPDEST POP SWAP8 SWAP6 SWAP8 PUSH2 0x1F07 JUMP JUMPDEST DUP6 SWAP1 PUSH2 0x2031 SWAP11 SWAP9 SWAP11 PUSH2 0x4A08 JUMP JUMPDEST DUP3 DUP3 DUP12 ADD ADD MSTORE ADD SWAP9 SWAP7 SWAP9 PUSH2 0x1EF5 JUMP JUMPDEST DUP3 SLOAD DUP5 MSTORE SWAP3 DUP6 ADD SWAP3 SWAP2 DUP8 ADD SWAP2 DUP8 ADD PUSH2 0x1EA8 JUMP JUMPDEST POP CALLVALUE PUSH2 0x20C JUMPI PUSH1 0x40 CALLDATASIZE PUSH1 0x3 NOT ADD SLT PUSH2 0x20C JUMPI PUSH1 0x1 PUSH1 0x1 PUSH1 0x40 SHL SUB SWAP1 PUSH1 0x4 CALLDATALOAD DUP3 DUP2 GT PUSH2 0x3A0 JUMPI CALLDATASIZE PUSH1 0x23 DUP3 ADD SLT ISZERO PUSH2 0x3A0 JUMPI DUP1 PUSH1 0x4 ADD CALLDATALOAD SWAP1 PUSH2 0x2092 DUP3 PUSH2 0x3C02 JUMP JUMPDEST PUSH2 0x209F PUSH1 0x40 MLOAD SWAP2 DUP3 PUSH2 0x39F9 JUMP JUMPDEST DUP3 DUP2 MSTORE PUSH1 0x20 SWAP2 DUP3 DUP3 ADD PUSH1 0x24 DUP1 SWAP6 PUSH1 0x5 SHL DUP4 ADD ADD SWAP2 CALLDATASIZE DUP4 GT PUSH2 0x24BA JUMPI DUP6 ADD SWAP1 JUMPDEST DUP3 DUP3 LT PUSH2 0x24BE JUMPI POP POP POP DUP3 CALLDATALOAD SWAP5 DUP6 GT PUSH2 0x1E3D JUMPI CALLDATASIZE PUSH1 0x23 DUP7 ADD SLT ISZERO PUSH2 0x1E3D JUMPI DUP5 PUSH1 0x4 ADD CALLDATALOAD SWAP5 PUSH2 0x20EB DUP7 PUSH2 0x3C02 JUMP JUMPDEST SWAP6 PUSH2 0x20F9 PUSH1 0x40 MLOAD SWAP8 DUP9 PUSH2 0x39F9 JUMP JUMPDEST DUP1 DUP8 MSTORE DUP5 DUP5 DUP9 ADD SWAP2 PUSH1 0x6 SHL DUP4 ADD ADD SWAP2 CALLDATASIZE DUP4 GT PUSH2 0x24BA JUMPI DUP6 ADD SWAP1 JUMPDEST DUP3 DUP3 LT PUSH2 0x247C JUMPI POP POP POP CALLER DUP5 MSTORE PUSH1 0x1 SWAP3 DUP4 DUP4 MSTORE PUSH1 0xFF SWAP2 PUSH2 0x213B DUP4 PUSH1 0x5 PUSH1 0x40 DUP10 KECCAK256 ADD SLOAD AND PUSH2 0x3D6A JUMP JUMPDEST DUP1 MLOAD ISZERO PUSH2 0x2444 JUMPI DUP7 MLOAD ISZERO PUSH2 0x2400 JUMPI CALLER DUP7 MSTORE DUP5 DUP5 MSTORE PUSH1 0x40 DUP7 KECCAK256 SWAP3 DUP7 SWAP5 PUSH1 0x8 DUP6 ADD DUP8 DUP1 PUSH1 0x7 SWAP9 DUP10 DUP10 ADD SWAP3 JUMPDEST PUSH2 0x23C3 JUMPI JUMPDEST POP POP DUP2 SLOAD DUP11 DUP4 SSTORE DUP1 PUSH2 0x23A5 JUMPI JUMPDEST POP PUSH1 0x6 DUP11 SWAP10 SWAP11 SWAP8 ADD SWAP7 JUMPDEST DUP9 DUP2 LT PUSH2 0x237F JUMPI POP DUP10 SWAP11 DUP10 SWAP12 JUMPDEST PUSH2 0x222A JUMPI JUMPDEST POP POP POP POP POP DUP6 SWAP7 POP DUP5 SWAP6 SWAP4 SWAP5 SWAP7 JUMPDEST PUSH2 0x21CE JUMPI JUMPDEST DUP6 CALLER PUSH32 0x691FF89782E0C6C5F11B5801F5A5DCCD5092FFD0DEFECCC6CEEB8ACC1CA5B469 DUP3 DUP1 LOG2 DUP1 RETURN JUMPDEST DUP1 MLOAD DUP8 LT ISZERO PUSH2 0x2225 JUMPI PUSH2 0x21E1 DUP8 DUP3 PUSH2 0x4021 JUMP JUMPDEST MLOAD DUP6 DUP2 LT ISZERO PUSH2 0x2212 JUMPI DUP5 SWAP6 SWAP7 SWAP8 PUSH2 0x21FB PUSH2 0x220A SWAP3 DUP7 PUSH2 0x3E4B JUMP JUMPDEST DUP1 SLOAD PUSH1 0xFF NOT AND DUP8 OR SWAP1 SSTORE PUSH2 0x3DF8 JUMP JUMPDEST SWAP7 SWAP6 SWAP5 PUSH2 0x21A0 JUMP JUMPDEST PUSH4 0x4E487B71 PUSH1 0xE0 SHL DUP8 MSTORE PUSH1 0x21 PUSH1 0x4 MSTORE DUP3 DUP8 REVERT JUMPDEST PUSH2 0x21A5 JUMP JUMPDEST DUP1 SWAP11 SWAP10 SWAP11 MLOAD DUP13 LT ISZERO PUSH2 0x2377 JUMPI PUSH2 0x2240 DUP13 DUP3 PUSH2 0x4021 JUMP JUMPDEST MLOAD PUSH1 0x18 DUP1 DUP8 DUP4 MLOAD AND LT SWAP1 DUP2 PUSH2 0x2368 JUMPI JUMPDEST POP ISZERO PUSH2 0x2334 JUMPI DUP6 DUP2 MLOAD AND SWAP1 DUP6 DUP2 ADD SWAP2 DUP8 DUP4 MLOAD AND GT ISZERO PUSH2 0x22FC JUMPI DUP1 DUP8 PUSH2 0x22A3 SWAP3 MLOAD AND PUSH1 0x0 MSTORE DUP5 DUP8 MSTORE DUP8 DUP1 PUSH1 0x40 PUSH1 0x0 KECCAK256 SWAP3 MLOAD AND SWAP4 DUP5 PUSH1 0xFF NOT DUP5 SLOAD AND OR DUP4 SSTORE MLOAD AND PUSH2 0xFF00 DUP3 SLOAD SWAP2 PUSH1 0x8 SHL AND SWAP1 PUSH2 0xFF00 NOT AND OR SWAP1 SSTORE JUMP JUMPDEST DUP4 SLOAD PUSH1 0x1 PUSH1 0x40 SHL DUP2 LT ISZERO PUSH2 0x22E9 JUMPI SWAP13 PUSH2 0x22E1 SWAP2 PUSH2 0x22C9 DUP14 SWAP15 SWAP16 DUP15 SWAP14 SWAP15 DUP2 ADD DUP9 SSTORE DUP8 PUSH2 0x3E63 JUMP JUMPDEST DUP10 DUP3 SWAP4 SWAP3 SLOAD SWAP2 PUSH1 0x3 SHL SWAP3 DUP4 SHL SWAP3 SHL NOT AND OR SWAP1 SSTORE PUSH2 0x3DF8 JUMP JUMPDEST SWAP12 SWAP10 SWAP9 PUSH2 0x218D JUMP JUMPDEST PUSH4 0x4E487B71 PUSH1 0xE0 SHL DUP14 MSTORE PUSH1 0x41 PUSH1 0x4 MSTORE DUP9 DUP14 REVERT JUMPDEST PUSH1 0x40 MLOAD PUSH3 0x461BCD PUSH1 0xE5 SHL DUP2 MSTORE PUSH1 0x4 DUP2 ADD DUP8 SWAP1 MSTORE PUSH1 0x11 DUP2 DUP12 ADD MSTORE PUSH17 0x125B9D985B1A59081D1A5B59481CDB1BDD PUSH1 0x7A SHL PUSH1 0x44 DUP3 ADD MSTORE PUSH1 0x64 SWAP1 REVERT JUMPDEST PUSH1 0x40 MLOAD PUSH3 0x461BCD PUSH1 0xE5 SHL DUP2 MSTORE PUSH1 0x4 DUP2 ADD DUP7 SWAP1 MSTORE PUSH1 0xD DUP2 DUP11 ADD MSTORE PUSH13 0x496E76616C696420686F757273 PUSH1 0x98 SHL PUSH1 0x44 DUP3 ADD MSTORE PUSH1 0x64 SWAP1 REVERT JUMPDEST SWAP1 POP DUP7 DUP7 DUP4 ADD MLOAD AND LT CODESIZE PUSH2 0x2250 JUMP JUMPDEST SWAP10 SWAP9 SWAP10 PUSH2 0x2192 JUMP JUMPDEST DUP1 PUSH2 0x2390 PUSH2 0x239D SWAP3 DUP11 SWAP14 SWAP13 SWAP14 PUSH2 0x3E4B JUMP JUMPDEST DUP1 SLOAD PUSH1 0xFF NOT AND SWAP1 SSTORE PUSH2 0x3DF8 JUMP JUMPDEST SWAP10 SWAP9 SWAP10 PUSH2 0x2180 JUMP JUMPDEST DUP3 DUP12 MSTORE DUP4 DUP12 KECCAK256 PUSH2 0x23BD SWAP2 PUSH1 0x1F ADD PUSH1 0x5 SHR DUP2 ADD SWAP1 PUSH2 0x3DAC JUMP JUMPDEST CODESIZE PUSH2 0x2176 JUMP JUMPDEST DUP4 SLOAD DUP2 LT ISZERO PUSH2 0x23FB JUMPI DUP1 DUP7 PUSH2 0x23DB PUSH2 0x23F5 SWAP4 DUP8 PUSH2 0x3E63 JUMP JUMPDEST SWAP1 SLOAD SWAP1 PUSH1 0x3 SHL SHR AND PUSH1 0x0 MSTORE DUP4 DUP7 MSTORE DUP13 PUSH1 0x40 PUSH1 0x0 KECCAK256 SSTORE PUSH2 0x3DF8 JUMP JUMPDEST DUP2 PUSH2 0x2164 JUMP JUMPDEST PUSH2 0x2169 JUMP JUMPDEST PUSH1 0x40 MLOAD PUSH3 0x461BCD PUSH1 0xE5 SHL DUP2 MSTORE PUSH1 0x4 DUP2 ADD DUP6 SWAP1 MSTORE PUSH1 0x17 DUP2 DUP5 ADD MSTORE PUSH32 0x4E6F20617661696C61626C652074696D6520736C6F7473000000000000000000 PUSH1 0x44 DUP3 ADD MSTORE PUSH1 0x64 SWAP1 REVERT JUMPDEST PUSH1 0x40 MLOAD PUSH3 0x461BCD PUSH1 0xE5 SHL DUP2 MSTORE PUSH1 0x4 DUP2 ADD DUP6 SWAP1 MSTORE PUSH1 0x11 DUP2 DUP5 ADD MSTORE PUSH17 0x4E6F20617661696C61626C652064617973 PUSH1 0x78 SHL PUSH1 0x44 DUP3 ADD MSTORE PUSH1 0x64 SWAP1 REVERT JUMPDEST PUSH1 0x40 DUP3 CALLDATASIZE SUB SLT PUSH2 0x24BA JUMPI DUP5 PUSH1 0x40 SWAP2 DUP3 MLOAD PUSH2 0x2495 DUP2 PUSH2 0x39A7 JUMP JUMPDEST PUSH2 0x249E DUP6 PUSH2 0x3AA6 JUMP JUMPDEST DUP2 MSTORE PUSH2 0x24AB DUP4 DUP7 ADD PUSH2 0x3AA6 JUMP JUMPDEST DUP4 DUP3 ADD MSTORE DUP2 MSTORE ADD SWAP2 ADD SWAP1 PUSH2 0x2113 JUMP JUMPDEST DUP7 DUP1 REVERT JUMPDEST DUP2 CALLDATALOAD PUSH1 0x7 DUP2 LT ISZERO PUSH2 0x24D6 JUMPI DUP2 MSTORE SWAP1 DUP5 ADD SWAP1 DUP5 ADD PUSH2 0x20BE JUMP JUMPDEST DUP8 DUP1 REVERT JUMPDEST POP CALLVALUE PUSH2 0x20C JUMPI PUSH1 0x40 CALLDATASIZE PUSH1 0x3 NOT ADD SLT PUSH2 0x20C JUMPI PUSH2 0x24F4 PUSH2 0x381B JUMP JUMPDEST PUSH1 0x1 PUSH1 0x1 PUSH1 0xA0 SHL SUB AND DUP2 MSTORE PUSH1 0x5 PUSH1 0x20 MSTORE PUSH1 0x40 DUP2 KECCAK256 DUP1 SLOAD PUSH1 0x24 CALLDATALOAD SWAP3 SWAP1 DUP4 LT ISZERO PUSH2 0x20C JUMPI PUSH1 0x20 PUSH2 0x740 DUP5 DUP5 PUSH2 0x3BD4 JUMP JUMPDEST POP CALLVALUE PUSH2 0x20C JUMPI PUSH1 0x20 CALLDATASIZE PUSH1 0x3 NOT ADD SLT PUSH2 0x20C JUMPI PUSH2 0x2E7 SWAP1 PUSH2 0x2561 SWAP1 PUSH1 0x8 SWAP1 PUSH1 0x40 SWAP1 PUSH1 0x1 PUSH1 0x1 PUSH1 0xA0 SHL SUB PUSH2 0x2552 PUSH2 0x381B JUMP JUMPDEST AND DUP2 MSTORE PUSH1 0x1 PUSH1 0x20 MSTORE KECCAK256 ADD PUSH2 0x4403 JUMP JUMPDEST PUSH1 0x40 MLOAD SWAP2 DUP3 SWAP2 PUSH1 0x20 DUP4 MSTORE PUSH1 0x20 DUP4 ADD SWAP1 PUSH2 0x393F JUMP JUMPDEST POP CALLVALUE PUSH2 0x20C JUMPI PUSH1 0x20 SWAP1 DUP2 PUSH1 0x3 NOT CALLDATASIZE ADD SLT PUSH2 0x20C JUMPI PUSH1 0x4 CALLDATALOAD PUSH2 0x2594 PUSH2 0x4A08 JUMP JUMPDEST POP PUSH2 0x259D PUSH2 0x4986 JUMP JUMPDEST POP DUP1 DUP3 MSTORE PUSH1 0x4 DUP4 MSTORE PUSH2 0x25B1 PUSH1 0x40 DUP4 KECCAK256 PUSH2 0x4A46 JUMP JUMPDEST DUP4 DUP2 ADD MLOAD SWAP1 SWAP3 PUSH1 0x1 PUSH1 0x1 PUSH1 0xA0 SHL SUB SWAP3 SWAP1 SWAP2 DUP4 AND ISZERO PUSH2 0x2651 JUMPI PUSH1 0x4 PUSH2 0x263F SWAP6 PUSH1 0x40 DUP5 PUSH1 0xFF SWAP5 PUSH2 0x2E7 SWAP8 SWAP7 MSTORE PUSH1 0x2 DUP4 MSTORE KECCAK256 SWAP1 PUSH1 0x40 MLOAD SWAP5 PUSH2 0x25EE DUP7 PUSH2 0x3976 JUMP JUMPDEST DUP3 SLOAD DUP7 MSTORE PUSH1 0x1 DUP4 ADD SLOAD AND SWAP1 DUP6 ADD MSTORE PUSH2 0x2608 PUSH1 0x2 DUP3 ADD PUSH2 0x3CC4 JUMP JUMPDEST PUSH1 0x40 DUP6 ADD MSTORE PUSH2 0x2619 PUSH1 0x3 DUP3 ADD PUSH2 0x3CC4 JUMP JUMPDEST PUSH1 0x60 DUP6 ADD MSTORE ADD SLOAD DUP2 DUP2 AND ISZERO ISZERO PUSH1 0x80 DUP5 ADD MSTORE PUSH1 0x8 SHR AND PUSH1 0xA0 DUP3 ADD MSTORE PUSH1 0x40 MLOAD SWAP4 DUP5 DUP1 SWAP5 PUSH2 0x3B19 JUMP JUMPDEST PUSH2 0x120 DUP1 PUSH2 0x100 DUP6 ADD MSTORE DUP4 ADD SWAP1 PUSH2 0x3B74 JUMP JUMPDEST PUSH1 0x40 MLOAD PUSH3 0x461BCD PUSH1 0xE5 SHL DUP2 MSTORE PUSH1 0x4 DUP2 ADD DUP7 SWAP1 MSTORE PUSH1 0x12 PUSH1 0x24 DUP3 ADD MSTORE PUSH18 0x141D5C98DA185CD9481B9BDD08199BDD5B99 PUSH1 0x72 SHL PUSH1 0x44 DUP3 ADD MSTORE PUSH1 0x64 SWAP1 REVERT JUMPDEST POP CALLVALUE PUSH2 0x20C JUMPI PUSH1 0x20 CALLDATASIZE PUSH1 0x3 NOT ADD SLT PUSH2 0x20C JUMPI PUSH1 0x20 PUSH1 0x40 MLOAD PUSH1 0xFF PUSH1 0x18 PUSH2 0xE10 PUSH1 0x4 CALLDATALOAD DIV MOD AND DUP2 MSTORE RETURN JUMPDEST POP CALLVALUE PUSH2 0x20C JUMPI PUSH2 0x26C2 CALLDATASIZE PUSH2 0x3AB4 JUMP JUMPDEST PUSH1 0x1 PUSH1 0x1 PUSH1 0xA0 SHL SUB SWAP1 SWAP3 AND DUP1 DUP5 MSTORE PUSH1 0x1 PUSH1 0x20 DUP2 DUP2 MSTORE PUSH1 0x40 DUP7 KECCAK256 PUSH1 0x5 DUP2 ADD SLOAD SWAP3 SWAP7 SWAP5 SWAP4 PUSH1 0xFF SWAP4 PUSH2 0x26F2 SWAP1 DUP6 AND PUSH2 0x3D6A JUMP JUMPDEST PUSH2 0x26FD DUP8 DUP7 LT PUSH2 0x3F62 JUMP JUMPDEST PUSH2 0x2708 TIMESTAMP DUP7 GT PUSH2 0x3FA3 JUMP JUMPDEST PUSH1 0x6 DUP3 ADD DUP7 DUP7 JUMPDEST DUP10 DUP2 LT PUSH2 0x281F JUMPI POP PUSH2 0x2720 DUP2 PUSH2 0x3FEF JUMP JUMPDEST SWAP9 DUP9 SWAP8 DUP12 JUMPDEST PUSH2 0x2738 JUMPI JUMPDEST PUSH1 0x40 MLOAD DUP1 PUSH2 0x2E7 DUP14 DUP3 PUSH2 0x3ADE JUMP JUMPDEST DUP2 DUP2 LT DUP1 PUSH2 0x2816 JUMPI JUMPDEST ISZERO PUSH2 0x2811 JUMPI DUP8 PUSH2 0x2759 PUSH2 0x2753 DUP4 PUSH2 0x3E2A JUMP JUMPDEST DUP7 PUSH2 0x3E4B JUMP JUMPDEST SLOAD AND PUSH2 0x2786 JUMPI JUMPDEST PUSH2 0xE10 DUP2 ADD DUP1 SWAP2 GT PUSH2 0x2772 JUMPI DUP12 PUSH2 0x2725 JUMP JUMPDEST PUSH4 0x4E487B71 PUSH1 0xE0 SHL DUP11 MSTORE PUSH1 0x11 PUSH1 0x4 MSTORE PUSH1 0x24 DUP11 REVERT JUMPDEST DUP8 PUSH1 0x18 PUSH2 0xE10 DUP4 DIV MOD AND PUSH1 0x0 MSTORE PUSH1 0x7 DUP1 DUP8 ADD DUP9 MSTORE DUP8 PUSH1 0x40 PUSH1 0x0 KECCAK256 PUSH1 0x40 MLOAD SWAP1 PUSH2 0x27AD DUP3 PUSH2 0x39A7 JUMP JUMPDEST SLOAD SWAP1 DUP12 DUP1 DUP4 AND SWAP3 DUP4 DUP4 MSTORE PUSH1 0x8 SHR AND SWAP3 DUP4 SWAP2 ADD MSTORE ISZERO SWAP1 DUP2 ISZERO SWAP2 PUSH2 0x2807 JUMPI JUMPDEST POP PUSH2 0x27D6 JUMPI JUMPDEST POP PUSH2 0x2760 JUMP JUMPDEST DUP6 DUP12 MSTORE DUP8 MSTORE PUSH1 0x40 DUP11 KECCAK256 DUP2 DUP12 MSTORE DUP8 MSTORE DUP11 DUP9 PUSH1 0x40 DUP13 KECCAK256 SLOAD AND PUSH2 0x27D0 JUMPI SWAP9 DUP2 PUSH2 0xAF9 DUP3 PUSH2 0x2800 SWAP5 SWAP13 PUSH2 0x4021 JUMP JUMPDEST SWAP8 DUP11 PUSH2 0x27D0 JUMP JUMPDEST SWAP1 POP ISZERO ISZERO CODESIZE PUSH2 0x27CA JUMP JUMPDEST PUSH2 0x272A JUMP JUMPDEST POP DUP3 DUP10 LT PUSH2 0x2741 JUMP JUMPDEST DUP7 PUSH2 0x2832 PUSH2 0x282C DUP4 PUSH2 0x3E2A JUMP JUMPDEST DUP6 PUSH2 0x3E4B JUMP JUMPDEST SLOAD AND PUSH2 0x285A JUMPI JUMPDEST PUSH2 0xE10 DUP2 ADD DUP1 SWAP2 GT ISZERO PUSH2 0x270F JUMPI PUSH4 0x4E487B71 PUSH1 0xE0 SHL DUP10 MSTORE PUSH1 0x11 PUSH1 0x4 MSTORE PUSH1 0x24 DUP10 REVERT JUMPDEST DUP7 PUSH1 0x18 PUSH2 0xE10 DUP4 DIV MOD AND PUSH1 0x0 MSTORE PUSH1 0x7 DUP1 DUP7 ADD DUP8 MSTORE DUP7 PUSH1 0x40 PUSH1 0x0 KECCAK256 PUSH1 0x40 MLOAD SWAP1 PUSH2 0x2881 DUP3 PUSH2 0x39A7 JUMP JUMPDEST SLOAD SWAP1 DUP11 DUP1 DUP4 AND SWAP3 DUP4 DUP4 MSTORE PUSH1 0x8 SHR AND SWAP3 DUP4 SWAP2 ADD MSTORE ISZERO SWAP1 DUP2 ISZERO SWAP2 PUSH2 0x28DB JUMPI JUMPDEST POP PUSH2 0x28AA JUMPI JUMPDEST POP PUSH2 0x2839 JUMP JUMPDEST DUP5 DUP11 MSTORE DUP7 MSTORE PUSH1 0x40 DUP10 KECCAK256 DUP2 DUP11 MSTORE DUP7 MSTORE DUP7 PUSH1 0x40 DUP11 KECCAK256 SLOAD AND ISZERO PUSH2 0x28CB JUMPI JUMPDEST CODESIZE PUSH2 0x28A4 JUMP JUMPDEST SWAP1 PUSH2 0x28D5 SWAP1 PUSH2 0x3DF8 JUMP JUMPDEST SWAP1 PUSH2 0x28C5 JUMP JUMPDEST SWAP1 POP ISZERO ISZERO CODESIZE PUSH2 0x289E JUMP JUMPDEST POP CALLVALUE PUSH2 0x20C JUMPI PUSH1 0x40 CALLDATASIZE PUSH1 0x3 NOT ADD SLT PUSH2 0x20C JUMPI PUSH1 0xFF PUSH1 0x7 PUSH1 0x40 PUSH2 0x2905 PUSH2 0x381B JUMP JUMPDEST SWAP4 PUSH2 0x290E PUSH2 0x3A86 JUMP JUMPDEST SWAP5 PUSH1 0x0 PUSH1 0x20 DUP5 MLOAD PUSH2 0x291E DUP2 PUSH2 0x39A7 JUMP JUMPDEST DUP3 DUP2 MSTORE ADD MSTORE PUSH1 0x1 DUP1 PUSH1 0xA0 SHL SUB AND DUP2 MSTORE PUSH1 0x1 PUSH1 0x20 MSTORE KECCAK256 ADD SWAP2 AND PUSH1 0x0 MSTORE PUSH1 0x20 MSTORE PUSH1 0x40 DUP1 PUSH1 0x0 KECCAK256 PUSH1 0xFF DUP3 MLOAD SWAP2 PUSH2 0x2950 DUP4 PUSH2 0x39A7 JUMP JUMPDEST SLOAD DUP2 DUP2 AND DUP4 MSTORE PUSH1 0x8 SHR AND PUSH1 0x20 DUP3 ADD MSTORE PUSH2 0x297A DUP3 MLOAD DUP1 SWAP3 PUSH1 0xFF PUSH1 0x20 DUP1 SWAP3 DUP3 DUP2 MLOAD AND DUP6 MSTORE ADD MLOAD AND SWAP2 ADD MSTORE JUMP JUMPDEST RETURN JUMPDEST POP CALLVALUE PUSH2 0x20C JUMPI PUSH1 0x20 SWAP1 DUP2 PUSH1 0x3 NOT CALLDATASIZE ADD SLT PUSH2 0x20C JUMPI SWAP1 PUSH1 0x4 CALLDATALOAD SWAP2 DUP3 DUP2 MSTORE PUSH1 0x2 SWAP1 DUP2 DUP4 MSTORE PUSH1 0xFF SWAP4 PUSH2 0x29B3 DUP6 PUSH1 0x4 PUSH1 0x40 DUP6 KECCAK256 ADD SLOAD AND PUSH2 0x4AB6 JUMP JUMPDEST DUP2 MSTORE PUSH1 0x8 DUP4 MSTORE PUSH1 0x40 DUP2 KECCAK256 SWAP2 DUP3 SLOAD PUSH2 0x29C9 DUP2 PUSH2 0x3C02 JUMP JUMPDEST SWAP2 PUSH2 0x29D7 PUSH1 0x40 MLOAD SWAP4 DUP5 PUSH2 0x39F9 JUMP JUMPDEST DUP2 DUP4 MSTORE DUP6 DUP4 ADD SWAP1 DUP2 SWAP6 DUP6 MSTORE DUP7 DUP6 KECCAK256 SWAP1 DUP6 SWAP3 JUMPDEST DUP5 DUP5 LT PUSH2 0x2A95 JUMPI POP POP POP POP POP PUSH1 0x40 MLOAD SWAP4 DUP1 DUP6 ADD SWAP2 DUP2 DUP7 MSTORE MLOAD DUP1 SWAP3 MSTORE PUSH1 0x40 DUP6 ADD PUSH1 0x40 DUP4 PUSH1 0x5 SHL DUP8 ADD ADD SWAP5 SWAP4 SWAP7 JUMPDEST DUP4 DUP9 LT PUSH2 0x2A22 JUMPI DUP7 DUP7 SUB DUP8 RETURN JUMPDEST SWAP1 SWAP2 SWAP3 SWAP4 SWAP5 DUP4 DUP1 PUSH1 0x1 SWAP3 PUSH1 0x3F NOT DUP11 DUP3 SUB ADD DUP7 MSTORE DUP9 MLOAD SWAP1 DUP2 MLOAD DUP2 MSTORE DUP3 DUP3 ADD MLOAD DUP4 DUP3 ADD MSTORE DUP5 DUP1 PUSH1 0xA0 SHL SUB PUSH1 0x40 DUP4 ADD MLOAD AND PUSH1 0x40 DUP3 ADD MSTORE PUSH2 0x2A6E PUSH1 0x60 DUP1 DUP5 ADD MLOAD SWAP1 PUSH1 0xC0 DUP1 SWAP2 DUP6 ADD MSTORE DUP4 ADD SWAP1 PUSH2 0x384C JUMP JUMPDEST SWAP2 PUSH1 0x80 DUP1 DUP3 ADD MLOAD SWAP1 DUP4 ADD MSTORE DUP7 PUSH1 0xA0 DUP1 SWAP3 ADD MLOAD AND SWAP2 ADD MSTORE SWAP8 ADD SWAP4 ADD SWAP8 ADD SWAP7 SWAP1 SWAP4 SWAP3 SWAP2 SWAP4 PUSH2 0x2A15 JUMP JUMPDEST PUSH1 0x6 DUP10 PUSH1 0x1 SWAP3 PUSH1 0x40 SWAP12 SWAP9 SWAP10 SWAP12 MLOAD PUSH2 0x2AAB DUP2 PUSH2 0x3976 JUMP JUMPDEST DUP7 SLOAD DUP2 MSTORE DUP5 DUP8 ADD SLOAD DUP4 DUP3 ADD MSTORE DUP5 DUP1 PUSH1 0xA0 SHL SUB DUP7 DUP9 ADD SLOAD AND PUSH1 0x40 DUP3 ADD MSTORE PUSH2 0x2AD3 PUSH1 0x3 DUP9 ADD PUSH2 0x3CC4 JUMP JUMPDEST PUSH1 0x60 DUP3 ADD MSTORE PUSH1 0x4 DUP8 ADD SLOAD PUSH1 0x80 DUP3 ADD MSTORE DUP14 PUSH1 0x5 DUP9 ADD SLOAD AND PUSH1 0xA0 DUP3 ADD MSTORE DUP2 MSTORE ADD SWAP4 ADD SWAP4 ADD SWAP3 SWAP2 SWAP8 SWAP6 SWAP5 SWAP8 PUSH2 0x29E9 JUMP JUMPDEST POP CALLVALUE PUSH2 0x20C JUMPI PUSH1 0x20 CALLDATASIZE PUSH1 0x3 NOT ADD SLT PUSH2 0x20C JUMPI PUSH1 0x20 PUSH2 0x2B1F PUSH1 0x4 CALLDATALOAD PUSH2 0x3E2A JUMP JUMPDEST PUSH2 0x297A PUSH1 0x40 MLOAD DUP1 SWAP3 PUSH2 0x388C JUMP JUMPDEST POP CALLVALUE PUSH2 0x20C JUMPI PUSH2 0x2B3B CALLDATASIZE PUSH2 0x3A70 JUMP JUMPDEST SWAP1 DUP1 DUP4 MSTORE PUSH1 0x2 PUSH1 0x20 MSTORE PUSH1 0x40 DUP4 KECCAK256 PUSH1 0xFF PUSH1 0x4 PUSH1 0x40 MLOAD SWAP3 PUSH2 0x2B59 DUP5 PUSH2 0x3976 JUMP JUMPDEST DUP1 SLOAD DUP5 MSTORE PUSH1 0x1 DUP2 ADD SLOAD PUSH1 0x1 PUSH1 0x1 PUSH1 0xA0 SHL SUB AND PUSH1 0x20 DUP6 ADD MSTORE PUSH2 0x2B7C PUSH1 0x2 DUP3 ADD PUSH2 0x3CC4 JUMP JUMPDEST PUSH1 0x40 DUP6 ADD MSTORE PUSH2 0x2B8D PUSH1 0x3 DUP3 ADD PUSH2 0x3CC4 JUMP JUMPDEST PUSH1 0x60 DUP6 ADD MSTORE ADD SLOAD DUP2 DUP2 AND ISZERO ISZERO PUSH1 0x80 DUP5 ADD MSTORE PUSH1 0x8 SHR AND PUSH1 0xA0 DUP3 ADD MSTORE PUSH1 0x1 DUP1 PUSH1 0xA0 SHL SUB PUSH1 0x20 DUP3 ADD MLOAD AND DUP5 MSTORE PUSH1 0x1 PUSH1 0x20 MSTORE PUSH1 0x40 DUP5 KECCAK256 PUSH1 0xFF PUSH1 0xA0 DUP4 ADD MLOAD AND DUP1 DUP1 DIV PUSH1 0x1 EQ DUP2 ISZERO OR ISZERO PUSH2 0xEF0 JUMPI DUP1 PUSH8 0xDE0B6B3A7640000 DUP2 MUL DIV PUSH8 0xDE0B6B3A7640000 EQ DUP2 ISZERO OR ISZERO PUSH2 0xEF0 JUMPI PUSH1 0x80 DUP4 ADD MLOAD ISZERO PUSH2 0x310A JUMPI PUSH1 0x20 DUP4 ADD MLOAD PUSH1 0x1 PUSH1 0x1 PUSH1 0xA0 SHL SUB AND CALLER EQ PUSH2 0x30C5 JUMPI DUP6 SLOAD PUSH1 0x40 MLOAD PUSH4 0x70A08231 PUSH1 0xE0 SHL DUP2 MSTORE CALLER PUSH1 0x4 DUP3 ADD MSTORE PUSH1 0x1 PUSH1 0x1 PUSH1 0xA0 SHL SUB SWAP1 SWAP2 AND SWAP3 SWAP1 PUSH1 0x20 DUP2 PUSH1 0x24 DUP2 DUP8 GAS STATICCALL SWAP1 DUP2 ISZERO PUSH2 0x30BA JUMPI DUP9 SWAP2 PUSH2 0x3088 JUMPI JUMPDEST POP PUSH8 0xDE0B6B3A7640000 DUP4 MUL GT PUSH2 0x304A JUMPI TIMESTAMP DUP7 GT ISZERO PUSH2 0x3006 JUMPI PUSH1 0xFF PUSH2 0x2C7B PUSH2 0x2C72 DUP9 PUSH2 0x3E2A JUMP JUMPDEST PUSH1 0x6 DUP5 ADD PUSH2 0x3E4B JUMP JUMPDEST SLOAD AND ISZERO PUSH2 0x2FC1 JUMPI PUSH1 0x8 DUP2 ADD SLOAD DUP8 SWAP2 DUP3 JUMPDEST DUP3 DUP2 LT PUSH2 0x2EF6 JUMPI JUMPDEST POP POP POP ISZERO PUSH2 0x2EA6 JUMPI PUSH1 0x20 DUP4 DUP2 ADD MLOAD PUSH1 0x1 PUSH1 0x1 PUSH1 0xA0 SHL SUB AND DUP8 MSTORE PUSH1 0x7 DUP2 MSTORE PUSH1 0x40 DUP1 DUP9 KECCAK256 DUP8 DUP10 MSTORE SWAP1 SWAP2 MSTORE DUP7 KECCAK256 SLOAD PUSH1 0xFF AND PUSH2 0x2E66 JUMPI PUSH8 0xDE0B6B3A7640000 PUSH1 0x64 PUSH1 0x20 SWAP3 DUP9 PUSH1 0x40 MLOAD SWAP6 DUP7 SWAP5 DUP6 SWAP4 PUSH4 0x23B872DD PUSH1 0xE0 SHL DUP6 MSTORE CALLER PUSH1 0x4 DUP7 ADD MSTORE ADDRESS PUSH1 0x24 DUP7 ADD MSTORE MUL PUSH1 0x44 DUP5 ADD MSTORE GAS CALL DUP1 ISZERO PUSH2 0xDCF JUMPI PUSH2 0x2D10 SWAP2 DUP7 SWAP2 PUSH2 0x2E4D JUMPI POP PUSH2 0x3E9B JUMP JUMPDEST PUSH1 0x20 SWAP1 DUP2 ADD MLOAD PUSH1 0x1 PUSH1 0x1 PUSH1 0xA0 SHL SUB AND DUP5 MSTORE PUSH1 0x7 DUP2 MSTORE PUSH1 0x40 DUP1 DUP6 KECCAK256 DUP5 DUP7 MSTORE SWAP1 SWAP2 MSTORE DUP1 DUP5 KECCAK256 DUP1 SLOAD PUSH1 0xFF NOT AND PUSH1 0x1 OR SWAP1 SSTORE MLOAD PUSH2 0x2D48 DUP2 PUSH2 0x39C2 JUMP JUMPDEST DUP2 DUP2 MSTORE CALLER PUSH1 0x20 DUP3 ADD MSTORE DUP4 PUSH1 0x40 DUP3 ADD MSTORE DUP4 PUSH1 0x60 DUP3 ADD MSTORE DUP4 PUSH1 0x80 DUP3 ADD MSTORE TIMESTAMP PUSH1 0xA0 DUP3 ADD MSTORE DUP3 PUSH1 0xC0 DUP3 ADD MSTORE DUP4 PUSH1 0xE0 DUP3 ADD MSTORE DUP2 DUP5 MSTORE PUSH1 0x4 PUSH1 0x20 MSTORE PUSH1 0xE0 PUSH1 0x4 PUSH1 0x40 DUP7 KECCAK256 DUP4 MLOAD DUP2 SSTORE PUSH1 0x1 DUP2 ADD PUSH1 0x1 DUP1 PUSH1 0xA0 SHL SUB PUSH1 0x20 DUP7 ADD MLOAD AND DUP2 SLOAD SWAP1 PUSH1 0xFF PUSH1 0xA0 SHL PUSH1 0x40 DUP9 ADD MLOAD ISZERO ISZERO PUSH1 0xA0 SHL AND PUSH1 0xFF PUSH1 0xA8 SHL PUSH1 0x60 DUP10 ADD MLOAD ISZERO ISZERO PUSH1 0xA8 SHL AND SWAP2 PUSH1 0xFF PUSH1 0xB0 SHL PUSH1 0x80 DUP11 ADD MLOAD ISZERO ISZERO PUSH1 0xB0 SHL AND SWAP4 PUSH9 0xFFFFFFFFFFFFFFFFFF PUSH1 0xB8 SHL AND OR OR OR OR SWAP1 SSTORE PUSH1 0xA0 DUP5 ADD MLOAD PUSH1 0x2 DUP3 ADD SSTORE PUSH1 0xC0 DUP5 ADD MLOAD PUSH1 0x3 DUP3 ADD SSTORE ADD SWAP2 ADD MLOAD ISZERO ISZERO PUSH1 0xFF DUP1 NOT DUP4 SLOAD AND SWAP2 AND OR SWAP1 SSTORE CALLER DUP4 MSTORE PUSH1 0x6 PUSH1 0x20 MSTORE PUSH2 0x2E1E DUP2 PUSH1 0x40 DUP6 KECCAK256 PUSH2 0x3DC3 JUMP JUMPDEST PUSH1 0x40 MLOAD SWAP2 DUP3 MSTORE PUSH32 0x4EDF016340498079FAC90607146E71517DE477A412E60D4D20F98DB4978B8AE2 PUSH1 0x20 CALLER SWAP4 LOG3 DUP1 RETURN JUMPDEST PUSH2 0xDC2 SWAP2 POP PUSH1 0x20 RETURNDATASIZE PUSH1 0x20 GT PUSH2 0xDC8 JUMPI PUSH2 0xDBA DUP2 DUP4 PUSH2 0x39F9 JUMP JUMPDEST PUSH1 0x40 MLOAD PUSH3 0x461BCD PUSH1 0xE5 SHL DUP2 MSTORE PUSH1 0x20 PUSH1 0x4 DUP3 ADD MSTORE PUSH1 0x18 PUSH1 0x24 DUP3 ADD MSTORE PUSH24 0x151A5B59481CDB1BDD08185B1C9958591E48189BDBDAD959 PUSH1 0x42 SHL PUSH1 0x44 DUP3 ADD MSTORE PUSH1 0x64 SWAP1 REVERT JUMPDEST PUSH1 0x40 MLOAD PUSH3 0x461BCD PUSH1 0xE5 SHL DUP2 MSTORE PUSH1 0x20 PUSH1 0x4 DUP3 ADD MSTORE PUSH1 0x22 PUSH1 0x24 DUP3 ADD MSTORE PUSH32 0x54696D6520736C6F74206E6F7420617661696C61626C65206F7220696E76616C PUSH1 0x44 DUP3 ADD MSTORE PUSH2 0x1A59 PUSH1 0xF2 SHL PUSH1 0x64 DUP3 ADD MSTORE PUSH1 0x84 SWAP1 REVERT JUMPDEST PUSH1 0xFF PUSH2 0x2F05 DUP3 PUSH1 0x8 DUP6 ADD PUSH2 0x3E63 JUMP JUMPDEST SWAP1 SLOAD SWAP1 PUSH1 0x3 SHL SHR AND PUSH1 0x0 MSTORE PUSH1 0x7 DUP3 ADD PUSH1 0x20 MSTORE PUSH1 0x40 PUSH1 0x0 KECCAK256 DUP10 PUSH1 0x40 MLOAD SWAP2 PUSH2 0x2F2A DUP4 PUSH2 0x39A7 JUMP JUMPDEST SLOAD PUSH1 0xFF PUSH1 0x18 PUSH2 0xE10 PUSH1 0x20 DUP4 DUP1 DUP7 AND SWAP6 DUP7 DUP10 MSTORE PUSH1 0x8 SHR AND SWAP7 ADD SWAP5 DUP7 DUP7 MSTORE DIV MOD AND SWAP1 DUP2 LT ISZERO SWAP3 DUP4 PUSH2 0x2FB7 JUMPI JUMPDEST POP DUP3 PUSH2 0x2F7D JUMPI JUMPDEST POP POP PUSH2 0x2F6F JUMPI PUSH2 0x2F6A SWAP1 PUSH2 0x3DF8 JUMP JUMPDEST PUSH2 0x2C8B JUMP JUMPDEST POP POP POP POP PUSH1 0x1 CODESIZE DUP1 DUP1 PUSH2 0x2C93 JUMP JUMPDEST SWAP1 SWAP2 POP PUSH1 0xFF PUSH1 0xA0 DUP11 ADD MLOAD AND ADD SWAP1 PUSH1 0xFF DUP3 GT PUSH2 0x2FA3 JUMPI PUSH1 0xFF DUP1 SWAP2 MLOAD AND SWAP2 AND GT ISZERO CODESIZE DUP1 PUSH2 0x2F5B JUMP JUMPDEST PUSH4 0x4E487B71 PUSH1 0xE0 SHL DUP13 MSTORE PUSH1 0x11 PUSH1 0x4 MSTORE PUSH1 0x24 DUP13 REVERT JUMPDEST DUP2 LT SWAP3 POP CODESIZE PUSH2 0x2F54 JUMP JUMPDEST PUSH1 0x40 MLOAD PUSH3 0x461BCD PUSH1 0xE5 SHL DUP2 MSTORE PUSH1 0x20 PUSH1 0x4 DUP3 ADD MSTORE PUSH1 0x1C PUSH1 0x24 DUP3 ADD MSTORE PUSH32 0x446179206E6F7420617661696C61626C6520666F722073656C6C657200000000 PUSH1 0x44 DUP3 ADD MSTORE PUSH1 0x64 SWAP1 REVERT JUMPDEST PUSH1 0x64 PUSH1 0x40 MLOAD PUSH3 0x461BCD PUSH1 0xE5 SHL DUP2 MSTORE PUSH1 0x20 PUSH1 0x4 DUP3 ADD MSTORE PUSH1 0x20 PUSH1 0x24 DUP3 ADD MSTORE PUSH32 0x5363686564756C65642074696D65206D75737420626520696E20667574757265 PUSH1 0x44 DUP3 ADD MSTORE REVERT JUMPDEST PUSH1 0x40 MLOAD PUSH3 0x461BCD PUSH1 0xE5 SHL DUP2 MSTORE PUSH1 0x20 PUSH1 0x4 DUP3 ADD MSTORE PUSH1 0x16 PUSH1 0x24 DUP3 ADD MSTORE PUSH22 0x4E6F7420656E6F7567682054494D4520746F6B656E73 PUSH1 0x50 SHL PUSH1 0x44 DUP3 ADD MSTORE PUSH1 0x64 SWAP1 REVERT JUMPDEST SWAP1 POP PUSH1 0x20 DUP2 RETURNDATASIZE PUSH1 0x20 GT PUSH2 0x30B2 JUMPI JUMPDEST DUP2 PUSH2 0x30A3 PUSH1 0x20 SWAP4 DUP4 PUSH2 0x39F9 JUMP JUMPDEST DUP2 ADD SUB SLT PUSH2 0x24D6 JUMPI MLOAD CODESIZE PUSH2 0x2C4B JUMP JUMPDEST RETURNDATASIZE SWAP2 POP PUSH2 0x3096 JUMP JUMPDEST PUSH1 0x40 MLOAD RETURNDATASIZE DUP11 DUP3 RETURNDATACOPY RETURNDATASIZE SWAP1 REVERT JUMPDEST PUSH1 0x40 MLOAD PUSH3 0x461BCD PUSH1 0xE5 SHL DUP2 MSTORE PUSH1 0x20 PUSH1 0x4 DUP3 ADD MSTORE PUSH1 0x1B PUSH1 0x24 DUP3 ADD MSTORE PUSH32 0x43616E6E6F742062757920796F7572206F776E20736572766963650000000000 PUSH1 0x44 DUP3 ADD MSTORE PUSH1 0x64 SWAP1 REVERT JUMPDEST PUSH1 0x40 MLOAD PUSH3 0x461BCD PUSH1 0xE5 SHL DUP2 MSTORE PUSH1 0x20 PUSH1 0x4 DUP3 ADD MSTORE PUSH1 0x10 PUSH1 0x24 DUP3 ADD MSTORE PUSH16 0x5365727669636520696E616374697665 PUSH1 0x80 SHL PUSH1 0x44 DUP3 ADD MSTORE PUSH1 0x64 SWAP1 REVERT JUMPDEST POP CALLVALUE PUSH2 0x20C JUMPI PUSH1 0x40 CALLDATASIZE PUSH1 0x3 NOT ADD SLT PUSH2 0x20C JUMPI PUSH1 0x1 PUSH1 0x1 PUSH1 0x40 SHL SUB SWAP1 PUSH1 0x4 CALLDATALOAD DUP3 DUP2 GT PUSH2 0x3A0 JUMPI PUSH2 0x3175 SWAP1 CALLDATASIZE SWAP1 PUSH1 0x4 ADD PUSH2 0x3A1A JUMP JUMPDEST SWAP2 PUSH1 0x24 SWAP1 DUP2 CALLDATALOAD DUP2 DUP2 GT PUSH2 0x1E3D JUMPI PUSH2 0x3190 SWAP1 CALLDATASIZE SWAP1 PUSH1 0x4 ADD PUSH2 0x3A1A JUMP JUMPDEST SWAP4 CALLER DUP5 MSTORE PUSH1 0x1 SWAP1 PUSH1 0x20 DUP3 DUP2 MSTORE PUSH1 0x5 SWAP2 PUSH1 0xFF DUP4 PUSH1 0x40 DUP10 KECCAK256 ADD SLOAD AND PUSH2 0x346F JUMPI CALLER DUP8 MSTORE DUP4 DUP3 MSTORE PUSH1 0x40 DUP8 KECCAK256 SWAP2 CALLER PUSH12 0xFFFFFFFFFFFFFFFFFFFFFFFF PUSH1 0xA0 SHL DUP5 SLOAD AND OR DUP4 SSTORE DUP5 DUP4 ADD DUP3 MLOAD DUP8 DUP2 GT PUSH2 0x33BE JUMPI DUP1 PUSH2 0x31E6 DUP4 SLOAD PUSH2 0x3C8A JUMP JUMPDEST SWAP5 DUP12 PUSH1 0x1F SWAP7 DUP7 DUP9 DUP3 GT PUSH2 0x343B JUMPI JUMPDEST POP POP POP DUP5 SWAP1 DUP7 DUP4 GT PUSH1 0x1 EQ PUSH2 0x33DC JUMPI DUP13 SWAP3 PUSH2 0x33D1 JUMPI JUMPDEST POP POP PUSH1 0x0 NOT PUSH1 0x3 DUP4 SWAP1 SHL SHR NOT AND SWAP1 DUP8 SHL OR SWAP1 SSTORE JUMPDEST PUSH1 0x2 DUP4 ADD SWAP2 DUP10 MLOAD SWAP2 DUP8 DUP4 GT PUSH2 0x33BE JUMPI PUSH2 0x3237 DUP5 SLOAD PUSH2 0x3C8A JUMP JUMPDEST DUP3 DUP2 GT PUSH2 0x338A JUMPI JUMPDEST POP DUP1 SWAP2 DUP4 GT PUSH1 0x1 EQ PUSH2 0x3325 JUMPI POP DUP2 SWAP1 DUP10 SWAP11 DUP11 SWAP3 PUSH2 0x331A JUMPI JUMPDEST POP POP PUSH1 0x0 NOT PUSH1 0x3 DUP4 SWAP1 SHL SHR NOT AND SWAP1 DUP6 SHL OR SWAP1 SSTORE JUMPDEST PUSH1 0x3 DUP2 ADD DUP7 SWAP1 SSTORE PUSH1 0x4 DUP2 ADD DUP7 SWAP1 SSTORE ADD DUP1 SLOAD PUSH1 0xFF NOT AND SWAP1 SWAP2 OR SWAP1 SSTORE DUP3 SLOAD PUSH1 0x1 PUSH1 0x1 PUSH1 0xA0 SHL SUB AND DUP1 EXTCODESIZE ISZERO PUSH2 0x3315 JUMPI DUP4 SWAP1 DUP4 PUSH1 0x40 MLOAD DUP1 SWAP7 DUP2 SWAP4 PUSH3 0x5E3339 PUSH1 0xE4 SHL DUP4 MSTORE CALLER PUSH1 0x4 DUP5 ADD MSTORE GAS CALL DUP1 ISZERO PUSH2 0x330A JUMPI PUSH2 0x32E6 JUMPI JUMPDEST DUP4 CALLER PUSH32 0x54DB7A5CB4735E1AAC1F53DB512D3390390BB6637BD30AD4BF9FC98667D9B9B9 DUP3 DUP1 LOG2 DUP1 RETURN JUMPDEST DUP3 GT PUSH2 0x32F8 JUMPI POP PUSH1 0x40 MSTORE CODESIZE DUP1 DUP1 PUSH2 0x32BD JUMP JUMPDEST PUSH4 0x4E487B71 PUSH1 0xE0 SHL DUP4 MSTORE PUSH1 0x41 PUSH1 0x4 MSTORE DUP3 REVERT JUMPDEST PUSH1 0x40 MLOAD RETURNDATASIZE DUP7 DUP3 RETURNDATACOPY RETURNDATASIZE SWAP1 REVERT JUMPDEST POP POP POP REVERT JUMPDEST ADD MLOAD SWAP1 POP CODESIZE DUP1 PUSH2 0x3257 JUMP JUMPDEST SWAP2 SWAP10 PUSH1 0x1F NOT DUP12 AND DUP5 DUP12 MSTORE DUP4 DUP12 KECCAK256 SWAP4 DUP12 SWAP1 JUMPDEST DUP3 DUP3 LT PUSH2 0x3373 JUMPI POP POP SWAP2 DUP8 SWAP4 SWAP2 DUP13 DUP13 SWAP14 SWAP5 LT PUSH2 0x335A JUMPI JUMPDEST POP POP POP DUP2 SHL ADD SWAP1 SSTORE PUSH2 0x326B JUMP JUMPDEST ADD MLOAD PUSH1 0x0 NOT PUSH1 0xF8 DUP5 PUSH1 0x3 SHL AND SHR NOT AND SWAP1 SSTORE CODESIZE DUP1 DUP1 PUSH2 0x334D JUMP JUMPDEST DUP1 DUP11 DUP7 SWAP8 DUP3 SWAP5 SWAP8 DUP8 ADD MLOAD DUP2 SSTORE ADD SWAP7 ADD SWAP5 ADD SWAP1 PUSH2 0x3336 JUMP JUMPDEST PUSH2 0x33AF SWAP1 DUP6 DUP13 MSTORE DUP3 DUP13 KECCAK256 DUP5 DUP1 DUP8 ADD DUP11 SHR DUP3 ADD SWAP3 DUP6 DUP9 LT PUSH2 0x33B5 JUMPI JUMPDEST ADD DUP10 SHR ADD SWAP1 PUSH2 0x3DAC JUMP JUMPDEST CODESIZE PUSH2 0x323F JUMP JUMPDEST SWAP3 POP DUP2 SWAP3 PUSH2 0x33A5 JUMP JUMPDEST PUSH4 0x4E487B71 PUSH1 0xE0 SHL DUP11 MSTORE PUSH1 0x41 PUSH1 0x4 MSTORE DUP9 DUP11 REVERT JUMPDEST ADD MLOAD SWAP1 POP CODESIZE DUP1 PUSH2 0x320A JUMP JUMPDEST DUP5 DUP14 MSTORE DUP6 DUP14 KECCAK256 DUP11 SWAP5 POP SWAP2 SWAP1 PUSH1 0x1F NOT DUP5 AND DUP15 JUMPDEST DUP9 DUP3 DUP3 LT PUSH2 0x3425 JUMPI POP POP DUP5 GT PUSH2 0x340C JUMPI JUMPDEST POP POP POP DUP2 SHL ADD SWAP1 SSTORE PUSH2 0x321E JUMP JUMPDEST ADD MLOAD PUSH1 0x0 NOT PUSH1 0xF8 DUP5 PUSH1 0x3 SHL AND SHR NOT AND SWAP1 SSTORE CODESIZE DUP1 DUP1 PUSH2 0x33FF JUMP JUMPDEST DUP4 DUP6 ADD MLOAD DUP7 SSTORE DUP14 SWAP8 SWAP1 SWAP6 ADD SWAP5 SWAP4 DUP5 ADD SWAP4 ADD PUSH2 0x33EE JUMP JUMPDEST DUP3 DUP8 PUSH2 0x345E SWAP5 MSTORE KECCAK256 DUP9 DUP1 DUP7 ADD DUP13 SHR DUP3 ADD SWAP3 DUP10 DUP8 LT PUSH2 0x3466 JUMPI JUMPDEST ADD DUP12 SHR ADD SWAP1 PUSH2 0x3DAC JUMP JUMPDEST DUP12 CODESIZE DUP7 PUSH2 0x31F4 JUMP JUMPDEST SWAP3 POP DUP2 SWAP3 PUSH2 0x3454 JUMP JUMPDEST PUSH1 0x40 MLOAD PUSH3 0x461BCD PUSH1 0xE5 SHL DUP2 MSTORE PUSH1 0x4 DUP2 ADD DUP4 SWAP1 MSTORE PUSH1 0x17 DUP2 DUP9 ADD MSTORE PUSH32 0x5573657220616C72656164792072656769737465726564000000000000000000 PUSH1 0x44 DUP3 ADD MSTORE PUSH1 0x64 SWAP1 REVERT JUMPDEST POP CALLVALUE PUSH2 0x20C JUMPI PUSH1 0x20 CALLDATASIZE PUSH1 0x3 NOT ADD SLT PUSH2 0x20C JUMPI PUSH1 0x40 PUSH1 0x20 SWAP2 PUSH1 0x4 CALLDATALOAD DUP2 MSTORE PUSH1 0x9 DUP4 MSTORE KECCAK256 SLOAD PUSH1 0x40 MLOAD SWAP1 DUP2 MSTORE RETURN JUMPDEST POP CALLVALUE PUSH2 0x20C JUMPI PUSH1 0x40 CALLDATASIZE PUSH1 0x3 NOT ADD SLT PUSH2 0x20C JUMPI PUSH1 0xFF PUSH1 0x40 PUSH1 0x20 SWAP3 PUSH2 0x34FE PUSH2 0x3836 JUMP JUMPDEST PUSH1 0x4 CALLDATALOAD DUP3 MSTORE PUSH1 0xA DUP6 MSTORE DUP3 DUP3 KECCAK256 PUSH1 0x1 PUSH1 0x1 PUSH1 0xA0 SHL SUB SWAP1 SWAP2 AND DUP3 MSTORE DUP5 MSTORE KECCAK256 SLOAD PUSH1 0x40 MLOAD SWAP2 AND ISZERO ISZERO DUP2 MSTORE RETURN JUMPDEST POP CALLVALUE PUSH2 0x20C JUMPI PUSH1 0x20 CALLDATASIZE PUSH1 0x3 NOT ADD SLT PUSH2 0x20C JUMPI PUSH1 0x1 PUSH1 0x1 PUSH1 0xA0 SHL SUB SWAP1 PUSH1 0x40 SWAP1 DUP3 PUSH2 0x354D PUSH2 0x381B JUMP JUMPDEST AND DUP2 MSTORE PUSH1 0x1 PUSH1 0x20 MSTORE KECCAK256 PUSH2 0x2E7 PUSH1 0xFF PUSH1 0x5 DUP4 ADD SLOAD AND SWAP3 PUSH2 0x356B DUP5 PUSH2 0x3D6A JUMP JUMPDEST DUP3 SLOAD AND SWAP2 PUSH2 0x3615 PUSH1 0x3 DUP3 ADD SLOAD SWAP5 PUSH2 0x3607 PUSH1 0x4 DUP5 ADD SLOAD SWAP7 PUSH2 0x358A DUP6 PUSH2 0x4035 JUMP JUMPDEST PUSH2 0x3593 DUP7 PUSH2 0x40FA JUMP JUMPDEST SWAP4 PUSH2 0x35A0 PUSH1 0x1 DUP9 ADD PUSH2 0x3CC4 JUMP JUMPDEST SWAP10 PUSH2 0x35E8 PUSH2 0x35BC PUSH1 0x8 PUSH2 0x35B5 PUSH1 0x2 DUP13 ADD PUSH2 0x3CC4 JUMP JUMPDEST SWAP11 ADD PUSH2 0x4403 JUMP JUMPDEST SWAP9 PUSH2 0x35DA PUSH1 0x40 MLOAD SWAP14 DUP15 SWAP14 DUP15 MSTORE DUP14 PUSH2 0x120 SWAP1 DUP2 PUSH1 0x20 DUP3 ADD MSTORE ADD SWAP1 PUSH2 0x384C JUMP JUMPDEST DUP13 DUP2 SUB PUSH1 0x40 DUP15 ADD MSTORE SWAP1 PUSH2 0x384C JUMP JUMPDEST SWAP4 PUSH1 0x60 DUP12 ADD MSTORE PUSH1 0x80 DUP11 ADD MSTORE ISZERO ISZERO PUSH1 0xA0 DUP10 ADD MSTORE DUP8 DUP3 SUB PUSH1 0xC0 DUP10 ADD MSTORE PUSH2 0x38AF JUMP JUMPDEST SWAP1 DUP6 DUP3 SUB PUSH1 0xE0 DUP8 ADD MSTORE PUSH2 0x38EF JUMP JUMPDEST SWAP1 DUP4 DUP3 SUB PUSH2 0x100 DUP6 ADD MSTORE PUSH2 0x393F JUMP JUMPDEST SWAP1 POP CALLVALUE PUSH2 0x3A0 JUMPI PUSH1 0x20 DUP1 PUSH1 0x3 NOT CALLDATASIZE ADD SLT PUSH2 0x638 JUMPI PUSH1 0x4 CALLDATALOAD DUP4 MSTORE PUSH1 0x4 DUP2 MSTORE PUSH1 0x40 DUP4 KECCAK256 SWAP2 PUSH1 0x2 DUP3 MSTORE PUSH1 0xFF PUSH1 0x4 PUSH1 0x40 DUP7 KECCAK256 ADD SLOAD PUSH1 0x8 SHR AND SWAP3 DUP4 ISZERO DUP5 DUP1 DIV PUSH1 0x1 EQ DUP2 OR ISZERO PUSH2 0xEF0 JUMPI PUSH8 0xDE0B6B3A7640000 DUP1 DUP7 MUL SWAP6 DUP7 DIV EQ OR ISZERO PUSH2 0xEDC JUMPI PUSH1 0x1 DUP2 ADD DUP1 SLOAD PUSH1 0x1 PUSH1 0x1 PUSH1 0xA0 SHL SUB SWAP4 SWAP2 SWAP3 SWAP1 SWAP2 DUP5 DUP4 AND CALLER SUB PUSH2 0x37D9 JUMPI POP PUSH1 0x4 PUSH1 0xFF SWAP2 PUSH2 0x36AF DUP4 DUP6 PUSH1 0xB0 SHR AND ISZERO PUSH2 0x3F22 JUMP JUMPDEST ADD SLOAD AND ISZERO PUSH2 0x3783 JUMPI PUSH1 0xFF PUSH1 0xB0 SHL NOT AND PUSH1 0x1 PUSH1 0xB0 SHL OR SWAP1 SSTORE DUP4 SLOAD PUSH1 0x40 MLOAD PUSH4 0xA9059CBB PUSH1 0xE0 SHL DUP2 MSTORE CALLER PUSH1 0x4 DUP3 ADD MSTORE PUSH1 0x24 DUP2 ADD DUP6 SWAP1 MSTORE SWAP3 SWAP2 DUP3 SWAP2 DUP5 SWAP2 AND DUP2 DUP8 DUP2 PUSH1 0x44 DUP2 ADD SUB SWAP3 GAS CALL SWAP2 DUP3 ISZERO PUSH2 0x330A JUMPI PUSH1 0x40 SWAP3 PUSH2 0x370E SWAP2 DUP7 SWAP2 PUSH2 0x376C JUMPI POP PUSH2 0x3E9B JUMP JUMPDEST DUP2 MLOAD SWAP3 DUP4 MSTORE DUP3 ADD MSTORE PUSH1 0x1C PUSH1 0x40 DUP3 ADD MSTORE PUSH32 0x526566756E6420666F722063616E63656C6C6564207365727669636500000000 PUSH1 0x60 DUP3 ADD MSTORE PUSH32 0x127B7B7EE9EEB9E7571D22EEFFACBAED4BF3A79E01AD801BD4637710CC3C0953 PUSH1 0x80 CALLER SWAP3 LOG2 DUP1 RETURN JUMPDEST PUSH2 0xDC2 SWAP2 POP DUP4 RETURNDATASIZE DUP6 GT PUSH2 0xDC8 JUMPI PUSH2 0xDBA DUP2 DUP4 PUSH2 0x39F9 JUMP JUMPDEST PUSH1 0x40 MLOAD PUSH3 0x461BCD PUSH1 0xE5 SHL DUP2 MSTORE PUSH1 0x4 DUP2 ADD DUP6 SWAP1 MSTORE PUSH1 0x28 PUSH1 0x24 DUP3 ADD MSTORE PUSH32 0x43616E206F6E6C7920776974686472617720666F722063616E63656C6C656420 PUSH1 0x44 DUP3 ADD MSTORE PUSH8 0x7365727669636573 PUSH1 0xC0 SHL PUSH1 0x64 DUP3 ADD MSTORE PUSH1 0x84 SWAP1 REVERT JUMPDEST PUSH3 0x461BCD PUSH1 0xE5 SHL DUP2 MSTORE PUSH1 0x4 DUP2 ADD DUP7 SWAP1 MSTORE PUSH1 0x17 PUSH1 0x24 DUP3 ADD MSTORE PUSH32 0x4F6E6C792062757965722063616E207769746864726177000000000000000000 PUSH1 0x44 DUP3 ADD MSTORE PUSH1 0x64 SWAP1 REVERT JUMPDEST PUSH1 0x4 CALLDATALOAD SWAP1 PUSH1 0x1 PUSH1 0x1 PUSH1 0xA0 SHL SUB DUP3 AND DUP3 SUB PUSH2 0x3831 JUMPI JUMP JUMPDEST PUSH1 0x0 DUP1 REVERT JUMPDEST PUSH1 0x24 CALLDATALOAD SWAP1 PUSH1 0x1 PUSH1 0x1 PUSH1 0xA0 SHL SUB DUP3 AND DUP3 SUB PUSH2 0x3831 JUMPI JUMP JUMPDEST SWAP2 SWAP1 DUP3 MLOAD SWAP3 DUP4 DUP3 MSTORE PUSH1 0x0 JUMPDEST DUP5 DUP2 LT PUSH2 0x3878 JUMPI POP POP DUP3 PUSH1 0x0 PUSH1 0x20 DUP1 SWAP5 SWAP6 DUP5 ADD ADD MSTORE PUSH1 0x1F DUP1 NOT SWAP2 ADD AND ADD ADD SWAP1 JUMP JUMPDEST PUSH1 0x20 DUP2 DUP4 ADD DUP2 ADD MLOAD DUP5 DUP4 ADD DUP3 ADD MSTORE ADD PUSH2 0x3857 JUMP JUMPDEST SWAP1 PUSH1 0x7 DUP3 LT ISZERO PUSH2 0x3899 JUMPI MSTORE JUMP JUMPDEST PUSH4 0x4E487B71 PUSH1 0xE0 SHL PUSH1 0x0 MSTORE PUSH1 0x21 PUSH1 0x4 MSTORE PUSH1 0x24 PUSH1 0x0 REVERT JUMPDEST SWAP1 DUP2 MLOAD DUP1 DUP3 MSTORE PUSH1 0x20 DUP1 DUP1 SWAP4 ADD SWAP4 ADD SWAP2 PUSH1 0x0 JUMPDEST DUP3 DUP2 LT PUSH2 0x38CF JUMPI POP POP POP POP SWAP1 JUMP JUMPDEST SWAP1 SWAP2 SWAP3 SWAP4 DUP3 DUP1 DUP3 PUSH2 0x38E3 PUSH1 0x1 SWAP5 DUP10 MLOAD PUSH2 0x388C JUMP JUMPDEST ADD SWAP6 ADD SWAP4 SWAP3 SWAP2 ADD PUSH2 0x38C1 JUMP JUMPDEST SWAP1 DUP2 MLOAD DUP1 DUP3 MSTORE PUSH1 0x20 DUP1 DUP1 SWAP4 ADD SWAP4 ADD SWAP2 PUSH1 0x0 JUMPDEST DUP3 DUP2 LT PUSH2 0x390F JUMPI POP POP POP POP SWAP1 JUMP JUMPDEST SWAP1 SWAP2 SWAP3 SWAP4 DUP3 PUSH1 0x40 DUP3 PUSH2 0x3933 PUSH1 0x1 SWAP5 DUP10 MLOAD PUSH1 0xFF PUSH1 0x20 DUP1 SWAP3 DUP3 DUP2 MLOAD AND DUP6 MSTORE ADD MLOAD AND SWAP2 ADD MSTORE JUMP JUMPDEST ADD SWAP6 ADD SWAP4 SWAP3 SWAP2 ADD PUSH2 0x3901 JUMP JUMPDEST SWAP1 DUP2 MLOAD DUP1 DUP3 MSTORE PUSH1 0x20 DUP1 DUP1 SWAP4 ADD SWAP4 ADD SWAP2 PUSH1 0x0 JUMPDEST DUP3 DUP2 LT PUSH2 0x395F JUMPI POP POP POP POP SWAP1 JUMP JUMPDEST DUP4 MLOAD PUSH1 0xFF AND DUP6 MSTORE SWAP4 DUP2 ADD SWAP4 SWAP3 DUP2 ADD SWAP3 PUSH1 0x1 ADD PUSH2 0x3951 JUMP JUMPDEST PUSH1 0xC0 DUP2 ADD SWAP1 DUP2 LT PUSH1 0x1 PUSH1 0x1 PUSH1 0x40 SHL SUB DUP3 GT OR PUSH2 0x3991 JUMPI PUSH1 0x40 MSTORE JUMP JUMPDEST PUSH4 0x4E487B71 PUSH1 0xE0 SHL PUSH1 0x0 MSTORE PUSH1 0x41 PUSH1 0x4 MSTORE PUSH1 0x24 PUSH1 0x0 REVERT JUMPDEST PUSH1 0x40 DUP2 ADD SWAP1 DUP2 LT PUSH1 0x1 PUSH1 0x1 PUSH1 0x40 SHL SUB DUP3 GT OR PUSH2 0x3991 JUMPI PUSH1 0x40 MSTORE JUMP JUMPDEST PUSH2 0x100 DUP2 ADD SWAP1 DUP2 LT PUSH1 0x1 PUSH1 0x1 PUSH1 0x40 SHL SUB DUP3 GT OR PUSH2 0x3991 JUMPI PUSH1 0x40 MSTORE JUMP JUMPDEST PUSH1 0x60 DUP2 ADD SWAP1 DUP2 LT PUSH1 0x1 PUSH1 0x1 PUSH1 0x40 SHL SUB DUP3 GT OR PUSH2 0x3991 JUMPI PUSH1 0x40 MSTORE JUMP JUMPDEST SWAP1 PUSH1 0x1F DUP1 NOT SWAP2 ADD AND DUP2 ADD SWAP1 DUP2 LT PUSH1 0x1 PUSH1 0x1 PUSH1 0x40 SHL SUB DUP3 GT OR PUSH2 0x3991 JUMPI PUSH1 0x40 MSTORE JUMP JUMPDEST DUP2 PUSH1 0x1F DUP3 ADD SLT ISZERO PUSH2 0x3831 JUMPI DUP1 CALLDATALOAD SWAP1 PUSH1 0x1 PUSH1 0x1 PUSH1 0x40 SHL SUB DUP3 GT PUSH2 0x3991 JUMPI PUSH1 0x40 MLOAD SWAP3 PUSH2 0x3A4E PUSH1 0x1F DUP5 ADD PUSH1 0x1F NOT AND PUSH1 0x20 ADD DUP6 PUSH2 0x39F9 JUMP JUMPDEST DUP3 DUP5 MSTORE PUSH1 0x20 DUP4 DUP4 ADD ADD GT PUSH2 0x3831 JUMPI DUP2 PUSH1 0x0 SWAP3 PUSH1 0x20 DUP1 SWAP4 ADD DUP4 DUP7 ADD CALLDATACOPY DUP4 ADD ADD MSTORE SWAP1 JUMP JUMPDEST PUSH1 0x40 SWAP1 PUSH1 0x3 NOT ADD SLT PUSH2 0x3831 JUMPI PUSH1 0x4 CALLDATALOAD SWAP1 PUSH1 0x24 CALLDATALOAD SWAP1 JUMP JUMPDEST PUSH1 0x24 CALLDATALOAD SWAP1 PUSH1 0xFF DUP3 AND DUP3 SUB PUSH2 0x3831 JUMPI JUMP JUMPDEST PUSH1 0x44 CALLDATALOAD SWAP1 PUSH1 0xFF DUP3 AND DUP3 SUB PUSH2 0x3831 JUMPI JUMP JUMPDEST CALLDATALOAD SWAP1 PUSH1 0xFF DUP3 AND DUP3 SUB PUSH2 0x3831 JUMPI JUMP JUMPDEST PUSH1 0x60 SWAP1 PUSH1 0x3 NOT ADD SLT PUSH2 0x3831 JUMPI PUSH1 0x4 CALLDATALOAD PUSH1 0x1 PUSH1 0x1 PUSH1 0xA0 SHL SUB DUP2 AND DUP2 SUB PUSH2 0x3831 JUMPI SWAP1 PUSH1 0x24 CALLDATALOAD SWAP1 PUSH1 0x44 CALLDATALOAD SWAP1 JUMP JUMPDEST PUSH1 0x20 SWAP1 DUP2 PUSH1 0x40 DUP2 DUP4 ADD SWAP3 DUP3 DUP2 MSTORE DUP6 MLOAD DUP1 SWAP5 MSTORE ADD SWAP4 ADD SWAP2 PUSH1 0x0 JUMPDEST DUP3 DUP2 LT PUSH2 0x3B05 JUMPI POP POP POP POP SWAP1 JUMP JUMPDEST DUP4 MLOAD DUP6 MSTORE SWAP4 DUP2 ADD SWAP4 SWAP3 DUP2 ADD SWAP3 PUSH1 0x1 ADD PUSH2 0x3AF7 JUMP JUMPDEST PUSH1 0xE0 DUP1 SWAP2 DUP1 MLOAD DUP5 MSTORE PUSH1 0x1 DUP1 PUSH1 0xA0 SHL SUB PUSH1 0x20 DUP3 ADD MLOAD AND PUSH1 0x20 DUP6 ADD MSTORE PUSH1 0x40 DUP2 ADD MLOAD ISZERO ISZERO PUSH1 0x40 DUP6 ADD MSTORE PUSH1 0x60 DUP2 ADD MLOAD ISZERO ISZERO PUSH1 0x60 DUP6 ADD MSTORE PUSH1 0x80 DUP2 ADD MLOAD ISZERO ISZERO PUSH1 0x80 DUP6 ADD MSTORE PUSH1 0xA0 DUP2 ADD MLOAD PUSH1 0xA0 DUP6 ADD MSTORE PUSH1 0xC0 DUP2 ADD MLOAD PUSH1 0xC0 DUP6 ADD MSTORE ADD MLOAD ISZERO ISZERO SWAP2 ADD MSTORE JUMP JUMPDEST SWAP1 DUP2 MLOAD DUP2 MSTORE PUSH1 0x1 DUP1 PUSH1 0xA0 SHL SUB PUSH1 0x20 DUP4 ADD MLOAD AND PUSH1 0x20 DUP3 ADD MSTORE PUSH1 0xA0 PUSH1 0xFF DUP2 PUSH2 0x3BBE PUSH2 0x3BAC PUSH1 0x40 DUP8 ADD MLOAD PUSH1 0xC0 PUSH1 0x40 DUP9 ADD MSTORE PUSH1 0xC0 DUP8 ADD SWAP1 PUSH2 0x384C JUMP JUMPDEST PUSH1 0x60 DUP8 ADD MLOAD DUP7 DUP3 SUB PUSH1 0x60 DUP9 ADD MSTORE PUSH2 0x384C JUMP JUMPDEST SWAP5 PUSH1 0x80 DUP2 ADD MLOAD ISZERO ISZERO PUSH1 0x80 DUP7 ADD MSTORE ADD MLOAD AND SWAP2 ADD MSTORE SWAP1 JUMP JUMPDEST DUP1 SLOAD DUP3 LT ISZERO PUSH2 0x3BEC JUMPI PUSH1 0x0 MSTORE PUSH1 0x20 PUSH1 0x0 KECCAK256 ADD SWAP1 PUSH1 0x0 SWAP1 JUMP JUMPDEST PUSH4 0x4E487B71 PUSH1 0xE0 SHL PUSH1 0x0 MSTORE PUSH1 0x32 PUSH1 0x4 MSTORE PUSH1 0x24 PUSH1 0x0 REVERT JUMPDEST PUSH1 0x1 PUSH1 0x1 PUSH1 0x40 SHL SUB DUP2 GT PUSH2 0x3991 JUMPI PUSH1 0x5 SHL PUSH1 0x20 ADD SWAP1 JUMP JUMPDEST SWAP1 DUP2 MLOAD DUP1 DUP3 MSTORE PUSH1 0x20 DUP1 SWAP3 ADD SWAP2 DUP3 DUP2 DUP4 PUSH1 0x5 SHL DUP6 ADD SWAP6 ADD SWAP4 PUSH1 0x0 SWAP2 JUMPDEST DUP5 DUP4 LT PUSH2 0x3C44 JUMPI POP POP POP POP POP POP SWAP1 JUMP JUMPDEST SWAP1 SWAP2 SWAP3 SWAP4 SWAP5 SWAP6 DUP5 DUP1 PUSH2 0x3C5E DUP4 DUP6 PUSH1 0x1 SWAP6 SUB DUP8 MSTORE DUP11 MLOAD PUSH2 0x3B74 JUMP JUMPDEST SWAP9 ADD SWAP4 ADD SWAP4 ADD SWAP2 SWAP5 SWAP4 SWAP3 SWAP1 PUSH2 0x3C34 JUMP JUMPDEST DUP1 SLOAD DUP3 LT ISZERO PUSH2 0x3BEC JUMPI PUSH1 0x0 MSTORE PUSH1 0x6 PUSH1 0x20 PUSH1 0x0 KECCAK256 SWAP2 MUL ADD SWAP1 PUSH1 0x0 SWAP1 JUMP JUMPDEST SWAP1 PUSH1 0x1 DUP3 DUP2 SHR SWAP3 AND DUP1 ISZERO PUSH2 0x3CBA JUMPI JUMPDEST PUSH1 0x20 DUP4 LT EQ PUSH2 0x3CA4 JUMPI JUMP JUMPDEST PUSH4 0x4E487B71 PUSH1 0xE0 SHL PUSH1 0x0 MSTORE PUSH1 0x22 PUSH1 0x4 MSTORE PUSH1 0x24 PUSH1 0x0 REVERT JUMPDEST SWAP2 PUSH1 0x7F AND SWAP2 PUSH2 0x3C99 JUMP JUMPDEST SWAP1 PUSH1 0x40 MLOAD SWAP2 DUP3 PUSH1 0x0 DUP3 SLOAD SWAP3 PUSH2 0x3CD8 DUP5 PUSH2 0x3C8A JUMP JUMPDEST SWAP1 DUP2 DUP5 MSTORE PUSH1 0x1 SWAP5 DUP6 DUP2 AND SWAP1 DUP2 PUSH1 0x0 EQ PUSH2 0x3D47 JUMPI POP PUSH1 0x1 EQ PUSH2 0x3D04 JUMPI JUMPDEST POP POP PUSH2 0x3D02 SWAP3 POP SUB DUP4 PUSH2 0x39F9 JUMP JUMPDEST JUMP JUMPDEST SWAP1 SWAP4 SWAP2 POP PUSH1 0x0 MSTORE PUSH1 0x20 SWAP1 DUP2 PUSH1 0x0 KECCAK256 SWAP4 PUSH1 0x0 SWAP2 JUMPDEST DUP2 DUP4 LT PUSH2 0x3D2F JUMPI POP POP PUSH2 0x3D02 SWAP4 POP DUP3 ADD ADD CODESIZE DUP1 PUSH2 0x3CF4 JUMP JUMPDEST DUP6 SLOAD DUP9 DUP5 ADD DUP6 ADD MSTORE SWAP5 DUP6 ADD SWAP5 DUP8 SWAP5 POP SWAP2 DUP4 ADD SWAP2 PUSH2 0x3D17 JUMP JUMPDEST SWAP2 POP POP PUSH2 0x3D02 SWAP5 POP PUSH1 0x20 SWAP3 POP PUSH1 0xFF NOT AND DUP3 DUP5 ADD MSTORE ISZERO ISZERO PUSH1 0x5 SHL DUP3 ADD ADD CODESIZE DUP1 PUSH2 0x3CF4 JUMP JUMPDEST ISZERO PUSH2 0x3D71 JUMPI JUMP JUMPDEST PUSH1 0x40 MLOAD PUSH3 0x461BCD PUSH1 0xE5 SHL DUP2 MSTORE PUSH1 0x20 PUSH1 0x4 DUP3 ADD MSTORE PUSH1 0x13 PUSH1 0x24 DUP3 ADD MSTORE PUSH19 0x155CD95C881B9BDD081C9959DA5CDD195C9959 PUSH1 0x6A SHL PUSH1 0x44 DUP3 ADD MSTORE PUSH1 0x64 SWAP1 REVERT JUMPDEST DUP2 DUP2 LT PUSH2 0x3DB7 JUMPI POP POP JUMP JUMPDEST PUSH1 0x0 DUP2 SSTORE PUSH1 0x1 ADD PUSH2 0x3DAC JUMP JUMPDEST DUP1 SLOAD PUSH1 0x1 PUSH1 0x40 SHL DUP2 LT ISZERO PUSH2 0x3991 JUMPI PUSH2 0x3DE0 SWAP2 PUSH1 0x1 DUP3 ADD DUP2 SSTORE PUSH2 0x3BD4 JUMP JUMPDEST DUP2 SWAP3 SWAP2 SLOAD SWAP1 PUSH1 0x3 SHL SWAP2 DUP3 SHL SWAP2 PUSH1 0x0 NOT SWAP1 SHL NOT AND OR SWAP1 SSTORE JUMP JUMPDEST PUSH1 0x0 NOT DUP2 EQ PUSH2 0x3E07 JUMPI PUSH1 0x1 ADD SWAP1 JUMP JUMPDEST PUSH4 0x4E487B71 PUSH1 0xE0 SHL PUSH1 0x0 MSTORE PUSH1 0x11 PUSH1 0x4 MSTORE PUSH1 0x24 PUSH1 0x0 REVERT JUMPDEST SWAP2 SWAP1 DUP3 ADD DUP1 SWAP3 GT PUSH2 0x3E07 JUMPI JUMP JUMPDEST PUSH3 0x15180 SWAP1 DIV PUSH1 0x3 DUP2 ADD DUP1 SWAP2 GT PUSH2 0x3E07 JUMPI PUSH1 0x7 SWAP1 MOD PUSH1 0x7 DUP2 LT ISZERO PUSH2 0x3899 JUMPI SWAP1 JUMP JUMPDEST SWAP1 PUSH1 0x7 DUP2 LT ISZERO PUSH2 0x3899 JUMPI PUSH1 0x0 MSTORE PUSH1 0x20 MSTORE PUSH1 0x40 PUSH1 0x0 KECCAK256 SWAP1 JUMP JUMPDEST SWAP2 SWAP1 SWAP2 DUP1 SLOAD DUP4 LT ISZERO PUSH2 0x3BEC JUMPI PUSH1 0x0 MSTORE PUSH1 0x1F PUSH1 0x20 PUSH1 0x0 KECCAK256 DUP4 PUSH1 0x5 SHR ADD SWAP3 AND SWAP1 JUMP JUMPDEST SWAP1 DUP2 PUSH1 0x20 SWAP2 SUB SLT PUSH2 0x3831 JUMPI MLOAD DUP1 ISZERO ISZERO DUP2 SUB PUSH2 0x3831 JUMPI SWAP1 JUMP JUMPDEST ISZERO PUSH2 0x3EA2 JUMPI JUMP JUMPDEST PUSH1 0x40 MLOAD PUSH3 0x461BCD PUSH1 0xE5 SHL DUP2 MSTORE PUSH1 0x20 PUSH1 0x4 DUP3 ADD MSTORE PUSH1 0x15 PUSH1 0x24 DUP3 ADD MSTORE PUSH21 0x151BDAD95B881D1C985B9CD9995C8819985A5B1959 PUSH1 0x5A SHL PUSH1 0x44 DUP3 ADD MSTORE PUSH1 0x64 SWAP1 REVERT JUMPDEST ISZERO PUSH2 0x3EE6 JUMPI JUMP JUMPDEST PUSH1 0x40 MLOAD PUSH3 0x461BCD PUSH1 0xE5 SHL DUP2 MSTORE PUSH1 0x20 PUSH1 0x4 DUP3 ADD MSTORE PUSH1 0x14 PUSH1 0x24 DUP3 ADD MSTORE PUSH20 0x14D95C9D9A58D9481A5CC818D85B98D95B1B1959 PUSH1 0x62 SHL PUSH1 0x44 DUP3 ADD MSTORE PUSH1 0x64 SWAP1 REVERT JUMPDEST ISZERO PUSH2 0x3F29 JUMPI JUMP JUMPDEST PUSH1 0x40 MLOAD PUSH3 0x461BCD PUSH1 0xE5 SHL DUP2 MSTORE PUSH1 0x20 PUSH1 0x4 DUP3 ADD MSTORE PUSH1 0x11 PUSH1 0x24 DUP3 ADD MSTORE PUSH17 0x20B63932B0B23C903BB4BA34323930BBB7 PUSH1 0x79 SHL PUSH1 0x44 DUP3 ADD MSTORE PUSH1 0x64 SWAP1 REVERT JUMPDEST ISZERO PUSH2 0x3F69 JUMPI JUMP JUMPDEST PUSH1 0x40 MLOAD PUSH3 0x461BCD PUSH1 0xE5 SHL DUP2 MSTORE PUSH1 0x20 PUSH1 0x4 DUP3 ADD MSTORE PUSH1 0x12 PUSH1 0x24 DUP3 ADD MSTORE PUSH18 0x496E76616C69642074696D652072616E6765 PUSH1 0x70 SHL PUSH1 0x44 DUP3 ADD MSTORE PUSH1 0x64 SWAP1 REVERT JUMPDEST ISZERO PUSH2 0x3FAA JUMPI JUMP JUMPDEST PUSH1 0x40 MLOAD PUSH3 0x461BCD PUSH1 0xE5 SHL DUP2 MSTORE PUSH1 0x20 PUSH1 0x4 DUP3 ADD MSTORE PUSH1 0x1C PUSH1 0x24 DUP3 ADD MSTORE PUSH32 0x53746172742074696D65206D75737420626520696E2066757475726500000000 PUSH1 0x44 DUP3 ADD MSTORE PUSH1 0x64 SWAP1 REVERT JUMPDEST SWAP1 PUSH2 0x3FF9 DUP3 PUSH2 0x3C02 JUMP JUMPDEST PUSH2 0x4006 PUSH1 0x40 MLOAD SWAP2 DUP3 PUSH2 0x39F9 JUMP JUMPDEST DUP3 DUP2 MSTORE DUP1 SWAP3 PUSH2 0x4017 PUSH1 0x1F NOT SWAP2 PUSH2 0x3C02 JUMP JUMPDEST ADD SWAP1 PUSH1 0x20 CALLDATASIZE SWAP2 ADD CALLDATACOPY JUMP JUMPDEST DUP1 MLOAD DUP3 LT ISZERO PUSH2 0x3BEC JUMPI PUSH1 0x20 SWAP2 PUSH1 0x5 SHL ADD ADD SWAP1 JUMP JUMPDEST PUSH1 0x0 SWAP1 DUP2 JUMPDEST PUSH1 0x7 DUP2 LT PUSH2 0x40C1 JUMPI POP PUSH2 0x404C DUP3 PUSH2 0x3C02 JUMP JUMPDEST SWAP2 PUSH2 0x405A PUSH1 0x40 MLOAD SWAP4 DUP5 PUSH2 0x39F9 JUMP JUMPDEST DUP1 DUP4 MSTORE PUSH2 0x4069 PUSH1 0x1F NOT SWAP2 PUSH2 0x3C02 JUMP JUMPDEST ADD CALLDATASIZE PUSH1 0x20 DUP5 ADD CALLDATACOPY PUSH1 0x0 DUP1 JUMPDEST PUSH1 0x7 DUP2 LT PUSH2 0x4082 JUMPI POP POP POP SWAP1 JUMP JUMPDEST PUSH1 0xFF PUSH2 0x4091 DUP3 PUSH1 0x6 DUP7 ADD PUSH2 0x3E4B JUMP JUMPDEST SLOAD AND PUSH2 0x40A6 JUMPI JUMPDEST PUSH2 0x40A1 SWAP1 PUSH2 0x3DF8 JUMP JUMPDEST PUSH2 0x4074 JUMP JUMPDEST SWAP1 PUSH2 0x40B9 DUP2 DUP4 PUSH2 0xAF9 PUSH2 0x40A1 SWAP5 DUP9 PUSH2 0x4021 JUMP JUMPDEST SWAP2 SWAP1 POP PUSH2 0x4098 JUMP JUMPDEST PUSH1 0xFF PUSH2 0x40D0 DUP3 PUSH1 0x6 DUP6 ADD PUSH2 0x3E4B JUMP JUMPDEST SLOAD AND PUSH2 0x40E5 JUMPI JUMPDEST PUSH2 0x40E0 SWAP1 PUSH2 0x3DF8 JUMP JUMPDEST PUSH2 0x403A JUMP JUMPDEST SWAP2 PUSH2 0x40F2 PUSH2 0x40E0 SWAP2 PUSH2 0x3DF8 JUMP JUMPDEST SWAP3 SWAP1 POP PUSH2 0x40D7 JUMP JUMPDEST PUSH1 0x8 SWAP1 DUP2 DUP2 ADD DUP1 SLOAD SWAP2 PUSH2 0x410C DUP4 PUSH2 0x3C02 JUMP JUMPDEST SWAP4 PUSH1 0x40 SWAP3 PUSH2 0x411C DUP5 MLOAD SWAP7 DUP8 PUSH2 0x39F9 JUMP JUMPDEST DUP5 DUP7 MSTORE PUSH1 0x1F NOT PUSH2 0x412B DUP7 PUSH2 0x3C02 JUMP JUMPDEST ADD PUSH1 0x0 JUMPDEST DUP2 DUP2 LT PUSH2 0x41A9 JUMPI POP POP PUSH1 0x0 JUMPDEST DUP6 DUP2 LT PUSH2 0x414B JUMPI POP POP POP POP POP POP SWAP1 JUMP JUMPDEST DUP1 PUSH2 0x4159 PUSH2 0x41A4 SWAP3 DUP5 PUSH2 0x3E63 JUMP JUMPDEST SWAP1 PUSH1 0xFF SWAP2 DUP3 SWAP2 SLOAD SWAP1 PUSH1 0x3 SHL SHR AND PUSH1 0x0 MSTORE PUSH1 0x20 PUSH1 0x7 DUP8 ADD DUP2 MSTORE DUP8 PUSH1 0x0 KECCAK256 SWAP2 DUP9 MLOAD SWAP3 PUSH2 0x4182 DUP5 PUSH2 0x39A7 JUMP JUMPDEST SLOAD DUP2 DUP2 AND DUP5 MSTORE DUP8 SHR AND SWAP1 DUP3 ADD MSTORE PUSH2 0x4199 DUP3 DUP11 PUSH2 0x4021 JUMP JUMPDEST MSTORE PUSH2 0x379 DUP2 DUP10 PUSH2 0x4021 JUMP JUMPDEST PUSH2 0x413B JUMP JUMPDEST PUSH1 0x20 SWAP1 DUP7 MLOAD PUSH2 0x41B7 DUP2 PUSH2 0x39A7 JUMP JUMPDEST PUSH1 0x0 DUP2 MSTORE DUP3 PUSH1 0x0 DUP2 DUP4 ADD MSTORE DUP3 DUP12 ADD ADD MSTORE ADD PUSH2 0x412F JUMP JUMPDEST SWAP1 PUSH1 0x0 SWAP2 DUP3 MSTORE PUSH1 0x20 PUSH1 0x2 DUP2 MSTORE PUSH1 0x1 SWAP1 PUSH1 0x40 SWAP1 PUSH1 0x1 DUP1 PUSH1 0xA0 SHL SUB DUP4 DUP4 DUP8 KECCAK256 ADD SLOAD AND DUP6 MSTORE DUP3 DUP2 MSTORE DUP2 DUP6 KECCAK256 SWAP4 DUP6 SWAP3 PUSH1 0x8 SWAP4 DUP5 DUP8 ADD PUSH1 0x7 DUP2 SLOAD SWAP9 ADD SWAP2 JUMPDEST DUP9 DUP2 LT PUSH2 0x4219 JUMPI POP POP POP POP POP POP POP POP POP SWAP1 JUMP JUMPDEST PUSH2 0x4223 DUP2 DUP4 PUSH2 0x3E63 JUMP JUMPDEST SWAP1 PUSH1 0xFF SWAP2 DUP3 SWAP2 SLOAD SWAP1 PUSH1 0x3 SHL SHR AND DUP12 MSTORE DUP4 DUP8 MSTORE DUP7 DUP6 DUP13 KECCAK256 SWAP2 DUP7 MLOAD SWAP3 PUSH2 0x4246 DUP5 PUSH2 0x39A7 JUMP JUMPDEST SLOAD SWAP3 DUP2 DUP1 DUP6 AND SWAP5 DUP6 DUP4 MSTORE DUP13 SHR AND SWAP3 DUP4 SWAP2 ADD MSTORE DUP8 AND SWAP2 DUP3 LT ISZERO SWAP2 DUP3 PUSH2 0x4286 JUMPI JUMPDEST POP POP PUSH2 0x4279 JUMPI PUSH2 0x4274 SWAP1 PUSH2 0x3DF8 JUMP JUMPDEST PUSH2 0x4206 JUMP JUMPDEST POP POP POP POP POP POP POP SWAP2 POP POP SWAP1 JUMP JUMPDEST LT SWAP1 POP CODESIZE DUP1 PUSH2 0x4265 JUMP JUMPDEST SWAP2 PUSH1 0x0 DUP4 DUP2 MSTORE PUSH1 0x20 SWAP1 PUSH1 0x2 DUP3 MSTORE PUSH1 0x40 SWAP5 DUP6 DUP3 KECCAK256 SWAP5 TIMESTAMP DUP2 GT ISZERO PUSH2 0x43C8 JUMPI DUP2 DUP4 MSTORE PUSH1 0x3 DUP5 MSTORE DUP7 DUP4 KECCAK256 DUP2 DUP5 MSTORE DUP5 MSTORE PUSH1 0xFF SWAP1 DUP2 DUP9 DUP6 KECCAK256 SLOAD AND PUSH2 0x438F JUMPI PUSH1 0x18 PUSH2 0xE10 DUP4 SWAP3 DIV MOD AND DUP2 PUSH1 0x4 DUP6 SWAP9 ADD SLOAD PUSH1 0x8 SHR AND SWAP7 JUMPDEST DUP8 DUP2 LT PUSH2 0x4332 JUMPI POP POP POP POP PUSH5 0x736C6F7473 PUSH1 0xD8 SHL SWAP2 SWAP3 SWAP4 POP SWAP4 PUSH32 0x5363686564756C65642074696D65206E6F7420696E20617661696C61626C6520 DUP2 MLOAD SWAP4 PUSH2 0x4325 DUP6 PUSH2 0x39DE JUMP JUMPDEST PUSH1 0x25 DUP6 MSTORE DUP5 ADD MSTORE DUP3 ADD MSTORE SWAP1 JUMP JUMPDEST PUSH2 0x4347 DUP4 PUSH2 0x4340 DUP4 DUP6 PUSH2 0x3E1D JUMP JUMPDEST AND DUP6 PUSH2 0x41CD JUMP JUMPDEST PUSH2 0x4359 JUMPI PUSH2 0x4354 SWAP1 PUSH2 0x3DF8 JUMP JUMPDEST PUSH2 0x42DF JUMP JUMPDEST POP POP POP POP POP SWAP1 SWAP2 POP PUSH18 0x151A5B59481CDB1BDD081A5CC81D985B1A59 PUSH1 0x72 SHL PUSH1 0x1 SWAP4 MLOAD SWAP2 PUSH2 0x4385 DUP4 PUSH2 0x39A7 JUMP JUMPDEST PUSH1 0x12 DUP4 MSTORE DUP3 ADD MSTORE SWAP1 JUMP JUMPDEST POP POP POP PUSH24 0x151A5B59481CDB1BDD08185B1C9958591E48189BDBDAD959 PUSH1 0x42 SHL SWAP2 SWAP3 SWAP4 POP SWAP4 MLOAD SWAP2 PUSH2 0x43BE DUP4 PUSH2 0x39A7 JUMP JUMPDEST PUSH1 0x18 DUP4 MSTORE DUP3 ADD MSTORE SWAP1 JUMP JUMPDEST POP POP SWAP4 MLOAD SWAP2 SWAP3 POP PUSH32 0x5363686564756C65642074696D65206D75737420626520696E20667574757265 SWAP1 PUSH2 0x43FA DUP4 PUSH2 0x39A7 JUMP JUMPDEST DUP1 DUP4 MSTORE DUP3 ADD MSTORE SWAP1 JUMP JUMPDEST SWAP1 PUSH1 0x40 MLOAD SWAP2 DUP3 DUP2 SLOAD SWAP2 DUP3 DUP3 MSTORE PUSH1 0x20 SWAP1 DUP2 DUP4 ADD SWAP1 PUSH1 0x0 MSTORE DUP2 PUSH1 0x0 KECCAK256 PUSH1 0x0 SWAP1 JUMPDEST DUP6 PUSH1 0x1F DUP4 ADD LT PUSH2 0x47EF JUMPI SWAP5 PUSH2 0x3D02 SWAP6 SLOAD SWAP2 DUP5 DUP3 DUP3 LT PUSH2 0x47DC JUMPI JUMPDEST DUP3 DUP3 LT PUSH2 0x47C6 JUMPI JUMPDEST DUP3 DUP3 LT PUSH2 0x47B0 JUMPI JUMPDEST DUP3 DUP3 LT PUSH2 0x479A JUMPI JUMPDEST DUP3 DUP3 LT PUSH2 0x4785 JUMPI JUMPDEST DUP3 DUP3 LT PUSH2 0x476F JUMPI JUMPDEST DUP3 DUP3 LT PUSH2 0x4759 JUMPI JUMPDEST DUP3 DUP3 LT PUSH2 0x4743 JUMPI JUMPDEST DUP3 DUP3 LT PUSH2 0x472D JUMPI JUMPDEST DUP3 DUP3 LT PUSH2 0x4717 JUMPI JUMPDEST DUP3 DUP3 LT PUSH2 0x4701 JUMPI JUMPDEST DUP3 DUP3 LT PUSH2 0x46EB JUMPI JUMPDEST DUP3 DUP3 LT PUSH2 0x46D5 JUMPI JUMPDEST DUP3 DUP3 LT PUSH2 0x46BF JUMPI JUMPDEST DUP3 DUP3 LT PUSH2 0x46A9 JUMPI JUMPDEST DUP3 DUP3 LT PUSH2 0x4693 JUMPI JUMPDEST DUP3 DUP3 LT PUSH2 0x467D JUMPI JUMPDEST DUP3 DUP3 LT PUSH2 0x4667 JUMPI JUMPDEST DUP3 DUP3 LT PUSH2 0x4651 JUMPI JUMPDEST DUP3 DUP3 LT PUSH2 0x463B JUMPI JUMPDEST DUP3 DUP3 LT PUSH2 0x4625 JUMPI JUMPDEST DUP3 DUP3 LT PUSH2 0x460F JUMPI JUMPDEST DUP3 DUP3 LT PUSH2 0x45F9 JUMPI JUMPDEST DUP3 DUP3 LT PUSH2 0x45E3 JUMPI JUMPDEST DUP3 DUP3 LT PUSH2 0x45CD JUMPI JUMPDEST DUP3 DUP3 LT PUSH2 0x45B7 JUMPI JUMPDEST DUP3 DUP3 LT PUSH2 0x45A1 JUMPI JUMPDEST DUP3 DUP3 LT PUSH2 0x458B JUMPI JUMPDEST DUP3 DUP3 LT PUSH2 0x4575 JUMPI JUMPDEST DUP3 DUP3 LT PUSH2 0x455F JUMPI JUMPDEST DUP3 DUP3 LT PUSH2 0x4549 JUMPI JUMPDEST POP LT PUSH2 0x453C JUMPI JUMPDEST POP SWAP1 POP SUB DUP4 PUSH2 0x39F9 JUMP JUMPDEST PUSH1 0xF8 SHR DUP2 MSTORE ADD DUP1 CODESIZE PUSH2 0x4532 JUMP JUMPDEST PUSH1 0x1 SWAP2 SWAP5 PUSH1 0xFF DUP6 PUSH1 0xF0 SHR AND DUP2 MSTORE ADD SWAP4 ADD DUP5 PUSH2 0x452B JUMP JUMPDEST PUSH1 0x1 SWAP2 SWAP5 PUSH1 0xFF DUP6 PUSH1 0xE8 SHR AND DUP2 MSTORE ADD SWAP4 ADD DUP5 PUSH2 0x4523 JUMP JUMPDEST PUSH1 0x1 SWAP2 SWAP5 PUSH1 0xFF DUP6 PUSH1 0xE0 SHR AND DUP2 MSTORE ADD SWAP4 ADD DUP5 PUSH2 0x451B JUMP JUMPDEST PUSH1 0x1 SWAP2 SWAP5 PUSH1 0xFF DUP6 PUSH1 0xD8 SHR AND DUP2 MSTORE ADD SWAP4 ADD DUP5 PUSH2 0x4513 JUMP JUMPDEST PUSH1 0x1 SWAP2 SWAP5 PUSH1 0xFF DUP6 PUSH1 0xD0 SHR AND DUP2 MSTORE ADD SWAP4 ADD DUP5 PUSH2 0x450B JUMP JUMPDEST PUSH1 0x1 SWAP2 SWAP5 PUSH1 0xFF DUP6 PUSH1 0xC8 SHR AND DUP2 MSTORE ADD SWAP4 ADD DUP5 PUSH2 0x4503 JUMP JUMPDEST PUSH1 0x1 SWAP2 SWAP5 PUSH1 0xFF DUP6 PUSH1 0xC0 SHR AND DUP2 MSTORE ADD SWAP4 ADD DUP5 PUSH2 0x44FB JUMP JUMPDEST PUSH1 0x1 SWAP2 SWAP5 PUSH1 0xFF DUP6 PUSH1 0xB8 SHR AND DUP2 MSTORE ADD SWAP4 ADD DUP5 PUSH2 0x44F3 JUMP JUMPDEST PUSH1 0x1 SWAP2 SWAP5 PUSH1 0xFF DUP6 PUSH1 0xB0 SHR AND DUP2 MSTORE ADD SWAP4 ADD DUP5 PUSH2 0x44EB JUMP JUMPDEST PUSH1 0x1 SWAP2 SWAP5 PUSH1 0xFF DUP6 PUSH1 0xA8 SHR AND DUP2 MSTORE ADD SWAP4 ADD DUP5 PUSH2 0x44E3 JUMP JUMPDEST PUSH1 0x1 SWAP2 SWAP5 PUSH1 0xFF DUP6 PUSH1 0xA0 SHR AND DUP2 MSTORE ADD SWAP4 ADD DUP5 PUSH2 0x44DB JUMP JUMPDEST PUSH1 0x1 SWAP2 SWAP5 PUSH1 0xFF DUP6 PUSH1 0x98 SHR AND DUP2 MSTORE ADD SWAP4 ADD DUP5 PUSH2 0x44D3 JUMP JUMPDEST PUSH1 0x1 SWAP2 SWAP5 PUSH1 0xFF DUP6 PUSH1 0x90 SHR AND DUP2 MSTORE ADD SWAP4 ADD DUP5 PUSH2 0x44CB JUMP JUMPDEST PUSH1 0x1 SWAP2 SWAP5 PUSH1 0xFF DUP6 PUSH1 0x88 SHR AND DUP2 MSTORE ADD SWAP4 ADD DUP5 PUSH2 0x44C3 JUMP JUMPDEST PUSH1 0x1 SWAP2 SWAP5 PUSH1 0xFF DUP6 PUSH1 0x80 SHR AND DUP2 MSTORE ADD SWAP4 ADD DUP5 PUSH2 0x44BB JUMP JUMPDEST PUSH1 0x1 SWAP2 SWAP5 PUSH1 0xFF DUP6 PUSH1 0x78 SHR AND DUP2 MSTORE ADD SWAP4 ADD DUP5 PUSH2 0x44B3 JUMP JUMPDEST PUSH1 0x1 SWAP2 SWAP5 PUSH1 0xFF DUP6 PUSH1 0x70 SHR AND DUP2 MSTORE ADD SWAP4 ADD DUP5 PUSH2 0x44AB JUMP JUMPDEST PUSH1 0x1 SWAP2 SWAP5 PUSH1 0xFF DUP6 PUSH1 0x68 SHR AND DUP2 MSTORE ADD SWAP4 ADD DUP5 PUSH2 0x44A3 JUMP JUMPDEST PUSH1 0x1 SWAP2 SWAP5 PUSH1 0xFF DUP6 PUSH1 0x60 SHR AND DUP2 MSTORE ADD SWAP4 ADD DUP5 PUSH2 0x449B JUMP JUMPDEST PUSH1 0x1 SWAP2 SWAP5 PUSH1 0xFF DUP6 PUSH1 0x58 SHR AND DUP2 MSTORE ADD SWAP4 ADD DUP5 PUSH2 0x4493 JUMP JUMPDEST PUSH1 0x1 SWAP2 SWAP5 PUSH1 0xFF DUP6 PUSH1 0x50 SHR AND DUP2 MSTORE ADD SWAP4 ADD DUP5 PUSH2 0x448B JUMP JUMPDEST PUSH1 0x1 SWAP2 SWAP5 PUSH1 0xFF DUP6 PUSH1 0x48 SHR AND DUP2 MSTORE ADD SWAP4 ADD DUP5 PUSH2 0x4483 JUMP JUMPDEST PUSH1 0x1 SWAP2 SWAP5 PUSH1 0xFF DUP6 PUSH1 0x40 SHR AND DUP2 MSTORE ADD SWAP4 ADD DUP5 PUSH2 0x447B JUMP JUMPDEST PUSH1 0x1 SWAP2 SWAP5 PUSH1 0xFF DUP6 PUSH1 0x38 SHR AND DUP2 MSTORE ADD SWAP4 ADD DUP5 PUSH2 0x4473 JUMP JUMPDEST PUSH1 0x1 SWAP2 SWAP5 PUSH1 0xFF DUP6 PUSH1 0x30 SHR AND DUP2 MSTORE ADD SWAP4 ADD DUP5 PUSH2 0x446B JUMP JUMPDEST PUSH1 0x1 SWAP2 SWAP5 PUSH1 0xFF DUP6 PUSH1 0x28 SHR AND DUP2 MSTORE ADD SWAP4 ADD DUP5 PUSH2 0x4463 JUMP JUMPDEST PUSH1 0x1 SWAP2 SWAP5 PUSH1 0xFF DUP6 DUP4 SHR AND DUP2 MSTORE ADD SWAP4 ADD DUP5 PUSH2 0x445B JUMP JUMPDEST PUSH1 0x1 SWAP2 SWAP5 PUSH1 0xFF DUP6 PUSH1 0x18 SHR AND DUP2 MSTORE ADD SWAP4 ADD DUP5 PUSH2 0x4453 JUMP JUMPDEST PUSH1 0x1 SWAP2 SWAP5 PUSH1 0xFF DUP6 PUSH1 0x10 SHR AND DUP2 MSTORE ADD SWAP4 ADD DUP5 PUSH2 0x444B JUMP JUMPDEST PUSH1 0x1 SWAP2 SWAP5 PUSH1 0xFF DUP6 PUSH1 0x8 SHR AND DUP2 MSTORE ADD SWAP4 ADD DUP5 PUSH2 0x4443 JUMP JUMPDEST PUSH1 0x1 SWAP2 SWAP5 PUSH1 0xFF DUP6 AND DUP2 MSTORE ADD SWAP4 ADD DUP5 PUSH2 0x443B JUMP JUMPDEST SWAP4 POP SWAP2 PUSH1 0x1 PUSH2 0x400 DUP3 SWAP7 SWAP4 DUP7 SLOAD PUSH1 0xFF DUP2 AND DUP3 MSTORE PUSH1 0xFF DUP2 PUSH1 0x8 SHR AND DUP6 DUP4 ADD MSTORE PUSH1 0xFF DUP2 PUSH1 0x10 SHR AND PUSH1 0x40 DUP4 ADD MSTORE PUSH1 0xFF DUP2 PUSH1 0x60 DUP3 DUP3 PUSH1 0x18 SHR AND DUP2 DUP7 ADD MSTORE DUP3 DUP3 PUSH1 0x80 DUP3 DUP3 DUP13 SHR AND DUP2 DUP10 ADD MSTORE DUP3 DUP3 PUSH1 0xA0 SWAP3 DUP3 DUP3 PUSH1 0x28 SHR AND DUP5 DUP13 ADD MSTORE DUP3 DUP3 PUSH1 0xC0 SWAP9 DUP14 DUP11 DUP5 DUP5 PUSH1 0x30 SHR AND SWAP2 ADD MSTORE DUP14 PUSH1 0xE0 DUP5 DUP5 PUSH1 0x38 SHR AND SWAP2 ADD MSTORE DUP14 PUSH2 0x100 DUP5 DUP5 PUSH1 0x40 SHR AND SWAP2 ADD MSTORE DUP14 PUSH2 0x120 DUP5 DUP5 PUSH1 0x48 SHR AND SWAP2 ADD MSTORE DUP14 PUSH2 0x140 DUP5 DUP5 PUSH1 0x50 SHR AND SWAP2 ADD MSTORE DUP14 PUSH2 0x160 DUP5 DUP5 PUSH1 0x58 SHR AND SWAP2 ADD MSTORE SHR AND PUSH2 0x180 DUP13 ADD MSTORE DUP3 DUP3 PUSH1 0x68 SHR AND PUSH2 0x1A0 DUP13 ADD MSTORE DUP3 DUP3 PUSH1 0x70 SHR AND PUSH2 0x1C0 DUP13 ADD MSTORE DUP3 DUP3 PUSH1 0x78 SHR AND PUSH2 0x1E0 DUP13 ADD MSTORE SHR AND PUSH2 0x200 DUP10 ADD MSTORE DUP3 DUP3 PUSH1 0x88 SHR AND PUSH2 0x220 DUP10 ADD MSTORE DUP3 DUP3 PUSH1 0x90 SHR AND PUSH2 0x240 DUP10 ADD MSTORE DUP3 DUP3 PUSH1 0x98 SHR AND PUSH2 0x260 DUP10 ADD MSTORE SHR AND PUSH2 0x280 DUP7 ADD MSTORE DUP3 DUP3 PUSH1 0xA8 SHR AND PUSH2 0x2A0 DUP7 ADD MSTORE DUP3 DUP3 PUSH1 0xB0 SHR AND PUSH2 0x2C0 DUP7 ADD MSTORE DUP3 DUP3 PUSH1 0xB8 SHR AND PUSH2 0x2E0 DUP7 ADD MSTORE SHR AND PUSH2 0x300 DUP4 ADD MSTORE PUSH1 0xFF DUP2 PUSH1 0xC8 SHR AND PUSH2 0x320 DUP4 ADD MSTORE PUSH1 0xFF DUP2 PUSH1 0xD0 SHR AND PUSH2 0x340 DUP4 ADD MSTORE PUSH1 0xFF DUP2 PUSH1 0xD8 SHR AND PUSH2 0x360 DUP4 ADD MSTORE PUSH1 0xFF DUP2 PUSH1 0xE0 SHR AND PUSH2 0x380 DUP4 ADD MSTORE PUSH1 0xFF DUP2 PUSH1 0xE8 SHR AND PUSH2 0x3A0 DUP4 ADD MSTORE PUSH1 0xFF DUP2 PUSH1 0xF0 SHR AND PUSH2 0x3C0 DUP4 ADD MSTORE PUSH1 0xF8 SHR PUSH2 0x3E0 DUP3 ADD MSTORE ADD SWAP5 ADD SWAP3 ADD DUP7 SWAP4 SWAP2 SWAP5 SWAP3 PUSH2 0x4421 JUMP JUMPDEST PUSH1 0x40 MLOAD SWAP1 PUSH2 0x4993 DUP3 PUSH2 0x3976 JUMP JUMPDEST PUSH1 0x0 PUSH1 0xA0 DUP4 DUP3 DUP2 MSTORE DUP3 PUSH1 0x20 DUP3 ADD MSTORE PUSH1 0x60 PUSH1 0x40 DUP3 ADD MSTORE PUSH1 0x60 DUP1 DUP3 ADD MSTORE DUP3 PUSH1 0x80 DUP3 ADD MSTORE ADD MSTORE JUMP JUMPDEST SWAP1 PUSH2 0x49C2 DUP3 PUSH2 0x3C02 JUMP JUMPDEST PUSH2 0x49CF PUSH1 0x40 MLOAD SWAP2 DUP3 PUSH2 0x39F9 JUMP JUMPDEST DUP3 DUP2 MSTORE DUP1 SWAP3 PUSH2 0x49E0 PUSH1 0x1F NOT SWAP2 PUSH2 0x3C02 JUMP JUMPDEST ADD SWAP1 PUSH1 0x0 JUMPDEST DUP3 DUP2 LT PUSH2 0x49F1 JUMPI POP POP POP JUMP JUMPDEST PUSH1 0x20 SWAP1 PUSH2 0x49FC PUSH2 0x4986 JUMP JUMPDEST DUP3 DUP3 DUP6 ADD ADD MSTORE ADD PUSH2 0x49E5 JUMP JUMPDEST PUSH1 0x40 MLOAD SWAP1 PUSH2 0x4A15 DUP3 PUSH2 0x39C2 JUMP JUMPDEST DUP2 PUSH1 0xE0 PUSH1 0x0 SWAP2 DUP3 DUP2 MSTORE DUP3 PUSH1 0x20 DUP3 ADD MSTORE DUP3 PUSH1 0x40 DUP3 ADD MSTORE DUP3 PUSH1 0x60 DUP3 ADD MSTORE DUP3 PUSH1 0x80 DUP3 ADD MSTORE DUP3 PUSH1 0xA0 DUP3 ADD MSTORE DUP3 PUSH1 0xC0 DUP3 ADD MSTORE ADD MSTORE JUMP JUMPDEST SWAP1 PUSH1 0x40 MLOAD PUSH2 0x4A53 DUP2 PUSH2 0x39C2 JUMP JUMPDEST PUSH1 0xE0 PUSH1 0xFF PUSH1 0x4 DUP4 SWAP6 DUP1 SLOAD DUP6 MSTORE DUP3 PUSH1 0x1 DUP3 ADD SLOAD PUSH1 0x1 DUP1 PUSH1 0xA0 SHL SUB DUP2 AND PUSH1 0x20 DUP9 ADD MSTORE DUP2 DUP2 PUSH1 0xA0 SHR AND ISZERO ISZERO PUSH1 0x40 DUP9 ADD MSTORE DUP2 DUP2 PUSH1 0xA8 SHR AND ISZERO ISZERO PUSH1 0x60 DUP9 ADD MSTORE PUSH1 0xB0 SHR AND ISZERO ISZERO PUSH1 0x80 DUP7 ADD MSTORE PUSH1 0x2 DUP2 ADD SLOAD PUSH1 0xA0 DUP7 ADD MSTORE PUSH1 0x3 DUP2 ADD SLOAD PUSH1 0xC0 DUP7 ADD MSTORE ADD SLOAD AND ISZERO ISZERO SWAP2 ADD MSTORE JUMP JUMPDEST ISZERO PUSH2 0x4ABD JUMPI JUMP JUMPDEST PUSH1 0x40 MLOAD PUSH3 0x461BCD PUSH1 0xE5 SHL DUP2 MSTORE PUSH1 0x20 PUSH1 0x4 DUP3 ADD MSTORE PUSH1 0x1D PUSH1 0x24 DUP3 ADD MSTORE PUSH32 0x53657276696365206E6F7420666F756E64206F7220696E616374697665000000 PUSH1 0x44 DUP3 ADD MSTORE PUSH1 0x64 SWAP1 REVERT JUMPDEST SWAP1 PUSH2 0xE10 PUSH2 0xFFFF DUP1 SWAP4 AND MUL SWAP2 DUP3 AND SWAP2 DUP3 SUB PUSH2 0x3E07 JUMPI JUMP JUMPDEST SWAP2 SWAP1 SWAP2 PUSH2 0x4B27 DUP3 DUP5 LT PUSH2 0x3F62 JUMP JUMPDEST PUSH2 0x4B32 TIMESTAMP DUP5 GT PUSH2 0x3FA3 JUMP JUMPDEST PUSH1 0x1 DUP1 PUSH1 0xA0 SHL SUB AND SWAP2 PUSH1 0x0 SWAP2 DUP4 DUP4 MSTORE PUSH1 0x20 SWAP4 PUSH1 0x5 DUP6 MSTORE PUSH1 0x40 SWAP5 DUP6 DUP6 KECCAK256 SWAP2 DUP7 MLOAD DUP1 DUP5 DUP5 DUP3 SWAP7 SLOAD SWAP4 DUP5 DUP2 MSTORE ADD SWAP1 DUP10 MSTORE DUP5 DUP10 KECCAK256 SWAP3 DUP10 JUMPDEST DUP7 DUP3 DUP3 LT PUSH2 0x4DA7 JUMPI POP POP POP PUSH2 0x4B7C SWAP3 POP SUB DUP5 PUSH2 0x39F9 JUMP JUMPDEST DUP6 MSTORE PUSH1 0x6 DUP2 MSTORE DUP6 DUP6 KECCAK256 SWAP6 DUP1 MLOAD DUP1 DUP9 DUP5 DUP3 SWAP11 SLOAD SWAP4 DUP5 DUP2 MSTORE ADD SWAP1 DUP10 MSTORE DUP5 DUP10 KECCAK256 SWAP3 DUP10 JUMPDEST DUP7 DUP3 DUP3 LT PUSH2 0x4D91 JUMPI POP POP POP PUSH2 0x4BB3 SWAP3 POP SUB DUP9 PUSH2 0x39F9 JUMP JUMPDEST DUP6 JUMPDEST DUP4 MLOAD DUP2 LT ISZERO PUSH2 0x4C9E JUMPI PUSH2 0x4BC8 DUP2 DUP6 PUSH2 0x4021 JUMP JUMPDEST MLOAD DUP8 MSTORE PUSH1 0x4 DUP1 DUP5 MSTORE DUP3 DUP9 KECCAK256 PUSH1 0xFF SWAP1 DUP2 DUP4 DUP3 ADD SLOAD AND ISZERO PUSH2 0x4BF3 JUMPI JUMPDEST POP POP POP PUSH2 0x4BEE SWAP1 PUSH2 0x3DF8 JUMP JUMPDEST PUSH2 0x4BB5 JUMP JUMPDEST PUSH2 0x4C22 PUSH2 0x4C29 SWAP3 PUSH1 0x3 PUSH2 0xFFFF SWAP4 ADD SLOAD SWAP5 PUSH2 0x4C0D DUP8 DUP12 PUSH2 0x4021 JUMP JUMPDEST MLOAD DUP14 MSTORE PUSH1 0x2 DUP10 MSTORE DUP8 DUP14 KECCAK256 ADD SLOAD PUSH1 0x8 SHR AND PUSH2 0x4B02 JUMP JUMPDEST AND DUP3 PUSH2 0x3E1D JUMP JUMPDEST DUP2 DUP9 LT ISZERO SWAP2 DUP3 PUSH2 0x4C94 JUMPI JUMPDEST DUP3 ISZERO PUSH2 0x4C79 JUMPI JUMPDEST DUP3 ISZERO PUSH2 0x4C5B JUMPI JUMPDEST POP POP PUSH2 0x4C50 JUMPI CODESIZE DUP1 DUP1 PUSH2 0x4BE2 JUMP JUMPDEST POP POP POP POP POP POP SWAP1 POP SWAP1 JUMP JUMPDEST DUP9 GT ISZERO SWAP2 POP DUP2 PUSH2 0x4C6E JUMPI JUMPDEST POP CODESIZE DUP1 PUSH2 0x4C42 JUMP JUMPDEST SWAP1 POP DUP6 LT ISZERO CODESIZE PUSH2 0x4C66 JUMP JUMPDEST DUP1 SWAP3 POP DUP8 GT DUP1 PUSH2 0x4C8A JUMPI JUMPDEST SWAP2 PUSH2 0x4C3B JUMP JUMPDEST POP DUP1 DUP8 GT ISZERO PUSH2 0x4C84 JUMP JUMPDEST DUP2 DUP10 LT SWAP3 POP PUSH2 0x4C34 JUMP JUMPDEST POP SWAP6 SWAP2 POP DUP5 JUMPDEST DUP3 MLOAD DUP2 LT ISZERO PUSH2 0x4D85 JUMPI PUSH2 0x4CB7 DUP2 DUP5 PUSH2 0x4021 JUMP JUMPDEST MLOAD DUP7 MSTORE PUSH1 0x4 DUP1 DUP4 MSTORE DUP8 DUP8 KECCAK256 PUSH1 0xFF SWAP1 DUP2 DUP4 DUP3 ADD SLOAD AND ISZERO PUSH2 0x4CE2 JUMPI JUMPDEST POP POP POP PUSH2 0x4CDD SWAP1 PUSH2 0x3DF8 JUMP JUMPDEST PUSH2 0x4CA4 JUMP JUMPDEST PUSH2 0x4C22 PUSH2 0x4D11 SWAP3 PUSH1 0x3 PUSH2 0xFFFF SWAP4 ADD SLOAD SWAP5 PUSH2 0x4CFC DUP8 DUP11 PUSH2 0x4021 JUMP JUMPDEST MLOAD DUP13 MSTORE PUSH1 0x2 DUP9 MSTORE DUP13 DUP13 KECCAK256 ADD SLOAD PUSH1 0x8 SHR AND PUSH2 0x4B02 JUMP JUMPDEST DUP2 DUP8 LT ISZERO SWAP2 DUP3 PUSH2 0x4D7B JUMPI JUMPDEST DUP3 ISZERO PUSH2 0x4D60 JUMPI JUMPDEST DUP3 ISZERO PUSH2 0x4D42 JUMPI JUMPDEST POP POP PUSH2 0x4D38 JUMPI CODESIZE DUP1 DUP1 PUSH2 0x4CD1 JUMP JUMPDEST POP POP POP POP POP SWAP1 POP SWAP1 JUMP JUMPDEST DUP8 GT ISZERO SWAP2 POP DUP2 PUSH2 0x4D55 JUMPI JUMPDEST POP CODESIZE DUP1 PUSH2 0x4D2A JUMP JUMPDEST SWAP1 POP DUP5 LT ISZERO CODESIZE PUSH2 0x4D4D JUMP JUMPDEST DUP1 SWAP3 POP DUP7 GT DUP1 PUSH2 0x4D71 JUMPI JUMPDEST SWAP2 PUSH2 0x4D23 JUMP JUMPDEST POP DUP1 DUP7 GT ISZERO PUSH2 0x4D6B JUMP JUMPDEST DUP2 DUP9 LT SWAP3 POP PUSH2 0x4D1C JUMP JUMPDEST POP POP POP POP POP POP POP PUSH1 0x1 SWAP1 JUMP JUMPDEST DUP6 SLOAD DUP5 MSTORE PUSH1 0x1 SWAP6 DUP7 ADD SWAP6 DUP14 SWAP6 POP SWAP4 ADD SWAP3 ADD PUSH2 0x4B9C JUMP JUMPDEST DUP6 SLOAD DUP5 MSTORE PUSH1 0x1 SWAP6 DUP7 ADD SWAP6 DUP10 SWAP6 POP SWAP4 ADD SWAP3 ADD PUSH2 0x4B65 JUMP INVALID LOG2 PUSH5 0x6970667358 0x22 SLT KECCAK256 0xB3 0x4B 0xF8 0xEC 0xF6 PUSH21 0x414294583C1C79A642BBF9BD3AC645B362295ECA4E LOG4 0xBF 0xE6 PUSH5 0xB364736F6C PUSH4 0x43000814 STOP CALLER "
        },
        "methodIdentifiers": {
          "TIMEOUT_DURATION()": "eaf7ac9f",
          "TOKEN_PER_HOUR()": "b992c327",
          "approveCompletion(uint256)": "93a5bc41",
          "bookedSlots(uint256,uint256)": "8069c0f1",
          "buyService(uint256,uint256)": "22b0f230",
          "cancelService(uint256,string)": "8c558a5d",
          "createComment(uint256,string,uint8)": "66c5f4fd",
          "createService(string,string,uint8)": "982964ad",
          "getBookedTimeSlots(address,uint256,uint256)": "af360659",
          "getComments(uint256)": "23edf697",
          "getDayOfWeek(uint256)": "22f8a2b8",
          "getHour(uint256)": "3e239e1a",
          "getProfile(address)": "0f53a470",
          "getProvidedServices(address)": "f0cc428b",
          "getPurchasedService(uint256)": "471fdabf",
          "getReceivedServices(address)": "6555024b",
          "getService(uint256)": "ef0e239b",
          "getServiceTimeDetails(uint256)": "e7ea61c1",
          "getTimeSlot(address,uint8)": "28ca5a90",
          "getTimeSlotStartHours(address)": "5441c78a",
          "getTimeTokenAddress()": "31f7b26d",
          "getUserAvailableTimeSlots(address,uint256,uint256)": "2f9108e3",
          "hasCommented(uint256,address)": "1031cb84",
          "hasUserCommented(uint256,address)": "d04e942d",
          "isDayAvailable(address,uint8)": "e5aaf016",
          "isHourAvailable(uint256,uint8)": "f636e2b9",
          "isScheduledTimeValid(uint256,uint256)": "bc08c472",
          "isTimeSlotAvailable(address,uint256,uint256)": "823b2e2b",
          "nextCommentId(uint256)": "11a88583",
          "nextServiceId()": "f6c53d9b",
          "profiles(address)": "bbe15627",
          "purchases(uint256)": "8392fe31",
          "registerUser(string,string)": "1d2e4afd",
          "serviceComments(uint256,uint256)": "8ebc8cc0",
          "services(uint256)": "c22c4f43",
          "timeToken()": "e27af3b9",
          "updateTimeSlots(uint8[],(uint8,uint8)[])": "5ad26219",
          "userBookedSlots(address,uint256)": "e5a14d64",
          "userPurchases(address,uint256)": "cf2c0334",
          "userServices(address,uint256)": "55404ace",
          "withdrawBuyer(uint256)": "0c757fd9",
          "withdrawSeller(uint256)": "aa45c782"
        }
      }
    }
  }
}