{
  "_format": "hh-sol-artifact-1",
  "contractName": "ChronoTrade",
  "sourceName": "contracts/ChronoTrade.sol",
  "abi": [
    {
      "inputs": [
        {
          "internalType": "address",
          "name": "_timeTokenAddress",
          "type": "address"
        }
      ],
      "stateMutability": "nonpayable",
      "type": "constructor"
    },
    {
      "anonymous": false,
      "inputs": [
        {
          "indexed": true,
          "internalType": "uint256",
          "name": "serviceId",
          "type": "uint256"
        },
        {
          "indexed": true,
          "internalType": "address",
          "name": "author",
          "type": "address"
        },
        {
          "indexed": false,
          "internalType": "uint256",
          "name": "commentId",
          "type": "uint256"
        },
        {
          "indexed": false,
          "internalType": "uint8",
          "name": "rating",
          "type": "uint8"
        }
      ],
      "name": "CommentCreated",
      "type": "event"
    },
    {
      "anonymous": false,
      "inputs": [
        {
          "indexed": true,
          "internalType": "uint256",
          "name": "serviceId",
          "type": "uint256"
        },
        {
          "indexed": true,
          "internalType": "address",
          "name": "buyer",
          "type": "address"
        }
      ],
      "name": "ServiceApproved",
      "type": "event"
    },
    {
      "anonymous": false,
      "inputs": [
        {
          "indexed": true,
          "internalType": "uint256",
          "name": "serviceId",
          "type": "uint256"
        },
        {
          "indexed": true,
          "internalType": "address",
          "name": "buyer",
          "type": "address"
        },
        {
          "indexed": false,
          "internalType": "uint256",
          "name": "startTime",
          "type": "uint256"
        }
      ],
      "name": "ServiceBought",
      "type": "event"
    },
    {
      "anonymous": false,
      "inputs": [
        {
          "indexed": true,
          "internalType": "uint256",
          "name": "serviceId",
          "type": "uint256"
        },
        {
          "indexed": true,
          "internalType": "address",
          "name": "by",
          "type": "address"
        },
        {
          "indexed": false,
          "internalType": "string",
          "name": "reason",
          "type": "string"
        }
      ],
      "name": "ServiceCancelled",
      "type": "event"
    },
    {
      "anonymous": false,
      "inputs": [
        {
          "indexed": true,
          "internalType": "uint256",
          "name": "serviceId",
          "type": "uint256"
        },
        {
          "indexed": true,
          "internalType": "address",
          "name": "buyer",
          "type": "address"
        }
      ],
      "name": "ServiceCompleted",
      "type": "event"
    },
    {
      "anonymous": false,
      "inputs": [
        {
          "indexed": true,
          "internalType": "uint256",
          "name": "serviceId",
          "type": "uint256"
        },
        {
          "indexed": true,
          "internalType": "address",
          "name": "seller",
          "type": "address"
        },
        {
          "indexed": false,
          "internalType": "uint8",
          "name": "durationHours",
          "type": "uint8"
        }
      ],
      "name": "ServiceCreated",
      "type": "event"
    },
    {
      "anonymous": false,
      "inputs": [
        {
          "indexed": true,
          "internalType": "address",
          "name": "user",
          "type": "address"
        }
      ],
      "name": "TimeSlotsUpdated",
      "type": "event"
    },
    {
      "anonymous": false,
      "inputs": [
        {
          "indexed": true,
          "internalType": "address",
          "name": "ratedUser",
          "type": "address"
        },
        {
          "indexed": false,
          "internalType": "uint8",
          "name": "rating",
          "type": "uint8"
        }
      ],
      "name": "UserRated",
      "type": "event"
    },
    {
      "anonymous": false,
      "inputs": [
        {
          "indexed": true,
          "internalType": "address",
          "name": "user",
          "type": "address"
        }
      ],
      "name": "UserRegistered",
      "type": "event"
    },
    {
      "anonymous": false,
      "inputs": [
        {
          "indexed": true,
          "internalType": "address",
          "name": "user",
          "type": "address"
        },
        {
          "indexed": false,
          "internalType": "uint256",
          "name": "amount",
          "type": "uint256"
        }
      ],
      "name": "Withdraw",
      "type": "event"
    },
    {
      "anonymous": false,
      "inputs": [
        {
          "indexed": true,
          "internalType": "address",
          "name": "user",
          "type": "address"
        },
        {
          "indexed": false,
          "internalType": "uint256",
          "name": "amount",
          "type": "uint256"
        },
        {
          "indexed": false,
          "internalType": "string",
          "name": "reason",
          "type": "string"
        }
      ],
      "name": "WithdrawSuccess",
      "type": "event"
    },
    {
      "inputs": [],
      "name": "TIMEOUT_DURATION",
      "outputs": [
        {
          "internalType": "uint256",
          "name": "",
          "type": "uint256"
        }
      ],
      "stateMutability": "view",
      "type": "function"
    },
    {
      "inputs": [],
      "name": "TOKEN_PER_HOUR",
      "outputs": [
        {
          "internalType": "uint256",
          "name": "",
          "type": "uint256"
        }
      ],
      "stateMutability": "view",
      "type": "function"
    },
    {
      "inputs": [
        {
          "internalType": "uint256",
          "name": "_serviceId",
          "type": "uint256"
        }
      ],
      "name": "approveCompletion",
      "outputs": [],
      "stateMutability": "nonpayable",
      "type": "function"
    },
    {
      "inputs": [
        {
          "internalType": "uint256",
          "name": "",
          "type": "uint256"
        },
        {
          "internalType": "uint256",
          "name": "",
          "type": "uint256"
        }
      ],
      "name": "bookedSlots",
      "outputs": [
        {
          "internalType": "bool",
          "name": "",
          "type": "bool"
        }
      ],
      "stateMutability": "view",
      "type": "function"
    },
    {
      "inputs": [
        {
          "internalType": "uint256",
          "name": "_serviceId",
          "type": "uint256"
        },
        {
          "internalType": "uint256",
          "name": "_scheduledTime",
          "type": "uint256"
        }
      ],
      "name": "buyService",
      "outputs": [],
      "stateMutability": "nonpayable",
      "type": "function"
    },
    {
      "inputs": [
        {
          "internalType": "uint256",
          "name": "_serviceId",
          "type": "uint256"
        },
        {
          "internalType": "string",
          "name": "_reason",
          "type": "string"
        }
      ],
      "name": "cancelService",
      "outputs": [],
      "stateMutability": "nonpayable",
      "type": "function"
    },
    {
      "inputs": [
        {
          "internalType": "uint256",
          "name": "_serviceId",
          "type": "uint256"
        },
        {
          "internalType": "string",
          "name": "_content",
          "type": "string"
        },
        {
          "internalType": "uint8",
          "name": "_rating",
          "type": "uint8"
        }
      ],
      "name": "createComment",
      "outputs": [],
      "stateMutability": "nonpayable",
      "type": "function"
    },
    {
      "inputs": [
        {
          "internalType": "string",
          "name": "_title",
          "type": "string"
        },
        {
          "internalType": "string",
          "name": "_description",
          "type": "string"
        },
        {
          "internalType": "uint8",
          "name": "_durationHours",
          "type": "uint8"
        }
      ],
      "name": "createService",
      "outputs": [],
      "stateMutability": "nonpayable",
      "type": "function"
    },
    {
      "inputs": [],
      "name": "getAllServices",
      "outputs": [
        {
          "components": [
            {
              "internalType": "uint256",
              "name": "id",
              "type": "uint256"
            },
            {
              "internalType": "address",
              "name": "seller",
              "type": "address"
            },
            {
              "internalType": "string",
              "name": "title",
              "type": "string"
            },
            {
              "internalType": "string",
              "name": "description",
              "type": "string"
            },
            {
              "internalType": "bool",
              "name": "isActive",
              "type": "bool"
            },
            {
              "internalType": "uint8",
              "name": "durationHours",
              "type": "uint8"
            }
          ],
          "internalType": "struct ChronoTrade.Service[]",
          "name": "",
          "type": "tuple[]"
        }
      ],
      "stateMutability": "view",
      "type": "function"
    },
    {
      "inputs": [
        {
          "internalType": "address",
          "name": "_user",
          "type": "address"
        },
        {
          "internalType": "uint256",
          "name": "_startTime",
          "type": "uint256"
        },
        {
          "internalType": "uint256",
          "name": "_endTime",
          "type": "uint256"
        }
      ],
      "name": "getBookedTimeSlots",
      "outputs": [
        {
          "internalType": "uint256[]",
          "name": "",
          "type": "uint256[]"
        }
      ],
      "stateMutability": "view",
      "type": "function"
    },
    {
      "inputs": [
        {
          "internalType": "uint256",
          "name": "_serviceId",
          "type": "uint256"
        }
      ],
      "name": "getComments",
      "outputs": [
        {
          "components": [
            {
              "internalType": "uint256",
              "name": "id",
              "type": "uint256"
            },
            {
              "internalType": "uint256",
              "name": "serviceId",
              "type": "uint256"
            },
            {
              "internalType": "address",
              "name": "author",
              "type": "address"
            },
            {
              "internalType": "string",
              "name": "content",
              "type": "string"
            },
            {
              "internalType": "uint256",
              "name": "timestamp",
              "type": "uint256"
            },
            {
              "internalType": "uint8",
              "name": "rating",
              "type": "uint8"
            }
          ],
          "internalType": "struct ChronoTrade.Comment[]",
          "name": "",
          "type": "tuple[]"
        }
      ],
      "stateMutability": "view",
      "type": "function"
    },
    {
      "inputs": [
        {
          "internalType": "uint256",
          "name": "_timestamp",
          "type": "uint256"
        }
      ],
      "name": "getDayOfWeek",
      "outputs": [
        {
          "internalType": "enum ChronoTrade.DayOfWeek",
          "name": "",
          "type": "uint8"
        }
      ],
      "stateMutability": "pure",
      "type": "function"
    },
    {
      "inputs": [
        {
          "internalType": "uint256",
          "name": "_timestamp",
          "type": "uint256"
        }
      ],
      "name": "getHour",
      "outputs": [
        {
          "internalType": "uint8",
          "name": "",
          "type": "uint8"
        }
      ],
      "stateMutability": "pure",
      "type": "function"
    },
    {
      "inputs": [
        {
          "internalType": "address",
          "name": "_user",
          "type": "address"
        }
      ],
      "name": "getProfile",
      "outputs": [
        {
          "internalType": "address",
          "name": "user",
          "type": "address"
        },
        {
          "internalType": "string",
          "name": "name",
          "type": "string"
        },
        {
          "internalType": "string",
          "name": "description",
          "type": "string"
        },
        {
          "internalType": "uint256",
          "name": "ratingSum",
          "type": "uint256"
        },
        {
          "internalType": "uint256",
          "name": "ratingCount",
          "type": "uint256"
        },
        {
          "internalType": "bool",
          "name": "isRegistered",
          "type": "bool"
        },
        {
          "internalType": "enum ChronoTrade.DayOfWeek[]",
          "name": "availableDays",
          "type": "uint8[]"
        },
        {
          "components": [
            {
              "internalType": "uint8",
              "name": "startHour",
              "type": "uint8"
            },
            {
              "internalType": "uint8",
              "name": "endHour",
              "type": "uint8"
            }
          ],
          "internalType": "struct ChronoTrade.TimeSlot[]",
          "name": "availableTimeSlots",
          "type": "tuple[]"
        },
        {
          "internalType": "uint8[]",
          "name": "timeSlotStartHours",
          "type": "uint8[]"
        }
      ],
      "stateMutability": "view",
      "type": "function"
    },
    {
      "inputs": [
        {
          "internalType": "address",
          "name": "_user",
          "type": "address"
        }
      ],
      "name": "getProvidedServices",
      "outputs": [
        {
          "components": [
            {
              "internalType": "uint256",
              "name": "id",
              "type": "uint256"
            },
            {
              "internalType": "address",
              "name": "seller",
              "type": "address"
            },
            {
              "internalType": "string",
              "name": "title",
              "type": "string"
            },
            {
              "internalType": "string",
              "name": "description",
              "type": "string"
            },
            {
              "internalType": "bool",
              "name": "isActive",
              "type": "bool"
            },
            {
              "internalType": "uint8",
              "name": "durationHours",
              "type": "uint8"
            }
          ],
          "internalType": "struct ChronoTrade.Service[]",
          "name": "",
          "type": "tuple[]"
        }
      ],
      "stateMutability": "view",
      "type": "function"
    },
    {
      "inputs": [
        {
          "internalType": "uint256",
          "name": "_serviceId",
          "type": "uint256"
        }
      ],
      "name": "getPurchasedService",
      "outputs": [
        {
          "components": [
            {
              "internalType": "uint256",
              "name": "serviceId",
              "type": "uint256"
            },
            {
              "internalType": "address",
              "name": "buyer",
              "type": "address"
            },
            {
              "internalType": "bool",
              "name": "isApproved",
              "type": "bool"
            },
            {
              "internalType": "bool",
              "name": "sellerWithdrawn",
              "type": "bool"
            },
            {
              "internalType": "bool",
              "name": "buyerWithdrawn",
              "type": "bool"
            },
            {
              "internalType": "uint256",
              "name": "timestamp",
              "type": "uint256"
            },
            {
              "internalType": "uint256",
              "name": "scheduledTime",
              "type": "uint256"
            },
            {
              "internalType": "bool",
              "name": "isCancelled",
              "type": "bool"
            }
          ],
          "internalType": "struct ChronoTrade.PurchasedService",
          "name": "purchase",
          "type": "tuple"
        },
        {
          "components": [
            {
              "internalType": "uint256",
              "name": "id",
              "type": "uint256"
            },
            {
              "internalType": "address",
              "name": "seller",
              "type": "address"
            },
            {
              "internalType": "string",
              "name": "title",
              "type": "string"
            },
            {
              "internalType": "string",
              "name": "description",
              "type": "string"
            },
            {
              "internalType": "bool",
              "name": "isActive",
              "type": "bool"
            },
            {
              "internalType": "uint8",
              "name": "durationHours",
              "type": "uint8"
            }
          ],
          "internalType": "struct ChronoTrade.Service",
          "name": "service",
          "type": "tuple"
        }
      ],
      "stateMutability": "view",
      "type": "function"
    },
    {
      "inputs": [
        {
          "internalType": "address",
          "name": "_user",
          "type": "address"
        }
      ],
      "name": "getReceivedServices",
      "outputs": [
        {
          "components": [
            {
              "internalType": "uint256",
              "name": "id",
              "type": "uint256"
            },
            {
              "internalType": "address",
              "name": "seller",
              "type": "address"
            },
            {
              "internalType": "string",
              "name": "title",
              "type": "string"
            },
            {
              "internalType": "string",
              "name": "description",
              "type": "string"
            },
            {
              "internalType": "bool",
              "name": "isActive",
              "type": "bool"
            },
            {
              "internalType": "uint8",
              "name": "durationHours",
              "type": "uint8"
            }
          ],
          "internalType": "struct ChronoTrade.Service[]",
          "name": "",
          "type": "tuple[]"
        },
        {
          "components": [
            {
              "internalType": "uint256",
              "name": "serviceId",
              "type": "uint256"
            },
            {
              "internalType": "address",
              "name": "buyer",
              "type": "address"
            },
            {
              "internalType": "bool",
              "name": "isApproved",
              "type": "bool"
            },
            {
              "internalType": "bool",
              "name": "sellerWithdrawn",
              "type": "bool"
            },
            {
              "internalType": "bool",
              "name": "buyerWithdrawn",
              "type": "bool"
            },
            {
              "internalType": "uint256",
              "name": "timestamp",
              "type": "uint256"
            },
            {
              "internalType": "uint256",
              "name": "scheduledTime",
              "type": "uint256"
            },
            {
              "internalType": "bool",
              "name": "isCancelled",
              "type": "bool"
            }
          ],
          "internalType": "struct ChronoTrade.PurchasedService[]",
          "name": "",
          "type": "tuple[]"
        }
      ],
      "stateMutability": "view",
      "type": "function"
    },
    {
      "inputs": [
        {
          "internalType": "uint256",
          "name": "_serviceId",
          "type": "uint256"
        }
      ],
      "name": "getService",
      "outputs": [
        {
          "components": [
            {
              "internalType": "uint256",
              "name": "id",
              "type": "uint256"
            },
            {
              "internalType": "address",
              "name": "seller",
              "type": "address"
            },
            {
              "internalType": "string",
              "name": "title",
              "type": "string"
            },
            {
              "internalType": "string",
              "name": "description",
              "type": "string"
            },
            {
              "internalType": "bool",
              "name": "isActive",
              "type": "bool"
            },
            {
              "internalType": "uint8",
              "name": "durationHours",
              "type": "uint8"
            }
          ],
          "internalType": "struct ChronoTrade.Service",
          "name": "service",
          "type": "tuple"
        },
        {
          "internalType": "address",
          "name": "seller",
          "type": "address"
        },
        {
          "internalType": "string",
          "name": "sellerName",
          "type": "string"
        },
        {
          "internalType": "string",
          "name": "sellerDescription",
          "type": "string"
        },
        {
          "internalType": "uint256",
          "name": "sellerRatingSum",
          "type": "uint256"
        },
        {
          "internalType": "uint256",
          "name": "sellerRatingCount",
          "type": "uint256"
        },
        {
          "internalType": "enum ChronoTrade.DayOfWeek[]",
          "name": "sellerAvailableDays",
          "type": "uint8[]"
        },
        {
          "components": [
            {
              "internalType": "uint8",
              "name": "startHour",
              "type": "uint8"
            },
            {
              "internalType": "uint8",
              "name": "endHour",
              "type": "uint8"
            }
          ],
          "internalType": "struct ChronoTrade.TimeSlot[]",
          "name": "sellerAvailableTimeSlots",
          "type": "tuple[]"
        },
        {
          "internalType": "uint8[]",
          "name": "sellerTimeSlotStartHours",
          "type": "uint8[]"
        },
        {
          "components": [
            {
              "internalType": "uint256",
              "name": "serviceId",
              "type": "uint256"
            },
            {
              "internalType": "address",
              "name": "buyer",
              "type": "address"
            },
            {
              "internalType": "bool",
              "name": "isApproved",
              "type": "bool"
            },
            {
              "internalType": "bool",
              "name": "sellerWithdrawn",
              "type": "bool"
            },
            {
              "internalType": "bool",
              "name": "buyerWithdrawn",
              "type": "bool"
            },
            {
              "internalType": "uint256",
              "name": "timestamp",
              "type": "uint256"
            },
            {
              "internalType": "uint256",
              "name": "scheduledTime",
              "type": "uint256"
            },
            {
              "internalType": "bool",
              "name": "isCancelled",
              "type": "bool"
            }
          ],
          "internalType": "struct ChronoTrade.PurchasedService",
          "name": "purchase",
          "type": "tuple"
        }
      ],
      "stateMutability": "view",
      "type": "function"
    },
    {
      "inputs": [
        {
          "internalType": "uint256",
          "name": "_serviceId",
          "type": "uint256"
        }
      ],
      "name": "getServiceTimeDetails",
      "outputs": [
        {
          "internalType": "uint8",
          "name": "durationHours",
          "type": "uint8"
        },
        {
          "internalType": "enum ChronoTrade.DayOfWeek[]",
          "name": "availableDays",
          "type": "uint8[]"
        },
        {
          "components": [
            {
              "internalType": "uint8",
              "name": "startHour",
              "type": "uint8"
            },
            {
              "internalType": "uint8",
              "name": "endHour",
              "type": "uint8"
            }
          ],
          "internalType": "struct ChronoTrade.TimeSlot[]",
          "name": "availableTimeSlots",
          "type": "tuple[]"
        }
      ],
      "stateMutability": "view",
      "type": "function"
    },
    {
      "inputs": [
        {
          "internalType": "uint256",
          "name": "_startIndex",
          "type": "uint256"
        },
        {
          "internalType": "uint256",
          "name": "_pageSize",
          "type": "uint256"
        }
      ],
      "name": "getServicesPaginated",
      "outputs": [
        {
          "components": [
            {
              "internalType": "uint256",
              "name": "id",
              "type": "uint256"
            },
            {
              "internalType": "address",
              "name": "seller",
              "type": "address"
            },
            {
              "internalType": "string",
              "name": "title",
              "type": "string"
            },
            {
              "internalType": "string",
              "name": "description",
              "type": "string"
            },
            {
              "internalType": "bool",
              "name": "isActive",
              "type": "bool"
            },
            {
              "internalType": "uint8",
              "name": "durationHours",
              "type": "uint8"
            }
          ],
          "internalType": "struct ChronoTrade.Service[]",
          "name": "",
          "type": "tuple[]"
        },
        {
          "internalType": "uint256",
          "name": "totalCount",
          "type": "uint256"
        }
      ],
      "stateMutability": "view",
      "type": "function"
    },
    {
      "inputs": [
        {
          "internalType": "address",
          "name": "_user",
          "type": "address"
        },
        {
          "internalType": "uint8",
          "name": "_hour",
          "type": "uint8"
        }
      ],
      "name": "getTimeSlot",
      "outputs": [
        {
          "components": [
            {
              "internalType": "uint8",
              "name": "startHour",
              "type": "uint8"
            },
            {
              "internalType": "uint8",
              "name": "endHour",
              "type": "uint8"
            }
          ],
          "internalType": "struct ChronoTrade.TimeSlot",
          "name": "",
          "type": "tuple"
        }
      ],
      "stateMutability": "view",
      "type": "function"
    },
    {
      "inputs": [
        {
          "internalType": "address",
          "name": "_user",
          "type": "address"
        }
      ],
      "name": "getTimeSlotStartHours",
      "outputs": [
        {
          "internalType": "uint8[]",
          "name": "",
          "type": "uint8[]"
        }
      ],
      "stateMutability": "view",
      "type": "function"
    },
    {
      "inputs": [],
      "name": "getTimeTokenAddress",
      "outputs": [
        {
          "internalType": "address",
          "name": "",
          "type": "address"
        }
      ],
      "stateMutability": "view",
      "type": "function"
    },
    {
      "inputs": [
        {
          "internalType": "address",
          "name": "_user",
          "type": "address"
        },
        {
          "internalType": "uint256",
          "name": "_startTime",
          "type": "uint256"
        },
        {
          "internalType": "uint256",
          "name": "_endTime",
          "type": "uint256"
        }
      ],
      "name": "getUserAvailableTimeSlots",
      "outputs": [
        {
          "internalType": "uint256[]",
          "name": "",
          "type": "uint256[]"
        }
      ],
      "stateMutability": "view",
      "type": "function"
    },
    {
      "inputs": [
        {
          "internalType": "uint256",
          "name": "",
          "type": "uint256"
        },
        {
          "internalType": "address",
          "name": "",
          "type": "address"
        }
      ],
      "name": "hasCommented",
      "outputs": [
        {
          "internalType": "bool",
          "name": "",
          "type": "bool"
        }
      ],
      "stateMutability": "view",
      "type": "function"
    },
    {
      "inputs": [
        {
          "internalType": "uint256",
          "name": "_serviceId",
          "type": "uint256"
        },
        {
          "internalType": "address",
          "name": "_user",
          "type": "address"
        }
      ],
      "name": "hasUserCommented",
      "outputs": [
        {
          "internalType": "bool",
          "name": "",
          "type": "bool"
        }
      ],
      "stateMutability": "view",
      "type": "function"
    },
    {
      "inputs": [
        {
          "internalType": "address",
          "name": "_user",
          "type": "address"
        },
        {
          "internalType": "enum ChronoTrade.DayOfWeek",
          "name": "_day",
          "type": "uint8"
        }
      ],
      "name": "isDayAvailable",
      "outputs": [
        {
          "internalType": "bool",
          "name": "",
          "type": "bool"
        }
      ],
      "stateMutability": "view",
      "type": "function"
    },
    {
      "inputs": [
        {
          "internalType": "uint256",
          "name": "_serviceId",
          "type": "uint256"
        },
        {
          "internalType": "uint8",
          "name": "_hour",
          "type": "uint8"
        }
      ],
      "name": "isHourAvailable",
      "outputs": [
        {
          "internalType": "bool",
          "name": "",
          "type": "bool"
        }
      ],
      "stateMutability": "view",
      "type": "function"
    },
    {
      "inputs": [
        {
          "internalType": "uint256",
          "name": "_serviceId",
          "type": "uint256"
        },
        {
          "internalType": "uint256",
          "name": "_scheduledTime",
          "type": "uint256"
        }
      ],
      "name": "isScheduledTimeValid",
      "outputs": [
        {
          "internalType": "bool",
          "name": "",
          "type": "bool"
        },
        {
          "internalType": "string",
          "name": "",
          "type": "string"
        }
      ],
      "stateMutability": "view",
      "type": "function"
    },
    {
      "inputs": [
        {
          "internalType": "address",
          "name": "_user",
          "type": "address"
        },
        {
          "internalType": "uint256",
          "name": "_startTime",
          "type": "uint256"
        },
        {
          "internalType": "uint256",
          "name": "_endTime",
          "type": "uint256"
        }
      ],
      "name": "isTimeSlotAvailable",
      "outputs": [
        {
          "internalType": "bool",
          "name": "",
          "type": "bool"
        }
      ],
      "stateMutability": "view",
      "type": "function"
    },
    {
      "inputs": [
        {
          "internalType": "uint256",
          "name": "",
          "type": "uint256"
        }
      ],
      "name": "nextCommentId",
      "outputs": [
        {
          "internalType": "uint256",
          "name": "",
          "type": "uint256"
        }
      ],
      "stateMutability": "view",
      "type": "function"
    },
    {
      "inputs": [],
      "name": "nextServiceId",
      "outputs": [
        {
          "internalType": "uint256",
          "name": "",
          "type": "uint256"
        }
      ],
      "stateMutability": "view",
      "type": "function"
    },
    {
      "inputs": [
        {
          "internalType": "address",
          "name": "",
          "type": "address"
        }
      ],
      "name": "profiles",
      "outputs": [
        {
          "internalType": "address",
          "name": "user",
          "type": "address"
        },
        {
          "internalType": "string",
          "name": "name",
          "type": "string"
        },
        {
          "internalType": "string",
          "name": "description",
          "type": "string"
        },
        {
          "internalType": "uint256",
          "name": "ratingSum",
          "type": "uint256"
        },
        {
          "internalType": "uint256",
          "name": "ratingCount",
          "type": "uint256"
        },
        {
          "internalType": "bool",
          "name": "isRegistered",
          "type": "bool"
        }
      ],
      "stateMutability": "view",
      "type": "function"
    },
    {
      "inputs": [
        {
          "internalType": "uint256",
          "name": "",
          "type": "uint256"
        }
      ],
      "name": "purchases",
      "outputs": [
        {
          "internalType": "uint256",
          "name": "serviceId",
          "type": "uint256"
        },
        {
          "internalType": "address",
          "name": "buyer",
          "type": "address"
        },
        {
          "internalType": "bool",
          "name": "isApproved",
          "type": "bool"
        },
        {
          "internalType": "bool",
          "name": "sellerWithdrawn",
          "type": "bool"
        },
        {
          "internalType": "bool",
          "name": "buyerWithdrawn",
          "type": "bool"
        },
        {
          "internalType": "uint256",
          "name": "timestamp",
          "type": "uint256"
        },
        {
          "internalType": "uint256",
          "name": "scheduledTime",
          "type": "uint256"
        },
        {
          "internalType": "bool",
          "name": "isCancelled",
          "type": "bool"
        }
      ],
      "stateMutability": "view",
      "type": "function"
    },
    {
      "inputs": [
        {
          "internalType": "string",
          "name": "_name",
          "type": "string"
        },
        {
          "internalType": "string",
          "name": "_description",
          "type": "string"
        }
      ],
      "name": "registerUser",
      "outputs": [],
      "stateMutability": "nonpayable",
      "type": "function"
    },
    {
      "inputs": [
        {
          "internalType": "uint256",
          "name": "",
          "type": "uint256"
        },
        {
          "internalType": "uint256",
          "name": "",
          "type": "uint256"
        }
      ],
      "name": "serviceComments",
      "outputs": [
        {
          "internalType": "uint256",
          "name": "id",
          "type": "uint256"
        },
        {
          "internalType": "uint256",
          "name": "serviceId",
          "type": "uint256"
        },
        {
          "internalType": "address",
          "name": "author",
          "type": "address"
        },
        {
          "internalType": "string",
          "name": "content",
          "type": "string"
        },
        {
          "internalType": "uint256",
          "name": "timestamp",
          "type": "uint256"
        },
        {
          "internalType": "uint8",
          "name": "rating",
          "type": "uint8"
        }
      ],
      "stateMutability": "view",
      "type": "function"
    },
    {
      "inputs": [
        {
          "internalType": "uint256",
          "name": "",
          "type": "uint256"
        }
      ],
      "name": "services",
      "outputs": [
        {
          "internalType": "uint256",
          "name": "id",
          "type": "uint256"
        },
        {
          "internalType": "address",
          "name": "seller",
          "type": "address"
        },
        {
          "internalType": "string",
          "name": "title",
          "type": "string"
        },
        {
          "internalType": "string",
          "name": "description",
          "type": "string"
        },
        {
          "internalType": "bool",
          "name": "isActive",
          "type": "bool"
        },
        {
          "internalType": "uint8",
          "name": "durationHours",
          "type": "uint8"
        }
      ],
      "stateMutability": "view",
      "type": "function"
    },
    {
      "inputs": [],
      "name": "timeToken",
      "outputs": [
        {
          "internalType": "contract TIME",
          "name": "",
          "type": "address"
        }
      ],
      "stateMutability": "view",
      "type": "function"
    },
    {
      "inputs": [
        {
          "internalType": "enum ChronoTrade.DayOfWeek[]",
          "name": "_availableDays",
          "type": "uint8[]"
        },
        {
          "components": [
            {
              "internalType": "uint8",
              "name": "startHour",
              "type": "uint8"
            },
            {
              "internalType": "uint8",
              "name": "endHour",
              "type": "uint8"
            }
          ],
          "internalType": "struct ChronoTrade.TimeSlot[]",
          "name": "_availableTimeSlots",
          "type": "tuple[]"
        }
      ],
      "name": "updateTimeSlots",
      "outputs": [],
      "stateMutability": "nonpayable",
      "type": "function"
    },
    {
      "inputs": [
        {
          "internalType": "address",
          "name": "",
          "type": "address"
        },
        {
          "internalType": "uint256",
          "name": "",
          "type": "uint256"
        }
      ],
      "name": "userBookedSlots",
      "outputs": [
        {
          "internalType": "bool",
          "name": "",
          "type": "bool"
        }
      ],
      "stateMutability": "view",
      "type": "function"
    },
    {
      "inputs": [
        {
          "internalType": "address",
          "name": "",
          "type": "address"
        },
        {
          "internalType": "uint256",
          "name": "",
          "type": "uint256"
        }
      ],
      "name": "userPurchases",
      "outputs": [
        {
          "internalType": "uint256",
          "name": "",
          "type": "uint256"
        }
      ],
      "stateMutability": "view",
      "type": "function"
    },
    {
      "inputs": [
        {
          "internalType": "address",
          "name": "",
          "type": "address"
        },
        {
          "internalType": "uint256",
          "name": "",
          "type": "uint256"
        }
      ],
      "name": "userServices",
      "outputs": [
        {
          "internalType": "uint256",
          "name": "",
          "type": "uint256"
        }
      ],
      "stateMutability": "view",
      "type": "function"
    },
    {
      "inputs": [
        {
          "internalType": "uint256",
          "name": "_serviceId",
          "type": "uint256"
        }
      ],
      "name": "withdrawBuyer",
      "outputs": [],
      "stateMutability": "nonpayable",
      "type": "function"
    },
    {
      "inputs": [
        {
          "internalType": "uint256",
          "name": "_serviceId",
          "type": "uint256"
        }
      ],
      "name": "withdrawSeller",
      "outputs": [],
      "stateMutability": "nonpayable",
      "type": "function"
    }
  ],
  "bytecode": "0x6080346200007a57601f6200501b38819003918201601f19168301916001600160401b038311848410176200007f578084926020946040528339810103126200007a57516001600160a01b038116908190036200007a57600080546001600160a01b031916919091179055604051614f859081620000968239f35b600080fd5b634e487b7160e01b600052604160045260246000fdfe608080604052600436101561001357600080fd5b600090813560e01c9081630c757fd914613588575080630f53a4701461348a5780631031cb841461344157806311a88583146134175780631d2e4afd146130a657806321fe0f3014612fe257806322b0f23014612a2a57806322f8a2b8146129fe57806323edf6971461287a57806328ca5a90146127e35780632f9108e3146125b057806331f7b26d146105fa5780633e239e1a14612588578063471fdabf146124c55780635441c78a1461247257806355404ace1461242a5780635ad2621914611fa35780635e214c7514611f6a5780636555024b14611db657806366c5f4fd146117c15780638069c0f11461178f578063823b2e2b146117755780638392fe31146116e95780638c558a5d146114ba5780638ebc8cc01461142457806393a5bc411461126c578063982964ad14610e79578063aa45c78214610b54578063af36065914610855578063b992c32714610839578063bbe1562714610795578063bc08c4721461075e578063c22c4f43146106c3578063cf2c03341461066d578063d04e942d14610621578063e27af3b9146105fa578063e5a14d64146105b1578063e5aaf01614610554578063e7ea61c1146104d3578063eaf7ac9f146104b5578063ef0e239b14610364578063f0cc428b14610256578063f636e2b9146102255763f6c53d9b1461020557600080fd5b346102225780600319360112610222576020600b54604051908152f35b80fd5b503461022257604036600319011261022257602061024c610244613aa6565b600435614199565b6040519015158152f35b503461022257602080600319360112610360576001600160a01b0361027961377f565b1680835260019081835261029660ff600560408720015416613cd5565b8352600582526040832092604051808585829754938481520190845285842092845b868883831061034b57505050506102d19250038561395d565b6102db8451614984565b9381835b6102fb575b604051858152806102f781880189613a34565b0390f35b815181101561034657806103126103409284613fed565b5184526002865261032560408520613db6565b61032f8289613fed565b5261033a8188613fed565b50613d63565b836102df565b6102e4565b86548552958101958a955090930192016102b8565b5080fd5b5034610222576020806003193601126103605760043590610383614952565b5061038c6149d4565b5081835260028152604083206103a190613db6565b91608083015115156103b290614a82565b600160a01b6001900390818385015116855260018352604085209182541694600383015460048401546103e485614001565b926103ee866140c6565b94815260048752604090209461040660018201613c2f565b61041260028301613c2f565b9160080161041f906143cf565b9661042990614a12565b976040519a8b9a610220808d528c01610441916139d4565b918b015289810360408b0152610456916137b0565b88810360608a0152610467916137b0565b91608088015260a087015285810360c087015261048391613813565b84810360e086015261049491613853565b8381036101008501526104a6916138a3565b9061012083016102f791613b39565b50346102225780600319360112610222576020604051620d2f008152f35b5034610222576020366003190112610222576004358152600260205260ff600460408084209360018060a01b03600186015416815260016020522092015460081c166102f761052a61052484614001565b936140c6565b6105466040519485948552606060208601526060850190613813565b908382036040850152613853565b50346102225760403660031901126102225761056e61377f565b6024359060078210156105ad576001600160a01b0316825260016020908152604090922060ff916105a191600601613e17565b54166040519015158152f35b8280fd5b50346102225760403660031901126102225760209060ff906040906001600160a01b036105dc61377f565b16815260078452818120602435825284522054166040519015158152f35b5034610222578060031936011261022257546040516001600160a01b039091168152602090f35b503461022257604036600319011261022257604061063d61379a565b916004358152600a602052209060018060a01b0316600052602052602060ff604060002054166040519015158152f35b50346102225760403660031901126102225761068761377f565b6001600160a01b03168152600660205260408120805460243592908310156102225760206106b58484613b94565b90546040519160031b1c8152f35b5034610222576020366003190112610222576040906004358152600260205220805460018060a01b036001830154169160ff61074661070460028401613c2f565b92610738600461071660038401613c2f565b920154946040519788978852602088015260c0604088015260c08701906137b0565b9085820360608701526137b0565b918181161515608085015260081c1660a08301520390f35b50346102225761077661077036613a90565b9061425c565b906102f7604051928392151583526040602084015260408301906137b0565b5034610222576020366003190112610222576001600160a01b0390604090826107bc61377f565b168152600160205220908154166107d560018301613c2f565b916107e260028201613c2f565b60038201549161082360ff600560048401549301541692610815604051978897885260c0602089015260c08801906137b0565b9086820360408801526137b0565b9260608501526080840152151560a08301520390f35b5034610222578060031936011261022257602060405160018152f35b50346102225761086436613ad4565b9190610871838210613f2e565b61087c428211613f6f565b839160018060a01b03169283855260206005815260408620946040518087848299549384815201908a52848a20928a5b86828210610b3e575050506108c39250038761395d565b86526006815260408620946040518087848299549384815201908a52848a20928a5b86828210610b28575050506108fc9250038761395d565b865b815181101561097b576109118183613fed565b51885260048352604088208460ff60048301541615918261096b575b8261095d575b5050610948575b61094390613d63565b6108fe565b9461095561094391613d63565b95905061093a565b600301541090508438610933565b915086600383015410159161092d565b5094865b81518110156109fc576109928183613fed565b51885260048352604088208460ff6004830154161591826109ec575b826109de575b50506109c9575b6109c490613d63565b61097f565b946109d66109c491613d63565b9590506109bb565b6003015410905084386109b4565b91508660038301541015916109ae565b509492909193610a0b90613fbb565b918693875b8151811015610a9657610a238183613fed565b518952600483526040892060ff6004820154161580610a88575b80610a7b575b610a57575b50610a5290613d63565b610a10565b610a5291966003610a74920154610a6e8289613fed565b52613d63565b9590610a48565b5087600382015410610a43565b508460038201541015610a3d565b5050865b8651811015610b1a57610aad8188613fed565b518852600482526040882060ff6004820154161580610b0c575b80610aff575b610ae1575b50610adc90613d63565b610a9a565b610adc91956003610af8920154610a6e8288613fed565b9490610ad2565b5086600382015410610acd565b508360038201541015610ac7565b604051806102f78682613afe565b855484526001958601958c9550930192016108e5565b855484526001958601958c9550930192016108ac565b5034610222576020806003193601126103605760043582526004815260408220600282526040832060ff600482015460081c16908115828004600114811715610e6557670de0b6b3a7640000808402938404141715610e5157600101546001600160a01b039081163303610e0c576001830192835490610bda60ff8360a81c1615613eee565b60ff60048201541615610bec81613eab565b60ff8360a01c169182159182610dba575b50505015610d4f5760ff60a81b1916600160a81b178355845460405163a9059cbb60e01b815233600482015260248101849052939185918591168188816044810103925af1908115610d4457610c7e60ff927f127b7b7ee9eeb9e7571d22eeffacbaed4bf3a79e01ad801bd4637710cc3c0953958891610d17575b50613e67565b5460a01c1615610cd25760408051610c95816138da565b601181527014d95c9d9a58d94818dbdb5c1b195d1959607a1b85820152935b815192835282015280610ccc339460408301906137b0565b0390a280f35b60408051610cdf81613942565b602181527f54696d656f75742070617373656420776974686f757420636f6d706c6574696f85820152603760f91b8282015293610cb4565b610d379150873d8911610d3d575b610d2f818361395d565b810190613e4f565b38610c78565b503d610d25565b6040513d87823e3d90fd5b60405162461bcd60e51b815260048101869052603d60248201527f43616e6e6f742077697468647261773a2073657276696365206e6f7420636f6d60448201527f706c6574656420616e642074696d656f7574206e6f74207061737365640000006064820152608490fd5b9192509082610e04575b5081610dd4575b50388080610bfd565b600291500154620d2f008101809111610df05742101538610dcb565b634e487b7160e01b87526011600452602487fd5b915038610dc4565b60405162461bcd60e51b815260048101859052601860248201527f4f6e6c792073656c6c65722063616e20776974686472617700000000000000006044820152606490fd5b634e487b7160e01b85526011600452602485fd5b634e487b7160e01b86526011600452602486fd5b5034610222576060366003190112610222576004356001600160401b03811161036057610eaa90369060040161397e565b6024356001600160401b0381116105ad57610ec990369060040161397e565b90610ed2613ab6565b913384526001602052610eee60ff600560408720015416613cd5565b60ff831615158061125e575b156112265733845260016020526008604085200154156111e157600b548085526002602052604085209081556001810180546001600160a01b03191633179055825190926001600160401b038211611120578190610f5b6002860154613bf5565b601f81116111ae575b50602090601f831160011461113f578792611134575b50508160011b916000199060031b1c19161760028301555b805160038301916001600160401b03821161112057610fb18354613bf5565b601f81116110e5575b50602090601f83116001146110755793611013938387969460049461106499968b9261106a575b50508160011b916000199060031b1c19161790555b01805461ffff191660089290921b61ff0016919091176001179055565b338352600560205261102b60408420600b5490613d2e565b600b549060ff60405191168152817f2af96fd23e4ac077c68adcc3b3d77510b790f85426fc8eba93380921b4c8e57960203393a3613d63565b600b5580f35b015190503880610fe1565b838752602087209190601f198416885b8181106110cd57508460049489989461101398946110649b98600195106110b4575b505050811b019055610ff6565b015160001960f88460031b161c191690553880806110a7565b92936020600181928786015181550195019301611085565b6111109084885260208820601f850160051c81019160208610611116575b601f0160051c0190613d17565b38610fba565b9091508190611103565b634e487b7160e01b86526041600452602486fd5b015190503880610f7a565b9250600285018752602087209087935b601f1984168510611193576001945083601f1981161061117a575b505050811b016002830155610f92565b015160001960f88460031b161c1916905538808061116a565b8181015183556020948501946001909301929091019061114f565b6111db9060028701895260208920601f850160051c8101916020861061111657601f0160051c0190613d17565b38610f64565b60405162461bcd60e51b815260206004820152601b60248201527f4e6f20617661696c61626c652074696d6520736c6f74732073657400000000006044820152606490fd5b60405162461bcd60e51b815260206004820152601060248201526f24b73b30b634b210323ab930ba34b7b760811b6044820152606490fd5b50601860ff84161115610efa565b50346102225760208060031936011261036057600480358084529082526040808420600284529084206001015491926001600160a01b0392831633036113e057600182019081549260ff8460a01c166113a8576112d060ff60048301541615613eab565b600381015442106113575760020154421061131f575060ff60a01b198216600160a01b17905516907ff7aeef2e7683fc4a3bd43c0ba3fe3496995f923b61b72ddc107cc037f3a689f58380a380f35b6064906040519062461bcd60e51b8252600482015260116024820152700496e76616c69642074696d657374616d7607c1b6044820152fd5b60405162461bcd60e51b8152600481018390526024808201527f43616e6e6f7420617070726f7665206265666f7265207363686564756c65642060448201526374696d6560e01b6064820152608490fd5b60405162461bcd60e51b815260048101839052601060248201526f105b1c9958591e48185c1c1c9bdd995960821b6044820152606490fd5b6064906040519062461bcd60e51b82526004820152601760248201527f4f6e6c792073656c6c65722063616e20617070726f76650000000000000000006044820152fd5b50346102225761143336613a90565b90825260086020526040822080548210156105ad576114529250613bd9565b508054600182015460028301549092906001600160a01b03166114ab61147a60038401613c2f565b60ff60056004860154950154169260405196879687526020870152604086015260c0606086015260c08501906137b0565b91608084015260a08301520390f35b5034610222576040366003190112610222576004356024356001600160401b0381116105ad576114ee90369060040161397e565b90808352602091600483526040842060028452604085209060018101549160018060a01b0390818416331480156116da575b1561169557600483019283549460ff86166116505760a01c60ff1661160b576003015492834210156115b7579160017fc90ed825423f1d894412591b9109a86f358c8ba687f93e9a5fbf42e90b0015e49694926115b196948260ff198097161790550154168852600787526040882090885286526040872090815416905560405191829186835233968301906137b0565b0390a380f35b60405162461bcd60e51b815260048101899052602660248201527f43616e6e6f742063616e63656c20616674657220736572766963652073746172604482015265742074696d6560d01b6064820152608490fd5b60405162461bcd60e51b815260048101899052601f60248201527f43616e6e6f742063616e63656c20636f6d706c657465642073657276696365006044820152606490fd5b60405162461bcd60e51b8152600481018a9052601960248201527f5365727669636520616c72656164792063616e63656c6c6564000000000000006044820152606490fd5b60405162461bcd60e51b815260048101889052601f60248201527f4f6e6c79206275796572206f722073656c6c65722063616e2063616e63656c006044820152606490fd5b50816001820154163314611520565b5034610222576020366003190112610222576040610100916004358152600460205220805490600181015490600281015460ff8060046003850154940154169360405195865260018060a01b0381166020870152818160a01c1615156040870152818160a81c161515606087015260b01c161515608085015260a084015260c0830152151560e0820152f35b503461022257602061024c61178936613ad4565b91614ae5565b50346102225760ff60406020926117a536613a90565b9082526003855282822090825284522054166040519015158152f35b50346102225760603660031901126102225760246001600160401b038135818111611db2576117f490369060040161397e565b916117fd613ab6565b92338552600160205261181960ff600560408820015416613cd5565b6004358552600260205261183660ff600460408820015416614a82565b600160ff8516101580611da4575b15611d60576004358552600260205260408520600101546001600160a01b03163314611d1157600480358652602052604085206001810154336001600160a01b03821603611ccd5760a01c60ff1615611c75576004015460ff16611c25576004358552600a602052604085203360005260205260ff60406000205416611bd75760043585526009602052604085205492604051926118e184613927565b84845260208401926004358452604085013381526060860191825242608087015260ff881660a08701526004358952600860205260408920805490600160401b821015611bc4579061193891600182018155613bd9565b959095611bb15786518655516001860155600285019060018060a01b039051166bffffffffffffffffffffffff60a01b82541617905551908151928311611b9f57506119876003840154613bf5565b601f8111611b6c575b50602090601f8311600114611af857928260a09360059360ff968b92611aed575b50508160011b916000199060031b1c19161760038201555b6080850151600482015501920151169060ff19918282541617905560043584526009602052604084206119fc8154613d63565b90556004358452600a602052604084203360005260205260016040600020918254161790556004358352600260205260018060a01b036001604085200154168352600160205260046040842060038101611a5a60ff86168254613d88565b905501611a678154613d63565b905560405190815260ff8216602082015233907f70997dc3171d815f6ab1ce3fc8f4138e4ec857fba88c5eeb5f5246c76c87bf06604060043592a3600435825260026020527f1a30bc2bda53a934e4cf4cfed9f76e7d8ccc23b8e8d16529cc99b43beec262d6602060018060a01b036001604086200154169260ff60405191168152a280f35b0151905038806119b1565b906003840188526020882091885b601f1985168110611b5457508360059360ff969360019360a097601f19811610611b3b575b505050811b0160038201556119c9565b015160001960f88460031b161c19169055388080611b2b565b91926020600181928685015181550194019201611b06565b611b999060038501895260208920601f850160051c8101916020861061111657601f0160051c0190613d17565b38611990565b634e487b7160e01b8852604160045287fd5b634e487b7160e01b8a5260048a9052838afd5b634e487b7160e01b8b526041600452848bfd5b60405162461bcd60e51b8152602060048201526021818401527f416c726561647920636f6d6d656e746564206f6e2074686973207365727669636044820152606560f81b6064820152608490fd5b60405162461bcd60e51b8152602060048201526023818401527f43616e6e6f7420636f6d6d656e74206f6e2063616e63656c6c6564207365727660448201526269636560e81b6064820152608490fd5b60405162461bcd60e51b815260206004820152602b818501527f53657276696365206d75737420626520636f6d706c65746564206265666f726560448201526a20636f6d6d656e74696e6760a81b6064820152608490fd5b60405162461bcd60e51b8152602060048201526017818601527f4f6e6c79206275796572732063616e20636f6d6d656e740000000000000000006044820152606490fd5b60405162461bcd60e51b8152602060048201526022818401527f43616e6e6f7420636f6d6d656e74206f6e20796f7572206f776e207365727669604482015261636560f01b6064820152608490fd5b60405162461bcd60e51b815260206004820152601e818401527f526174696e67206d757374206265206265747765656e203120616e64203500006044820152606490fd5b50600560ff85161115611844565b8380fd5b503461022257602080600319360112610360576001600160a01b03611dd961377f565b16808352600190818352611df660ff600560408720015416613cd5565b83526006825260408320926040519384848254918281520191835284832090835b818110611f575750505084611e2d91038561395d565b611e378451614984565b92845194611e4486613bc2565b95611e52604051978861395d565b808752611e61601f1991613bc2565b01835b818110611f3b5750508383905b611ed1575b5050611e8d60405194604086526040860190613a34565b90848203818601528080875193848152019601925b828110611eaf5785870386f35b909192938261010088611ec4849a8951613b39565b0197950193929101611ea2565b90849694918151811015611f325780611eed611f299284613fed565b5180875260028652611f0160408820613db6565b611f0b838b613fed565b52611f16828a613fed565b5086526004855261032560408720614a12565b90919496611e71565b50959395611e76565b8390611f489896986149d4565b82828901015201969496611e64565b8254845292860192918501918501611e17565b503461022257611f99611f85611f7f36613a90565b90614d96565b604051928392604084526040840190613a34565b9060208301520390f35b5034610222576040366003190112610222576001600160401b0390600435828111610360573660238201121561036057806004013590611fe282613bc2565b611fef604051918261395d565b8281526020918282016024809560051b8301019136831161240a578501905b82821061240e575050508235948511611db25736602386011215611db25784600401359461203b86613bc2565b95612049604051978861395d565b808752848488019160061b8301019136831161240a578501905b8282106123cc5750505033845260019283835260ff9161208b83600560408920015416613cd5565b805115612394578651156123505733865284845260408620928694600885018780600798898901925b612313575b505081548a8355806122f5575b5060068a999a9701965b8881106122cf5750899a899b5b61217a575b505050505085965084959394965b61211e575b85337f691ff89782e0c6c5f11b5801f5a5dccd5092ffd0defeccc6ceeb8acc1ca5b4698280a280f35b8051871015612175576121318782613fed565b5185811015612162578495969761214b61215a9286613e17565b805460ff191687179055613d63565b9695946120f0565b634e487b7160e01b875260216004528287fd5b6120f5565b809a999a518c10156122c7576121908c82613fed565b51601880878351161090816122b8575b50156122845785815116908581019187835116111561224c5780876121f392511660005284875287806040600020925116938460ff19845416178355511661ff0082549160081b169061ff001916179055565b8354600160401b811015612239579c612231916122198d9e9f8e9d9e8101885587613e2f565b89829392549160031b92831b921b1916179055613d63565b9b99986120dd565b634e487b7160e01b8d526041600452888dfd5b60405162461bcd60e51b8152600481018790526011818b015270125b9d985b1a59081d1a5b59481cdb1bdd607a1b6044820152606490fd5b60405162461bcd60e51b815260048101869052600d818a01526c496e76616c696420686f75727360981b6044820152606490fd5b905086868301511610386121a0565b9998996120e2565b806122e06122ed928a9d9c9d613e17565b805460ff19169055613d63565b9998996120d0565b828b52838b2061230d91601f0160051c810190613d17565b386120c6565b835481101561234b57808661232b6123459387613e2f565b90549060031b1c166000528386528c604060002055613d63565b816120b4565b6120b9565b60405162461bcd60e51b8152600481018590526017818401527f4e6f20617661696c61626c652074696d6520736c6f74730000000000000000006044820152606490fd5b60405162461bcd60e51b815260048101859052601181840152704e6f20617661696c61626c65206461797360781b6044820152606490fd5b60408236031261240a578460409182516123e5816138da565b6123ee85613ac6565b81526123fb838601613ac6565b83820152815201910190612063565b8680fd5b8135600781101561242657815290840190840161200e565b8780fd5b50346102225760403660031901126102225761244461377f565b6001600160a01b03168152600560205260408120805460243592908310156102225760206106b58484613b94565b5034610222576020366003190112610222576102f7906124b1906008906040906001600160a01b036124a261377f565b168152600160205220016143cf565b6040519182916020835260208301906138a3565b5034610222576020366003190112610222576004356124e26149d4565b506124eb614952565b50808252600460205261250060408320614a12565b60208101519091906001600160a01b03161561254e576125306040846102f79361253c9652600260205220613db6565b60405193848094613b39565b610120806101008501528301906139d4565b60405162461bcd60e51b8152602060048201526012602482015271141d5c98da185cd9481b9bdd08199bdd5b9960721b6044820152606490fd5b503461022257602036600319011261022257602060405160ff6018610e106004350406168152f35b5034610222576125bf36613ad4565b6001600160a01b03909216808452600160208181526040862060058101549296949360ff936125ef908516613cd5565b6125fa878610613f2e565b612605428611613f6f565b6006820186865b89811061271c575061261d81613fbb565b9888978b5b612635575b604051806102f78d82613afe565b81811080612713575b1561270e578761265661265083613d95565b86613e17565b5416612683575b610e10810180911161266f578b612622565b634e487b7160e01b8a52601160045260248afd5b876018610e108304061660005260078087018852876040600020604051906126aa826138da565b54908b8083169283835260081c1692839101521590811591612704575b506126d3575b5061265d565b858b52875260408a20818b5287528a8860408c2054166126cd579881610a6e826126fd949c613fed565b978a6126cd565b90501515386126c7565b612627565b5082891061263e565b8661272f61272983613d95565b85613e17565b5416612758575b610e1081018091111561260c575b634e487b7160e01b89526011600452602489fd5b866018610e1083040616600052600780860187528660406000206040519061277f826138da565b54908a8083169283835260081c16928391015215908115916127d9575b506127a8575b50612736565b848a52865260408920818a5286528660408a205416156127c9575b386127a2565b906127d390613d63565b906127c3565b905015153861279c565b50346102225760403660031901126102225760ff6007604061280361377f565b9361280c613aa6565b9460006020845161281c816138da565b828152015260018060a01b0316815260016020522001911660005260205260408060002060ff82519161284e836138da565b54818116835260081c1660208201526128788251809260ff60208092828151168552015116910152565bf35b5034610222576020908160031936011261022257906004359182815260029081835260ff936128b185600460408520015416614a82565b815260088352604081209182546128c781613bc2565b916128d5604051938461395d565b81835285830190819585528685209085925b8484106129935750505050506040519380850191818652518092526040850160408360051b8701019493965b8388106129205786860387f35b90919293948380600192603f198a8203018652885190815181528282015183820152848060a01b03604083015116604082015261296c6060808401519060c080918501528301906137b0565b91608080820151908301528660a08092015116910152970193019701969093929193612913565b60068960019260409b98999b516129a981613927565b865481528487015483820152848060a01b03868801541660408201526129d160038801613c2f565b6060820152600487015460808201528d60058801541660a0820152815201930193019291979594976128e7565b5034610222576020366003190112610222576020612a1d600435613d95565b61287860405180926137f0565b503461022257612a3936613a90565b908083526002602052612a4e60408420613db6565b602081019060018060a01b0382511685526001602052604085209060a081019160ff83511691821583800460011481171561274457670de0b6b3a7640000808502948504141715612fce576080015115612f965783516001600160a01b03163314612f515786546040516370a0823160e01b81523360048201526001600160a01b039091169360249290916020818581895afa8015612f465785918b91612f0d575b5010612ed05742881115612e8c57612b0788613d95565b60ff612b20816018610e108d0406169260068501613e17565b541615612e485789928a60088401600781549501915b858110612d8d575b50505050505015612d3e5783516001600160a01b03168752600760209081526040808920888a5290915287205460ff16612cff579060646020928860405195869485936323b872dd60e01b8552336004860152309085015260448401525af18015610d4457612bb3918691612ce65750613e67565b516001600160a01b03168352600760209081526040808520848652909152808420805460ff1916600117905551612be98161390b565b81815260e060046020830133815260408401908782526060850191888352608086019189835260a087019142835260c08801938a85528b888a0152898c528660205260408c209589518755600187019360018060a01b0390511684549360ff60a01b9051151560a01b169160ff60a81b9051151560a81b169260ff60b01b9051151560b01b169368ffffffffffffffffff60b81b1617171717905551600283015551600382015501910151151560ff801983541691161790553383526006602052612cb78160408520613d2e565b6040519182527f4edf016340498079fac90607146e71517de477a412e60d4d20f98db4978b8ae260203393a380f35b610d37915060203d602011610d3d57610d2f818361395d565b60649060186040519162461bcd60e51b83526020600484015282015277151a5b59481cdb1bdd08185b1c9958591e48189bdbdad95960421b6044820152fd5b60849060226040519162461bcd60e51b8352602060048401528201527f54696d6520736c6f74206e6f7420617661696c61626c65206f7220696e76616c6044820152611a5960f21b6064820152fd5b60ff612d998284613e2f565b90549060031b1c1660005282602052604060002060405190612dba826138da565b54602060ff8083169283855260081c169201908282528710159182612e3e575b5081612e08575b50612df457612def90613d63565b612b36565b505050505050506001388080808080612b3e565b905060ff85511686019060ff8211612e2a5760ff809151169116111538612de1565b50634e487b7160e01b8f526011600452888ffd5b8710915038612dda565b60405162461bcd60e51b815260206004820152601c818601527f446179206e6f7420617661696c61626c6520666f722073656c6c6572000000006044820152606490fd5b60405162461bcd60e51b8152602060048201819052818501527f5363686564756c65642074696d65206d75737420626520696e206675747572656044820152606490fd5b60405162461bcd60e51b815260206004820152601681850152754e6f7420656e6f7567682054494d4520746f6b656e7360501b6044820152606490fd5b9150506020813d602011612f3e575b81612f296020938361395d565b81010312612f3a5784905138612af0565b8980fd5b3d9150612f1c565b6040513d8c823e3d90fd5b60405162461bcd60e51b815260206004820152601b60248201527f43616e6e6f742062757920796f7572206f776e207365727669636500000000006044820152606490fd5b60405162461bcd60e51b815260206004820152601060248201526f5365727669636520696e61637469766560801b6044820152606490fd5b634e487b7160e01b88526011600452602488fd5b5034610222578060031936011261022257600b5481805b82811061306b575061300a90614984565b9180805b83811061302b57604051602080825281906102f790820188613a34565b80825260026020526040822060ff600482015416613053575b5061304e90613d63565b61300e565b61304e919361032561306492613db6565b9290613044565b808452600260205260ff600460408620015416613091575b61308c90613d63565b612ff9565b9061309e61308c91613d63565b919050613083565b5034610222576040366003190112610222576001600160401b0390600435828111610360576130d990369060040161397e565b916024908135818111611db2576130f490369060040161397e565b93338452600190602082815260059160ff83604089200154166133d3573387528382526040872091336bffffffffffffffffffffffff60a01b8454161783558483018251878111613322578061314a8354613bf5565b948b601f968688821161339f575b5050508490868311600114613340578c92613335575b5050600019600383901b1c191690871b1790555b60028301918951918783116133225761319b8454613bf5565b8281116132ee575b508091831160011461328957508190899a8a9261327e575b5050600019600383901b1c191690851b1790555b600381018690556004810186905501805460ff1916909117905582546001600160a01b0316803b156132795783908360405180968193625e333960e41b83523360048401525af1801561326e5761324a575b83337f54db7a5cb4735e1aac1f53db512d3390390bb6637bd30ad4bf9fc98667d9b9b98280a280f35b821161325c5750604052388080613221565b634e487b7160e01b8352604160045282fd5b6040513d86823e3d90fd5b505050fd5b0151905038806131bb565b9199601f198b16848b52838b20938b905b8282106132d7575050918793918c8c9d94106132be575b505050811b0190556131cf565b015160001960f88460031b161c191690553880806132b1565b808a8697829497870151815501960194019061329a565b61331390858c52828c20848087018a1c820192858810613319575b01891c0190613d17565b386131a3565b92508192613309565b634e487b7160e01b8a526041600452888afd5b01519050388061316e565b848d52858d208a94509190601f1984168e5b888282106133895750508411613370575b505050811b019055613182565b015160001960f88460031b161c19169055388080613363565b8385015186558d97909501949384019301613352565b82876133c2945220888086018c1c8201928987106133ca575b018b1c0190613d17565b8b3886613158565b925081926133b8565b60405162461bcd60e51b8152600481018390526017818801527f5573657220616c726561647920726567697374657265640000000000000000006044820152606490fd5b50346102225760203660031901126102225760406020916004358152600983522054604051908152f35b50346102225760403660031901126102225760ff604060209261346261379a565b6004358252600a85528282206001600160a01b03909116825284522054604051911615158152f35b5034610222576020366003190112610222576001600160a01b0390604090826134b161377f565b1681526001602052206102f760ff600583015416926134cf84613cd5565b8254169161357960038201549461356b6004840154966134ee85614001565b6134f7866140c6565b9361350460018801613c2f565b9961354c613520600861351960028c01613c2f565b9a016143cf565b9861353e6040519d8e9d8e528d6101209081602082015201906137b0565b8c810360408e0152906137b0565b9360608b015260808a0152151560a089015287820360c0890152613813565b9085820360e0870152613853565b908382036101008501526138a3565b905034610360576020806003193601126105ad5760043583526004815260408320916002825260ff600460408620015460081c16928315848004600114811715610e6557670de0b6b3a7640000808602958604141715610e51576001810180546001600160a01b039391929091848316330361373d5750600460ff91613613838560b01c1615613eee565b015416156136e75760ff60b01b1916600160b01b179055835460405163a9059cbb60e01b815233600482015260248101859052929182918491168187816044810103925af191821561326e576040926136729186916136d05750613e67565b8151928352820152601c60408201527f526566756e6420666f722063616e63656c6c656420736572766963650000000060608201527f127b7b7ee9eeb9e7571d22eeffacbaed4bf3a79e01ad801bd4637710cc3c095360803392a280f35b610d379150833d8511610d3d57610d2f818361395d565b60405162461bcd60e51b815260048101859052602860248201527f43616e206f6e6c7920776974686472617720666f722063616e63656c6c656420604482015267736572766963657360c01b6064820152608490fd5b62461bcd60e51b815260048101869052601760248201527f4f6e6c792062757965722063616e2077697468647261770000000000000000006044820152606490fd5b600435906001600160a01b038216820361379557565b600080fd5b602435906001600160a01b038216820361379557565b919082519283825260005b8481106137dc575050826000602080949584010152601f8019910116010190565b6020818301810151848301820152016137bb565b9060078210156137fd5752565b634e487b7160e01b600052602160045260246000fd5b90815180825260208080930193019160005b828110613833575050505090565b9091929382808261384760019489516137f0565b01950193929101613825565b90815180825260208080930193019160005b828110613873575050505090565b9091929382604082613897600194895160ff60208092828151168552015116910152565b01950193929101613865565b90815180825260208080930193019160005b8281106138c3575050505090565b835160ff16855293810193928101926001016138b5565b604081019081106001600160401b038211176138f557604052565b634e487b7160e01b600052604160045260246000fd5b61010081019081106001600160401b038211176138f557604052565b60c081019081106001600160401b038211176138f557604052565b606081019081106001600160401b038211176138f557604052565b90601f801991011681019081106001600160401b038211176138f557604052565b81601f82011215613795578035906001600160401b0382116138f557604051926139b2601f8401601f19166020018561395d565b8284526020838301011161379557816000926020809301838601378301015290565b908151815260018060a01b03602083015116602082015260a060ff81613a1e613a0c604087015160c0604088015260c08701906137b0565b606087015186820360608801526137b0565b9460808101511515608086015201511691015290565b908082519081815260208091019281808460051b8301019501936000915b848310613a625750505050505090565b9091929394958480613a80600193601f198682030187528a516139d4565b9801930193019194939290613a52565b6040906003190112613795576004359060243590565b6024359060ff8216820361379557565b6044359060ff8216820361379557565b359060ff8216820361379557565b6060906003190112613795576004356001600160a01b038116810361379557906024359060443590565b6020908160408183019282815285518094520193019160005b828110613b25575050505090565b835185529381019392810192600101613b17565b60e080918051845260018060a01b03602082015116602085015260408101511515604085015260608101511515606085015260808101511515608085015260a081015160a085015260c081015160c085015201511515910152565b8054821015613bac5760005260206000200190600090565b634e487b7160e01b600052603260045260246000fd5b6001600160401b0381116138f55760051b60200190565b8054821015613bac576000526006602060002091020190600090565b90600182811c92168015613c25575b6020831014613c0f57565b634e487b7160e01b600052602260045260246000fd5b91607f1691613c04565b9060405191826000825492613c4384613bf5565b908184526001948581169081600014613cb25750600114613c6f575b5050613c6d9250038361395d565b565b9093915060005260209081600020936000915b818310613c9a575050613c6d93508201013880613c5f565b85548884018501529485019487945091830191613c82565b915050613c6d94506020925060ff191682840152151560051b8201013880613c5f565b15613cdc57565b60405162461bcd60e51b8152602060048201526013602482015272155cd95c881b9bdd081c9959da5cdd195c9959606a1b6044820152606490fd5b818110613d22575050565b60008155600101613d17565b8054600160401b8110156138f557613d4b91600182018155613b94565b819291549060031b91821b91600019901b1916179055565b6000198114613d725760010190565b634e487b7160e01b600052601160045260246000fd5b91908201809211613d7257565b62015180900460038101809111613d72576007900660078110156137fd5790565b90604051613dc381613927565b60a060ff6004839580548552600180851b036001820154166020860152613dec60028201613c2f565b6040860152613dfd60038201613c2f565b606086015201548181161515608085015260081c16910152565b9060078110156137fd57600052602052604060002090565b9190918054831015613bac57600052601f60206000208360051c01921690565b90816020910312613795575180151581036137955790565b15613e6e57565b60405162461bcd60e51b8152602060048201526015602482015274151bdad95b881d1c985b9cd9995c8819985a5b1959605a1b6044820152606490fd5b15613eb257565b60405162461bcd60e51b815260206004820152601460248201527314d95c9d9a58d9481a5cc818d85b98d95b1b195960621b6044820152606490fd5b15613ef557565b60405162461bcd60e51b815260206004820152601160248201527020b63932b0b23c903bb4ba34323930bbb760791b6044820152606490fd5b15613f3557565b60405162461bcd60e51b8152602060048201526012602482015271496e76616c69642074696d652072616e676560701b6044820152606490fd5b15613f7657565b60405162461bcd60e51b815260206004820152601c60248201527f53746172742074696d65206d75737420626520696e20667574757265000000006044820152606490fd5b90613fc582613bc2565b613fd2604051918261395d565b8281528092613fe3601f1991613bc2565b0190602036910137565b8051821015613bac5760209160051b010190565b600090815b6007811061408d575061401882613bc2565b91614026604051938461395d565b808352614035601f1991613bc2565b013660208401376000805b6007811061404e5750505090565b60ff61405d8260068601613e17565b5416614072575b61406d90613d63565b614040565b906140858183610a6e61406d9488613fed565b919050614064565b60ff61409c8260068501613e17565b54166140b1575b6140ac90613d63565b614006565b916140be6140ac91613d63565b9290506140a3565b6008908181018054916140d883613bc2565b936040926140e88451968761395d565b848652601f196140f786613bc2565b0160005b81811061417557505060005b8581106141175750505050505090565b806141256141709284613e2f565b9060ff918291549060031b1c166000526020600787018152876000209188519261414e846138da565b548181168452871c1690820152614165828a613fed565b5261033a8189613fed565b614107565b6020908651614183816138da565b6000815282600081830152828b010152016140fb565b90600091825260206002815260019060409060018060a01b03838387200154168552828152818520938592600893848701600781549801915b8881106141e55750505050505050505090565b6141ef8183613e2f565b9060ff918291549060031b1c168b5283875286858c2091865192614212846138da565b549281808516948583528c1c1692839101528716918210159182614252575b50506142455761424090613d63565b6141d2565b5050505050505091505090565b1090503880614231565b9160008381526020906002825260409485822094428111156143945781835260038452868320818452845260ff9081888520541661435b576018610e1083920406168160048598015460081c16965b8781106142fe575050505064736c6f747360d81b91929350937f5363686564756c65642074696d65206e6f7420696e20617661696c61626c65208151936142f185613942565b6025855284015282015290565b6143138361430c8385613d88565b1685614199565b6143255761432090613d63565b6142ab565b505050505090915071151a5b59481cdb1bdd081a5cc81d985b1a5960721b6001935191614351836138da565b6012835282015290565b50505077151a5b59481cdb1bdd08185b1c9958591e48189bdbdad95960421b9192935093519161438a836138da565b6018835282015290565b505093519192507f5363686564756c65642074696d65206d75737420626520696e20667574757265906143c6836138da565b80835282015290565b90604051918281549182825260209081830190600052816000206000905b85601f8301106147bb5794613c6d955491848282106147a8575b828210614792575b82821061477c575b828210614766575b828210614751575b82821061473b575b828210614725575b82821061470f575b8282106146f9575b8282106146e3575b8282106146cd575b8282106146b7575b8282106146a1575b82821061468b575b828210614675575b82821061465f575b828210614649575b828210614633575b82821061461d575b828210614607575b8282106145f1575b8282106145db575b8282106145c5575b8282106145af575b828210614599575b828210614583575b82821061456d575b828210614557575b828210614541575b82821061452b575b828210614515575b5010614508575b509050038361395d565b60f81c81520180386144fe565b6001919460ff8560f01c168152019301846144f7565b6001919460ff8560e81c168152019301846144ef565b6001919460ff8560e01c168152019301846144e7565b6001919460ff8560d81c168152019301846144df565b6001919460ff8560d01c168152019301846144d7565b6001919460ff8560c81c168152019301846144cf565b6001919460ff8560c01c168152019301846144c7565b6001919460ff8560b81c168152019301846144bf565b6001919460ff8560b01c168152019301846144b7565b6001919460ff8560a81c168152019301846144af565b6001919460ff8560a01c168152019301846144a7565b6001919460ff8560981c1681520193018461449f565b6001919460ff8560901c16815201930184614497565b6001919460ff8560881c1681520193018461448f565b6001919460ff8560801c16815201930184614487565b6001919460ff8560781c1681520193018461447f565b6001919460ff8560701c16815201930184614477565b6001919460ff8560681c1681520193018461446f565b6001919460ff8560601c16815201930184614467565b6001919460ff8560581c1681520193018461445f565b6001919460ff8560501c16815201930184614457565b6001919460ff8560481c1681520193018461444f565b6001919460ff8560401c16815201930184614447565b6001919460ff8560381c1681520193018461443f565b6001919460ff8560301c16815201930184614437565b6001919460ff8560281c1681520193018461442f565b6001919460ff85831c16815201930184614427565b6001919460ff8560181c1681520193018461441f565b6001919460ff8560101c16815201930184614417565b6001919460ff8560081c1681520193018461440f565b6001919460ff8516815201930184614407565b9350916001610400829693865460ff8116825260ff8160081c168583015260ff8160101c16604083015260ff816060828260181c16818601528282608082828c1c1681890152828260a092828260281c16848c0152828260c0988d8a848460301c169101528d60e0848460381c169101528d610100848460401c169101528d610120848460481c169101528d610140848460501c169101528d610160848460581c169101521c166101808c0152828260681c166101a08c0152828260701c166101c08c0152828260781c166101e08c01521c16610200890152828260881c16610220890152828260901c16610240890152828260981c166102608901521c16610280860152828260a81c166102a0860152828260b01c166102c0860152828260b81c166102e08601521c1661030083015260ff8160c81c1661032083015260ff8160d01c1661034083015260ff8160d81c1661036083015260ff8160e01c1661038083015260ff8160e81c166103a083015260ff8160f01c166103c083015260f81c6103e0820152019401920186939194926143ed565b6040519061495f82613927565b600060a083828152826020820152606060408201526060808201528260808201520152565b9061498e82613bc2565b61499b604051918261395d565b82815280926149ac601f1991613bc2565b019060005b8281106149bd57505050565b6020906149c8614952565b828285010152016149b1565b604051906149e18261390b565b8160e06000918281528260208201528260408201528260608201528260808201528260a08201528260c08201520152565b90604051614a1f8161390b565b60e060ff600483958054855282600182015460018060a01b0381166020880152818160a01c1615156040880152818160a81c161515606088015260b01c1615156080860152600281015460a0860152600381015460c08601520154161515910152565b15614a8957565b60405162461bcd60e51b815260206004820152601d60248201527f53657276696365206e6f7420666f756e64206f7220696e6163746976650000006044820152606490fd5b90610e1061ffff80931602918216918203613d7257565b919091614af3828410613f2e565b614afe428411613f6f565b60018060a01b03169160009183835260209360058552604094858520918651808484829654938481520190895284892092895b86828210614d7357505050614b489250038461395d565b855260068152858520958051808884829a54938481520190895284892092895b86828210614d5d57505050614b7f9250038861395d565b855b8351811015614c6a57614b948185613fed565b518752600480845282882060ff9081838201541615614bbf575b505050614bba90613d63565b614b81565b614bee614bf592600361ffff93015494614bd9878b613fed565b518d5260028952878d20015460081c16614ace565b1682613d88565b818810159182614c60575b8215614c45575b8215614c27575b5050614c1c57388080614bae565b505050505050905090565b881115915081614c3a575b503880614c0e565b905085101538614c32565b809250871180614c56575b91614c07565b5080871115614c50565b8189109250614c00565b50959150845b8251811015614d5157614c838184613fed565b518652600480835287872060ff9081838201541615614cae575b505050614ca990613d63565b614c70565b614bee614cdd92600361ffff93015494614cc8878a613fed565b518c52600288528c8c20015460081c16614ace565b818710159182614d47575b8215614d2c575b8215614d0e575b5050614d0457388080614c9d565b5050505050905090565b871115915081614d21575b503880614cf6565b905084101538614d19565b809250861180614d3d575b91614cef565b5080861115614d37565b8188109250614ce8565b50505050505050600190565b855484526001958601958d955093019201614b68565b8554845260019586019589955093019201614b31565b91908203918211613d7257565b8115614f0b576000928392600b54935b848110614ece5750614db89083613d88565b848111614ec7575b84831015614e9f57614dda614dd58483614d89565b614984565b926000908193825b87811080614e96575b15614e8b5780600052600260205286604060002060ff600482015416614e1c575b5050614e1790613d63565b614de2565b85614e4692614e409287614e17969b99101580614e82575b614e50575b5050613d63565b94613d63565b9590508638614e0c565b614e7a91614e73614e6d92614e658b8d614d89565b938491613db6565b92613fed565b528b613fed565b508938614e39565b50898310614e34565b509550505050509190565b50848610614deb565b50915050604051602081018181106001600160401b038211176138f557604052600081529190565b5083614dc0565b80600052600260205260ff60046040600020015416614ef6575b614ef190613d63565b614da6565b94614f03614ef191613d63565b959050614ee8565b606460405162461bcd60e51b815260206004820152602060248201527f506167652073697a65206d7573742062652067726561746572207468616e20306044820152fdfea2646970667358221220a5bb8287ec84d6c7271725d4c92bf3aba09d4f2e3e42488f0cefaba7a0ea48ce64736f6c63430008140033",
  "linkReferences": {},
  "deployedLinkReferences": {}
}